:020000040000FA
:10000000500320208D0100009101000093010000A9
:1000100000000000000000000000000000000000E0
:10002000000000000000000000000000950100003A
:10003000000000000000000097010000C90D000052
:100040009B0100009B0100009B010000810F00004C
:100050009B0100009B0100009B0100009B01000030
:10006000000000009B0100009B0100000000000058
:1000700000000000610F00009B010000B10E0000B5
:100080009B0100009B0100009B010000DD0D0000B2
:100090009B0100009B010000000000000000000028
:1000A0009B0100009B010000000000000000000018
:1000B0009B010000000000009B0100009B0100006C
:1000C00000F002F800F052F812A030C808382418E6
:1000D0002D18AC4201D100F049F80FCCA246AB4636
:1000E0000CA730CF2D1B083F3F197C427F1E544484
:1000F0002D090426F441641EAC4201D300F036F809
:100100000126334200D0FB1A3343984754465D46DC
:10011000DFE700009C130000BC130000000000009B
:10012000103A02D378C878C1FAD8520701D330C840
:1001300030C101D504680C60704700000000000069
:100140007047000000000000002300240025002666
:10015000103A01D378C1FBD8520700D330C100D583
:100160000B6070471FB51FBD10B510BD00F0DDF965
:100170001146FFF7F7FF01F087F800F0F5F903B437
:10018000FFF7F2FF03BC00F0FBF900000648004750
:10019000FEE7FEE7FEE7FEE7FEE7FEE70348044969
:1001A000024A044B70470000C100000050022020AA
:1001B00050032020500220207047704770470000F5
:1001C00030B50346CA02400D1043164D164C0A15B1
:1001D00002D02043002A06DBAA1A002A12DDD040F2
:1001E000FF2A0BDC30BD5205520D01D14000400802
:1001F000AA1A07D4D0404042FF2A01DD002030BDBA
:100200000028FCDD4A00002B01D0012000E0002086
:10021000101801225205D042F0D8C817C0436040E0
:1002200030BD00001E040000000000801F22030CEF
:1002300002D10F22000402D0030E03D004E00020FC
:10024000014670470002083A030F01D10001121F56
:10025000830F01D18000921E002801DB4000521E56
:10026000120551184205C012411810467047C10FBF
:10027000C90700D04042012292071143D6E701216D
:100280008907D3E7F0B58B4C0F09254689B0BD43EC
:100290007BD01D092646AE43FAD00E465E4027406D
:1002A000F60F3E43254071D024012142FBD0FF24AC
:1002B000AD19A4042D1B039501252D05DB02DB0AD6
:1002C000C9022B43C90A29431E010901040F130F58
:1002D000050121431701880B820391432D098C46A8
:1002E000A90B1E438A039543B30B9A0396433F0918
:1002F000BA0B9403A74302962E467E430497B64654
:100300004E19D7190C460196544305977E43371B67
:100310007646BF1B3601B646BE0B361900967646AA
:10032000BC043719009C01D3641C00946400002FA6
:1003300001D001263443029E049F754366467E43E6
:100340000496760034196E0034190094029C019EC4
:100350001C196643751BAE46069465464519059CF7
:1003600005956C43594375460891691A0191049E9D
:1003700001465143A41B0491611A009C0791E106B8
:1003800005D061090122114302E072E06EE06109CB
:10039000089D00272C0A2D066918049D7C412A0A15
:1003A0002D066918019D6241AC0DAD026D185441D6
:1003B000079A910D920255196141029A6446584379
:1003C0005443069B059A5A43121A131B9A0E9B011B
:1003D0005B187A41010B0005C3185141220A20061F
:1003E00044195A419A4200D2491C012040028142DC
:1003F00003D315230226F64302E014230326F64313
:100400002020C51AA9401746AF40DA400A432046CB
:100410000399D8400914731819055118039A3843E1
:10042000D2075140AC4009D00122944006D30022AB
:10043000401C5141002C01D1400840001E4A93420B
:1004400012D3012203989206904207DB0520400751
:1004500009181A480143C012414004E00320400734
:100460000818C10FC907002009B0F0BD0020F1072E
:10047000FAE705180C464C4111486D42A04115D3CE
:1004800094181A465A410E48644290410ED30120F6
:100490004A004005824209D35A00824206D359409D
:1004A000C90F084AC90700201143DDE700200649AB
:1004B000DAE700000000FF07FE070000FFFFFF7FF4
:1004C0000000E0FF0000F07F0000F87F1F22030C17
:1004D00002D10F2200041CD0030E01D10002083A01
:1004E000030F01D10001121F830F01D18000921E62
:1004F000002801DB4000521ED2055118021251188B
:100500001922904004D3491C002801D14908490010
:1005100008467047C10FC90700D040420122920728
:100520001143D3E701218907D0E7754600F024F88D
:10053000AE46050069465346C008C000854618B05F
:1005400020B5FFF72BFE60BCB64600260027C0C5CD
:10055000C0C5C0C5C0C5C0C5C0C5C0C5C0C5403D7B
:10056000490849008D46704710B50446C046C0464C
:100570002046FFF704FE10BD004870470800202009
:1005800001491820ABBEFEE7260002007047811E1D
:10059000091F00BFFCD2704770B50A780C231A40BF
:1005A0000124240305196E689E43B2186A604978D5
:1005B00007221140035993435918015170BD00009F
:1005C000F0B57A4A82183B4BC31808794E793A4DF8
:1005D000784C002E23D0202804D00526F6010028D0
:1005E00003D003E0354E002800D18826576F2F40F6
:1005F00037435767976F2F4037439767566B2640AF
:100600005663966B264096630026566596658F2640
:10061000F6435F6837405F609F6837409F608E7920
:10062000096820280BD0002819D1491E5160D76EC7
:100630002F4088210F43D7661746703719E0491EAF
:100640005160D16E29401D4F3943D166116F294049
:100650003943116701214907194D174609E0490837
:100660005160D76E2F400521C9010F43D766174649
:1006700070373C682C400C433C60D16A4D4C2140A3
:10068000D162116B214011630021D16411658F216A
:10069000C943D46F0C40D4671C680C401C600643EF
:1006A000BD2030401168074B0B40C018801C106003
:1006B000F0BDC0468418000024493E00010400003B
:1006C000FFFFFFCF4000FFCFB0B54A68364BC250A6
:1006D000364A80180A78222A58D8930001A4E35891
:1006E0009F46C046830700008D0700008307000077
:1006F0008D0700008D0700008D0700008D070000AA
:100700008D0700008D0700008D0700008D07000099
:100710008D0700008D0700008D0700008D07000089
:100720008D070000710700008D07000071070000B1
:100730008D0700008D0700008D0700008D07000069
:100740008D0700008D0700008D0700008D07000059
:100750008D0700008D0700008D0700008D07000049
:100760008D070000710700008D0700007107000071
:1007700003231B0704689C4301235B07E318036002
:1007800004E003231B0704689C4304600B69C360F7
:10079000CB68074C1C40C36A064D1D402B19C36231
:1007A000097A11430160B0BD081800000418000068
:1007B000777702008888FDFF10B507239B04194056
:1007C00092008018024A84589C436118815010BDE1
:1007D0003018000010B5029CA40000191143194301
:1007E000014A815010BDC046501800009200801888
:1007F000014A81507047C0461018000010B5012210
:10080000120383180C789C604B7883508978014AD6
:10081000815010BD0C110000B0B511221202835896
:100820000124A34383500B888C781C438B8823437B
:10083000094C1C408358094D1D40631983508B7926
:10084000CC791C43097A21437E23194080184268E1
:100850009A4351184160B0BD18670000E798FDFF4A
:1008600010B50122120383180C789C6049788150DE
:1008700010BD000070B5234C217802291AD001293F
:100880000AD0002911D1552813D11F480121017028
:100890001E48552202700BE0532806D11A48022147
:1008A00001701A485322427002E01748002101707B
:1008B000217070BD144D2A7814498854501C28703A
:1008C000C0B20B28F5D3CA79887983180E7A9B19A0
:1008D0004E7A9B19583BDBB2897A8B420ED1144E6B
:1008E0000121317011020818FFF71CFE0721C9060B
:1008F00000F05AFD064900F057FD70600020287096
:10090000207070BD7400202073002020680020201B
:100910000000344304480821016004480160044891
:10092000002141600170704780E200E000E100E0DA
:1009300034022020B0B514488421C167012211037C
:10094000124B196012490C460C3C85252560540356
:100950001C60872303650F4C402525604365802379
:1009600023600D4B0B604B6052060B6813430B600A
:100970004B6813434B6082218163084AC263016064
:10098000C2608166C266B0BD0C804240D0120A408F
:1009900098804240D0320A4084000C00820004005B
:1009A00080B511481149FFF7F7FD032041021048B7
:1009B00002680A43026001210A02036813430360CC
:1009C0000022426107224262836B934383631202D7
:1009D000836B93438363826A042313438362826A33
:1009E0000A43826280BDC04600200F4058140000B8
:1009F00000320F40F0B581B01C4C1D492046FFF776
:100A0000FDFE1C492046FFF7DBFD1B4801683E4AFE
:100A10000A40026000250095204629462A462B46BA
:100A2000FFF7D8FE204629462A46FFF7C5FE642672
:100A3000204631462A46FFF7D9FE01270097204677
:100A400029462A462B46FFF7C5FE204629463A4648
:100A5000FFF7B2FE204631463A46FFF7C7FE074889
:100A600087600321016001B0F0BDC046004008402E
:100A70005A14000060140000045808400051084057
:100A8000F0B581B01C4C1D492046FFF7B7FE1C494C
:100A90002046FFF795FD1B4801681B4A0A4002608B
:100AA00000250095204629462A462B46FFF792FE50
:100AB000204629462A46FFF77FFE64262046314617
:100AC0002A46FFF793FE01270097204629462A462B
:100AD0002B46FFF77FFE204629463A46FFF76CFE7D
:100AE000204631463A46FFF781FE084887600321D9
:100AF000016001B0F0BDC04600808640681400006F
:100B00006C140000049886407F00FFFF009186402F
:100B10000C48002101600320C1430B480246083AFB
:100B200013680B40136001680122914301601102B8
:100B300003688B4303601103001F02680A430260CD
:100B40007047C04608030B4008010B40084809499C
:100B50004160FF210906084A13688B430321890776
:100B60005918116000218160072101607047C0465B
:100B700010E000E0FF7C000020ED00E010B5084C24
:100B800008492046FFF73AFE07492046FFF79CFD3B
:100B9000064801680122114301600548026010BD4A
:100BA000002086407414000078140000283086402D
:100BB0000831864010B5154C15492046FFF750FE08
:100BC00014492046FFF728FE0321CA031248036890
:100BD000934303600269474B13409A1C02614269C8
:100BE0000B231343342293434361426801231A4089
:100BF00044689C43A21842608902084A14680C4366
:100C0000146001681943016010BDC04600801040A7
:100C10008C1400008E1400000091104028901040A9
:100C200010B5154C15492046FFF71AFE1449204609
:100C3000FFF7F2FD0321CA031248036893430360E0
:100C400002692C4B13409A1C026142690B23134327
:100C5000342293434361426801231A4044689C4311
:100C6000A21842608902084A14680C4314600168A3
:100C70001943016010BDC0460000104098140000E8
:100C80009A140000001110402810104010B5154CA7
:100C900015492046FFF7E4FD14492046FFF7BCFD47
:100CA0000321CA0312480368934303600269114B8E
:100CB00013409A1C026142690B231343342293436D
:100CC0004361426801231A4044689C43A218426071
:100CD0008902094A14680C431460016819430160D1
:100CE00010BDC04600005040A4140000A61400002F
:100CF000001150400000FFFF2810504080B500F068
:100D000025F8FFF717FEFFF703FFFFF773FEFFF766
:100D1000B7FEFFF733FFFFF743FEFFF781FFFFF753
:100D200049FFFFF7B3FFFFF711FFB8200449002286
:100D30000A549C2003490A542C2003490A5480BDBC
:100D40002001202080002020DC012020F0B581B08F
:100D50001248134A42601348426013484260134CE1
:100D60006260134D6A60134E7260134F7A601349CC
:100D70004A6013484260134A084B1A60094B1A60D4
:100D8000094B1A6022602A6032603A600A60026091
:100D90001020FFF7FCFB01B0F0BDC04600080A4080
:100DA000030000B100280A4000480840008886403F
:100DB0000028864000280F4000081040008810409E
:100DC000000850400100002603480168002902D0B5
:100DD0000168491E016070477C002020F0B581B099
:100DE0002C480068C0B2012851D12B4C256A022042
:100DF000285EFFF73CFA294A294BFFF743FAFFF731
:100E0000DFF96188081807B22648874200DC0746E8
:100E1000E1204601B74200DB374667800420285EA8
:100E2000FFF725FA1D4A1E4BFFF72CFAFFF7C8F90A
:100E30002188081800B21B49884200DC0846B042ED
:100E400000DB30462080010F401800B20011A08165
:100E5000B9B2C90B791809B24B106383124D2E78C1
:100E6000002E07D01620225E1820215E123418466C
:100E7000234604E00821625E0A21615E231D00F022
:100E800093F80120C104094A116046402E7001B058
:100E9000F0BDC046203086400C0220209A999999D6
:100EA0009999B93FE0E3FFFF7700202080E200E05E
:100EB000B0B524480068C0B20B283BD12248006876
:100EC000224908700B782248017801290BD00029AB
:100ED0002CD1AA2B2ED11F4901220A701E49AA2308
:100EE0000B700270B0BD1B490C781B4A13550C786F
:100EF000641C0C70BB2B1ED10B78032B1BD300235F
:100F000003700B701478AA2C0DD15479BB2C0AD124
:100F1000947855782D022C19104D6C801479D27864
:100F200012021219AA8003700B70B0BD002101706B
:100F300008480170B0BD0A78072AFBD3002202706E
:100F40000A70B0BD2090104024911040440220202F
:100F500043022020420220203C0220204802202080
:100F600004480068C0B20B2803D103480068034955
:100F700008707047201010402411104045022020B6
:100F800080B506480068C0B20B2806D10448006846
:100F900004490870C0B2FFF76DFC80BD20105040BE
:100FA0002411504046022020F0B501265E801C88A6
:100FB000002C00D0F0BD634D2970002800DC002615
:100FC0005E81614C2670090A604F397001B2C91305
:100FD0004840401A18815E490870010A5D4B19703B
:100FE00000B2C0135C4E30705C49087089480368D9
:100FF000DB0708D00368DB0705D00368DB0702D0F6
:101000000368DB07F3D1D2B282610268D20708D04D
:101010000268D20705D00268D20702D00268D20760
:10102000F3D1FB2282610268D20708D00268D2079E
:1010300005D00268D20702D00268D207F3D1227825
:1010400082610268D20708D00268D20705D0026820
:10105000D20702D00268D207F3D13A7882610268DF
:10106000D20708D00268D20705D00268D20702D0A2
:101070000268D207F3D12A7882610268D20708D0C9
:101080000268D20705D00268D20702D00268D207F0
:10109000F3D1327882610268D20708D00268D207A1
:1010A00005D00268D20702D00268D207F3D10978CE
:1010B00081610168C90708D00168C90705D00168C6
:1010C000C90702D00168C907F3D1224909788161B3
:1010D0000168C90708D00168C90705D00168C907B8
:1010E00002D00168C907F3D1194909788161016803
:1010F000C90708D00168C90705D00168C90702D02F
:101100000168C907F3D1012181610168C90708D0CD
:101110000168C90705D00168C90702D00168C9077D
:10112000F3D1002181610168C90708D00168C907AE
:1011300005D00168C90702D00168C907F3D16B2146
:101140008161F0BD010020207800202000002020D7
:10115000020020207B002020790020207A0020201F
:101160001080002800D070472A480268D20708D0B3
:101170000268D20705D00268D20702D00268D207FF
:10118000F3D1C9B281610168C90708D00168C907F4
:1011900005D00168C90702D00168C907F3D1F3215E
:1011A00081610168C90708D00168C90705D00168D5
:1011B000C90702D00168C907F3D1AB218161016879
:1011C000C90708D00168C90705D00168C90702D05E
:1011D0000168C907F3D1012181610168C90708D0FD
:1011E0000168C90705D00168C90702D00168C907AD
:1011F000F3D1002181610168C90708D00168C907DE
:1012000005D00168C90702D00168C907F3D16B2175
:10121000816170470811104007490860086800287C
:1012200008D00868002805D00868002802D008689F
:101230000028F3D17047C0467C00202070B50F4CC9
:1012400000200F4A0F4B01210D040926760121C40D
:1012500022606060083C2246103249C2E061221DD3
:10126000FFF77EFF1620215E1220205E22461232FA
:10127000FFF776FF00F084F8206270BD0C0220209A
:101280000100200101000200FFF738FD01204103A9
:10129000424A1160424B19600A490C680F252543E8
:1012A0000D60C0041060186000F06CF8FFF7C6FF16
:1012B00000F00AF8FFF72EFB0A20FFF7ADFF00F061
:1012C00009F8F9E7281010402A4800214170017000
:1012D0007047C046F0B581B00025264F7A5763218C
:1012E000C843824200DC02466423642A114600DBC4
:1012F0001946397001243E57864200DC0646642EAA
:1013000000DB1E467E701C4F012A05DB002238469A
:10131000FFF76CFA254606E00A0623D0494201226F
:101320003846FFF763FA0026384631462A46FFF76B
:101330005DFA10480157114C012905DB00222046B7
:10134000FFF754FA012606E000290FD04942012296
:101350002046FFF74BFA002120463246FFF746FAB7
:1013600001B0F0BD002138460A46D1E700212046F1
:101370000A46E5E7750020200040084000808640CE
:10138000084870470120C003044908600449086008
:1013900004480021818041800170704780E200E0B4
:1013A00000E100E04802202070B5420064414B009B
:1013B0005C41120E39D01B0E38D0FF2A3CD0FF2BD7
:1013C0003AD0D2187F3A40024902400A490A4518E9
:1013D000ED0106004E43000A090A48430104731A4E
:1013E0004019190C4318990F04D05B0801214907D3
:1013F0005B1A521CD80904D3401CF50301D19D0689
:1014000007D0FF2A08D2D50506D0E40720434019AB
:1014100070BD0125A843F4E7002A01DCE00770BD98
:101420002402FF202043C00570BD1B0EFF2A03D0FD
:10143000FF2B01D0E00770BDFF2636064500B54200
:1014400006D84D00B54203D8D218FF2A00D0E7E7EE
:10145000004870BD0000C07F0800080703000000BE
:1014600064000000000101000807030064000000A0
:10147000000101000807630002000000C70000002F
:101480000100000000000000000000000400000057
:1014900018000000003000000400000018000000E8
:1014A00000300000040000001800000000300000C0
:1014B000D0140000000020200800000020010000DF
:1014C000D814000008002020480300004801000054
:0814D00001200A0000000000E9
:04000005000000C136
:00000001FF
