:020000040000FA
:10000000680220208D010000910100009301000092
:1000100000000000000000000000000000000000E0
:10002000000000000000000000000000950100003A
:100030000000000000000000970100005D090000C2
:100040009B0100009B0100009B0100009B01000040
:100050009B0100009B0100009B0100009B01000030
:10006000000000009B0100009B0100000000000058
:1000700000000000B90A00009B0100000D0A00000A
:100080009B0100009B0100009B0100007109000022
:100090009B0100009B010000000000000000000028
:1000A0009B0100009B010000000000000000000018
:1000B0009B010000000000009B0100009B0100006C
:1000C00000F002F800F052F812A030C808382418E6
:1000D0002D18AC4201D100F049F80FCCA246AB4636
:1000E0000CA730CF2D1B083F3F197C427F1E544484
:1000F0002D090426F441641EAC4201D300F036F809
:100100000126334200D0FB1A3343984754465D46DC
:10011000DFE70000340D0000540D00000000000077
:10012000103A02D378C878C1FAD8520701D330C840
:1001300030C101D504680C60704700000000000069
:100140007047000000000000002300240025002666
:10015000103A01D378C1FBD8520700D330C100D583
:100160000B6070471FB51FBD10B510BD00F0AEF994
:100170001146FFF7F7FF00F01FFE00F0C6F903B4C9
:10018000FFF7F2FF03BC00F0CDF90000064800477E
:10019000FEE7FEE7FEE7FEE7FEE7FEE70348044969
:1001A000024A044B70470000C10000006801202093
:1001B00068022020680120207047704770470000C7
:1001C00030B50346CA02400D1043164D164C0A15B1
:1001D00002D02043002A06DBAA1A002A12DDD040F2
:1001E000FF2A0BDC30BD5205520D01D14000400802
:1001F000AA1A07D4D0404042FF2A01DD002030BDBA
:100200000028FCDD4A00002B01D0012000E0002086
:10021000101801225205D042F0D8C817C0436040E0
:1002200030BD00001E040000000000801F22030CEF
:1002300002D10F22000402D0030E03D004E00020FC
:10024000014670470002083A030F01D10001121F56
:10025000830F01D18000921E002801DB4000521E56
:10026000120551184205C012411810467047C10FBF
:10027000C90700D04042012292071143D6E701216D
:100280008907D3E7F0B58B4C0F09254689B0BD43EC
:100290007BD01D092646AE43FAD00E465E4027406D
:1002A000F60F3E43254071D024012142FBD0FF24AC
:1002B000AD19A4042D1B039501252D05DB02DB0AD6
:1002C000C9022B43C90A29431E010901040F130F58
:1002D000050121431701880B820391432D098C46A8
:1002E000A90B1E438A039543B30B9A0396433F0918
:1002F000BA0B9403A74302962E467E430497B64654
:100300004E19D7190C460196544305977E43371B67
:100310007646BF1B3601B646BE0B361900967646AA
:10032000BC043719009C01D3641C00946400002FA6
:1003300001D001263443029E049F754366467E43E6
:100340000496760034196E0034190094029C019EC4
:100350001C196643751BAE46069465464519059CF7
:1003600005956C43594375460891691A0191049E9D
:1003700001465143A41B0491611A009C0791E106B8
:1003800005D061090122114302E072E06EE06109CB
:10039000089D00272C0A2D066918049D7C412A0A15
:1003A0002D066918019D6241AC0DAD026D185441D6
:1003B000079A910D920255196141029A6446584379
:1003C0005443069B059A5A43121A131B9A0E9B011B
:1003D0005B187A41010B0005C3185141220A20061F
:1003E00044195A419A4200D2491C012040028142DC
:1003F00003D315230226F64302E014230326F64313
:100400002020C51AA9401746AF40DA400A432046CB
:100410000399D8400914731819055118039A3843E1
:10042000D2075140AC4009D00122944006D30022AB
:10043000401C5141002C01D1400840001E4A93420B
:1004400012D3012203989206904207DB0520400751
:1004500009181A480143C012414004E00320400734
:100460000818C10FC907002009B0F0BD0020F1072E
:10047000FAE705180C464C4111486D42A04115D3CE
:1004800094181A465A410E48644290410ED30120F6
:100490004A004005824209D35A00824206D359409D
:1004A000C90F084AC90700201143DDE700200649AB
:1004B000DAE700000000FF07FE070000FFFFFF7FF4
:1004C0000000E0FF0000F07F0000F87F754600F0BC
:1004D00025F8AE46050069465346C008C00085466B
:1004E00018B020B5FFF75AFE60BCB64600260027BC
:1004F000C0C5C0C5C0C5C0C5C0C5C0C5C0C5C0C5D4
:10050000403D490849008D46704710B50446C04635
:10051000C0462046FFF733FE10BD0000004870477C
:100520000800202001491820ABBEFEE7260002008B
:100530007047811E091F00BFFCD2704770B50A7852
:100540000C231A400124240305196E689E43B21837
:100550006A604978072211400359934359180151A1
:1005600070BD0000B0B54A68364BC250364A80189C
:100570000A78222A58D8930001A4E3589F46C0461F
:100580001F060000290600001F06000029060000C3
:10059000290600002906000029060000290600009F
:1005A000290600002906000029060000290600008F
:1005B000290600002906000029060000290600007F
:1005C0000D060000290600000D06000029060000A7
:1005D000290600002906000029060000290600005F
:1005E000290600002906000029060000290600004F
:1005F000290600002906000029060000290600003F
:100600000D060000290600000D06000003231B074D
:1006100004689C4301235B07E318036004E00323A1
:100620001B0704689C4304600B69C360CB68074CDC
:100630001C40C36A064D1D402B19C362097A114341
:100640000160B0BD081800000418000077770200B0
:100650008888FDFF10B50122120383180C789C6076
:100660004B7883508978014A815010BD0C110000ED
:10067000B0B51122120283580124A34383500B8882
:100680008C781C438B882343094C1C408358094DAC
:100690001D40631983508B79CC791C43097A21431F
:1006A0007E231940801842689A4351184160B0BDBA
:1006B00018670000E798FDFF10B5012212038318A8
:1006C0000C789C604978815010BD000009480A49A7
:1006D000016041600121490602680A4302604268E4
:1006E0000A434260054882218163054AC263016072
:1006F000C26070479880424084000C000C804240E9
:100700008200040080B511481149FFF717FF03204C
:100710004102104802680A43026001210A0203688C
:10072000134303600022426107224262836B9343BA
:1007300083631202836B93438363826A04231343AC
:100740008362826A0A43826280BDC04600200F40F5
:10075000140E000000320F400C48002101600320FD
:10076000C1430B480246083A13680B401360016806
:10077000012291430160110203688B43036011035E
:10078000001F02680A4302607047C04608030B401E
:1007900008010B40084809494160FF210906084A41
:1007A00013688B4303218907591811600021816068
:1007B000072101607047C04610E000E0FF7C0000A8
:1007C00020ED00E010B5084C08492046FFF742FF35
:1007D00007492046FFF7C6FE06480168012211437B
:1007E00001600548026010BD00208640160E000022
:1007F0001C0E0000283086400831864010B5154C8C
:1008000015492046FFF758FF14492046FFF730FFEF
:100810000321CA03124803689343036002692C4B07
:1008200013409A1C026142690B2313433422934301
:100830004361426801231A4044689C43A218426005
:100840008902084A14680C43146001681943016066
:1008500010BDC04600801040300E0000320E000077
:10086000009110402890104010B5154C15492046B5
:10087000FFF722FF14492046FFF7FAFE0321CA03BF
:1008800012480368934303600269114B13409A1C9A
:10089000026142690B23134334229343436142684C
:1008A00001231A4044689C43A21842608902094A05
:1008B00014680C43146001681943016010BDC04600
:1008C000000010403C0E00003E0E000000111040E1
:1008D0000000FFFF2810104080B500F015F8FFF76A
:1008E000F5FEFFF739FFFFF76DFFFFF70BFFFFF78F
:1008F000BBFFFFF783FFFFF74DFFB8200149002240
:100900000A5480BD7400202070B50C480C49416029
:100910000C4A51600C4B59600C4C61600C4D696085
:100920000C4E71600C4901601160196021602960F2
:1009300031601020FFF7FDFD70BDC04600080A4081
:10094000030000B100280A400028864000280F401C
:10095000000810400088104001000026034801688C
:10096000002902D00168491E0160704770002020F4
:10097000F0B581B01F480068C0B2012838D11E4CC4
:10098000256A0420285EFFF772FC1C4A1C4E334681
:10099000FFF778FCFFF714FC21880F18278002204E
:1009A000285EFFF764FC154A3346FFF76BFCFFF740
:1009B00007FC6188081860806083A781114D2E783C
:1009C000002E07D01621625E1821615E00B212343B
:1009D000234605E00820225E0A20215E38B2231D4E
:1009E00000F07AF80120C104074A116046402E70D9
:1009F00001B0F0BD20308640300120209A999999AD
:100A00009999C93F6800202080E200E0B0B52448F1
:100A10000068C0B20B283BD1224800682249087008
:100A20000B782248017801290BD000292CD1AA2B60
:100A30002ED11F4901220A701E49AA230B70027091
:100A4000B0BD1B490C781B4A13550C78641C0C7004
:100A5000BB2B1ED10B78032B1BD3002303700B7011
:100A60001478AA2C0DD15479BB2C0AD194785578DE
:100A70002D022C19E64D6C801479D27812021219CD
:100A8000AA8003700B70B0BD00210170084801708E
:100A9000B0BD0A78072AFBD3002202700A70B0BDED
:100AA0002090104024911040600120205F01202000
:100AB0005E0120205801202004480068C0B20B28A5
:100AC00003D10348006803490870704720101040A4
:100AD0002411104061012020F0B501265E801C88A1
:100AE000002C00D0F0BD634D2970002800DC0026EA
:100AF0005E81614C2670090A604F397001B2C913DA
:100B00004840401A18815E490870010A5D4B19700F
:100B100000B2C0135C4E30705C49087089480368AD
:100B2000DB0708D00368DB0705D00368DB0702D0CA
:100B30000368DB07F3D1D2B282610268D20708D022
:100B40000268D20705D00268D20702D00268D20735
:100B5000F3D1FB2282610268D20708D00268D20773
:100B600005D00268D20702D00268D207F3D12278FA
:100B700082610268D20708D00268D20705D00268F5
:100B8000D20702D00268D207F3D13A7882610268B4
:100B9000D20708D00268D20705D00268D20702D077
:100BA0000268D207F3D12A7882610268D20708D09E
:100BB0000268D20705D00268D20702D00268D207C5
:100BC000F3D1327882610268D20708D00268D20776
:100BD00005D00268D20702D00268D207F3D10978A3
:100BE00081610168C90708D00168C90705D001689B
:100BF000C90702D00168C907F3D122490978816188
:100C00000168C90708D00168C90705D00168C9078C
:100C100002D00168C907F3D11949097881610168D7
:100C2000C90708D00168C90705D00168C90702D003
:100C30000168C907F3D1012181610168C90708D0A2
:100C40000168C90705D00168C90702D00168C90752
:100C5000F3D1002181610168C90708D00168C90783
:100C600005D00168C90702D00168C907F3D16B211B
:100C70008161F0BD010020206900202000002020BB
:100C8000020020206C0020206A0020206B00202021
:100C90001080002800D070472A480268D20708D088
:100CA0000268D20705D00268D20702D00268D207D4
:100CB000F3D1C9B281610168C90708D00168C907C9
:100CC00005D00168C90702D00168C907F3D1F32133
:100CD00081610168C90708D00168C90705D00168AA
:100CE000C90702D00168C907F3D1AB21816101684E
:100CF000C90708D00168C90705D00168C90702D033
:100D00000168C907F3D1012181610168C90708D0D1
:100D10000168C90705D00168C90702D00168C90781
:100D2000F3D1002181610168C90708D00168C907B2
:100D300005D00168C90702D00168C907F3D16B214A
:100D40008161704708111040074908600868002851
:100D500008D00868002805D00868002802D0086874
:100D60000028F3D17047C0467000202070B50F4CAA
:100D700000200F4A0F4B01210D040926760121C4E2
:100D800022606060083C2246103249C2E061221DA8
:100D9000FFF77EFF1620215E1220205E22461232CF
:100DA000FFF776FF00F022F8206270BD30012020AE
:100DB0000100200101000200FFF78EFD0120410328
:100DC000114A1160114B196007490C680F25254322
:100DD0000D60C0041060186000F00AF8FFF7C6FF4D
:100DE0006420FFF7B1FFFBE7281010400848704768
:100DF0000120C00304490860044908600448002138
:100E0000818041800170704780E200E000E100E0F5
:100E100062012020080008076300000002000000B3
:100E2000C7000000010000000000000000000000FA
:100E30000400000018000000003000000400000062
:100E40001800000000300000680E000000002020A4
:100E50000800000020010000700E000008002020A3
:100E6000600200004801000001200A0000000000AC
:04000005000000C136
:00000001FF
