:020000040000FA
:10000000580220208D0100009101000093010000A2
:1000100000000000000000000000000000000000E0
:10002000000000000000000000000000950100003A
:10003000000000000000000097010000A105000082
:100040009B0100009B0100009B0100009B01000040
:100050009B0100009B0100009B0100009B01000030
:10006000000000009B0100009B0100000000000058
:1000700000000000250600009B01000005060000AE
:100080009B0100009B0100009B010000B1050000E6
:100090009B0100009B010000000000000000000028
:1000A0009B0100009B010000000000000000000018
:1000B0009B010000000000009B0100009B0100006C
:1000C00000F002F800F052F812A030C808382418E6
:1000D0002D18AC4201D100F049F80FCCA246AB4636
:1000E0000CA730CF2D1B083F3F197C427F1E544484
:1000F0002D090426F441641EAC4201D300F036F809
:100100000126334200D0FB1A3343984754465D46DC
:10011000DFE700008C080000AC08000000000000D1
:10012000103A02D378C878C1FAD8520701D330C840
:1001300030C101D504680C60704700000000000069
:100140007047000000000000002300240025002666
:10015000103A01D378C1FBD8520700D330C100D583
:100160000B6070471FB51FBD10B510BD00F027F81C
:100170001146FFF7F7FF00F0D5FB00F03FF803B49E
:10018000FFF7F2FF03BC00F045F800000648004707
:10019000FEE7FEE7FEE7FEE7FEE7FEE70348044969
:1001A000024A044B70470000C100000058012020A3
:1001B000580220205801202070477047704775462C
:1001C00000F024F8AE46050069465346C008C0005A
:1001D000854618B020B5FFF7E1FF60BCB6460026A3
:1001E0000027C0C5C0C5C0C5C0C5C0C5C0C5C0C545
:1001F000C0C5403D490849008D46704710B50446CA
:10020000C046C0462046FFF7BAFF10BD0048704701
:100210000800202001491820ABBEFEE7260002009E
:100220007047811E091F00BFFCD27047B0B54A68F5
:10023000364BC250364A80180A78222A58D8930082
:1002400001A4E3589F46C046E7020000F102000007
:10025000E7020000F1020000F1020000F1020000DC
:10026000F1020000F1020000F1020000F1020000C2
:10027000F1020000F1020000F1020000F1020000B2
:10028000F1020000F1020000D5020000F1020000BE
:10029000D5020000F1020000F1020000F1020000AE
:1002A000F1020000F1020000F1020000F102000082
:1002B000F1020000F1020000F1020000F102000072
:1002C000F1020000F1020000D5020000F10200007E
:1002D000D502000003231B0704689C4301235B072E
:1002E000E318036004E003231B0704689C430460D5
:1002F0000B69C360CB68074C1C40C36A064D1D40A8
:100300002B19C362097A11430160B0BD08180000BF
:1003100004180000777702008888FDFF10B50122DD
:10032000120383180C789C604B7883508978014ABB
:10033000815010BD0C110000B0B51122120283587B
:100340000124A34383500B888C781C438B88234360
:10035000094C1C408358094D1D40631983508B790B
:10036000CC791C43097A21437E23194080184268C6
:100370009A4351184160B0BD18670000E798FDFF2F
:1003800010B50122120383180C789C6049788150C3
:1003900010BD0000034882218163034AC2630160EB
:1003A000C26070470C804240820004000C4800216B
:1003B00001600320C1430B480246083A13680B4012
:1003C00013600168012291430160110203688B43AD
:1003D00003601103001F02680A4302607047C046B1
:1003E00008030B4008010B40084809494160FF2100
:1003F0000906084A13688B430321890759181160BD
:1004000000218160072101607047C04610E000E0D4
:10041000FF7C000020ED00E010B5084C08492046A4
:10042000FFF77CFF07492046FFF700FF06480168F9
:100430000122114301600548026010BD0020864082
:100440007009000074090000283086400831864099
:1004500010B5154C15492046FFF792FF1449204668
:10046000FFF76AFF0321CA0312480368934303603E
:1004700002692C4B13409A1C026142690B231343FF
:10048000342293434361426801231A4044689C43E9
:10049000A21842608902084A14680C43146001687B
:1004A0001943016010BDC04600801040880900005B
:1004B0008A090000009110402890104010B5154C9A
:1004C00015492046FFF75CFF14492046FFF734FF2B
:1004D0000321CA0312480368934303600269114B66
:1004E00013409A1C026142690B2313433422934345
:1004F0004361426801231A4044689C43A218426049
:100500008902094A14680C431460016819430160A8
:1005100010BDC0460000104094090000960900007C
:10052000001110400000FFFF2810104080B500F0BF
:1005300013F8FFF72FFFFFF739FFFFF76DFFFFF706
:10054000BDFFFFF785FFFFF74FFFB82001490022ED
:100550000A5480BD74002020B0B50A480A494160A1
:100560000A4A51600A4B59600A4C61600A4D696041
:100570000A49016011601960216029601020FFF7AD
:1005800050FEB0BD00080A40030000B100280A4038
:100590000028864000081040008810400100002616
:1005A000CC480168002902D00168491E01607047EB
:1005B00070B512480068C0B201281DD1D84B188808
:1005C00098815E885E830E4C2578002D06D016201B
:1005D0001A5E1820195E30B2123305E008215A5E07
:1005E0000A21595E00B21B1D00F02CF80120C10445
:1005F000DD4A11604540257070BDC0462030864000
:100600006800202004480068C0B20B2803D10348CA
:1006100000680349087070472090104024911040F2
:100620005201202004480068C0B20B2803D10348BF
:1006300000680349087070472010104024111040D2
:1006400053012020F0B501265E801C88002C00D0CC
:10065000F0BD634D2970002800DC00265E81614CEE
:100660002670090A604F397001B2C9134840401A18
:1006700018815E490870010A5D4B197000B2C01301
:100680005C4E30705C49087089480368DB0708D00D
:100690000368DB0705D00368DB0702D00368DB07CC
:1006A000F3D1D2B282610268D20708D00268D207C1
:1006B00005D00268D20702D00268D207F3D1FB222C
:1006C00082610268D20708D00268D20705D00268AA
:1006D000D20702D00268D207F3D122788261026881
:1006E000D20708D00268D20705D00268D20702D02C
:1006F0000268D207F3D13A7882610268D20708D043
:100700000268D20705D00268D20702D00268D20779
:10071000F3D12A7882610268D20708D00268D20732
:1007200005D00268D20702D00268D207F3D132782E
:1007300082610268D20708D00268D20705D0026839
:10074000D20702D00268D207F3D10978816101682B
:10075000C90708D00168C90705D00168C90702D0D8
:100760000168C907F3D12249097881610168C90785
:1007700008D00168C90705D00168C90702D001681F
:10078000C907F3D11949097881610168C90708D0FF
:100790000168C90705D00168C90702D00168C90707
:1007A000F3D1012181610168C90708D00168C90737
:1007B00005D00168C90702D00168C907F3D100213B
:1007C00081610168C90708D00168C90705D00168BF
:1007D000C90702D00168C907F3D16B218161F0BD5F
:1007E000010020206900202000002020020020209D
:1007F0006C0020206A0020206B0020201080002840
:1008000000D070472A480268D20708D00268D20791
:1008100005D00268D20702D00268D207F3D1C9B26C
:1008200081610168C90708D00168C90705D001685E
:10083000C90702D00168C907F3D1F32181610168BA
:10084000C90708D00168C90705D00168C90702D0E7
:100850000168C907F3D1AB2181610168C90708D0DC
:100860000168C90705D00168C90702D00168C90736
:10087000F3D1012181610168C90708D00168C90766
:1008800005D00168C90702D00168C907F3D100216A
:1008900081610168C90708D00168C90705D00168EE
:1008A000C90702D00168C907F3D16B218161704784
:1008B00008111040074908600868002808D0086837
:1008C000002805D00868002802D008680028F3D165
:1008D0007047C0467000202010B5114C0020608287
:1008E0002082E081A08101212181A0806080208080
:1008F0000222E282E180E083A0836083A182092258
:10090000520162812283221DFFF778FF1620215EAB
:100910001220205E12342246FFF770FF10BDC04641
:1009200030012020FFF702FE012041030E4A116032
:100930000E4B196007490C680F2525430D60C00454
:100940001060186000F008F8FFF7C6FF6420FFF79A
:10095000B1FFFBE7281010400120C00302490860E6
:10096000024908607047C04680E200E000E100E014
:100970000807630002000000C7000000010000003B
:10098000000000000000000004000000180000004B
:1009900000300000040000001800000000300000DB
:1009A000C009000000002020080000002001000015
:1009B000C809000008002020500200004801000083
:0809C00001200A000000000004
:04000005000000C136
:00000001FF
