:020000040000FA
:10000000380320208D0100009101000093010000C1
:1000100000000000000000000000000000000000E0
:10002000000000000000000000000000950100003A
:10003000000000000000000097010000AD0C00006F
:100040009B0100009B0100009B0100009B01000040
:100050009B0100009B0100009B0100009B01000030
:10006000000000009B0100009B0100000000000058
:1000700000000000450E00009B010000950D0000EF
:100080009B0100009B0100009B010000C10C0000CF
:100090009B0100009B010000000000000000000028
:1000A0009B0100009B010000000000000000000018
:1000B0009B010000000000009B0100009B0100006C
:1000C00000F002F800F052F812A030C808382418E6
:1000D0002D18AC4201D100F049F80FCCA246AB4636
:1000E0000CA730CF2D1B083F3F197C427F1E544484
:1000F0002D090426F441641EAC4201D300F036F809
:100100000126334200D0FB1A3343984754465D46DC
:10011000DFE70000A4110000C4110000000000008F
:10012000103A02D378C878C1FAD8520701D330C840
:1001300030C101D504680C60704700000000000069
:100140007047000000000000002300240025002666
:10015000103A01D378C1FBD8520700D330C100D583
:100160000B6070471FB51FBD10B510BD00F0AEF994
:100170001146FFF7F7FF00F0E5FF00F0C6F903B402
:10018000FFF7F2FF03BC00F0CDF90000064800477E
:10019000FEE7FEE7FEE7FEE7FEE7FEE70348044969
:1001A000024A044B70470000C100000038022020C2
:1001B0003803202038022020704770477047000025
:1001C00030B50346CA02400D1043164D164C0A15B1
:1001D00002D02043002A06DBAA1A002A12DDD040F2
:1001E000FF2A0BDC30BD5205520D01D14000400802
:1001F000AA1A07D4D0404042FF2A01DD002030BDBA
:100200000028FCDD4A00002B01D0012000E0002086
:10021000101801225205D042F0D8C817C0436040E0
:1002200030BD00001E040000000000801F22030CEF
:1002300002D10F22000402D0030E03D004E00020FC
:10024000014670470002083A030F01D10001121F56
:10025000830F01D18000921E002801DB4000521E56
:10026000120551184205C012411810467047C10FBF
:10027000C90700D04042012292071143D6E701216D
:100280008907D3E7F0B58B4C0F09254689B0BD43EC
:100290007BD01D092646AE43FAD00E465E4027406D
:1002A000F60F3E43254071D024012142FBD0FF24AC
:1002B000AD19A4042D1B039501252D05DB02DB0AD6
:1002C000C9022B43C90A29431E010901040F130F58
:1002D000050121431701880B820391432D098C46A8
:1002E000A90B1E438A039543B30B9A0396433F0918
:1002F000BA0B9403A74302962E467E430497B64654
:100300004E19D7190C460196544305977E43371B67
:100310007646BF1B3601B646BE0B361900967646AA
:10032000BC043719009C01D3641C00946400002FA6
:1003300001D001263443029E049F754366467E43E6
:100340000496760034196E0034190094029C019EC4
:100350001C196643751BAE46069465464519059CF7
:1003600005956C43594375460891691A0191049E9D
:1003700001465143A41B0491611A009C0791E106B8
:1003800005D061090122114302E072E06EE06109CB
:10039000089D00272C0A2D066918049D7C412A0A15
:1003A0002D066918019D6241AC0DAD026D185441D6
:1003B000079A910D920255196141029A6446584379
:1003C0005443069B059A5A43121A131B9A0E9B011B
:1003D0005B187A41010B0005C3185141220A20061F
:1003E00044195A419A4200D2491C012040028142DC
:1003F00003D315230226F64302E014230326F64313
:100400002020C51AA9401746AF40DA400A432046CB
:100410000399D8400914731819055118039A3843E1
:10042000D2075140AC4009D00122944006D30022AB
:10043000401C5141002C01D1400840001E4A93420B
:1004400012D3012203989206904207DB0520400751
:1004500009181A480143C012414004E00320400734
:100460000818C10FC907002009B0F0BD0020F1072E
:10047000FAE705180C464C4111486D42A04115D3CE
:1004800094181A465A410E48644290410ED30120F6
:100490004A004005824209D35A00824206D359409D
:1004A000C90F084AC90700201143DDE700200649AB
:1004B000DAE700000000FF07FE070000FFFFFF7FF4
:1004C0000000E0FF0000F07F0000F87F754600F0BC
:1004D00025F8AE46050069465346C008C00085466B
:1004E00018B020B5FFF75AFE60BCB64600260027BC
:1004F000C0C5C0C5C0C5C0C5C0C5C0C5C0C5C0C5D4
:10050000403D490849008D46704710B50446C04635
:10051000C0462046FFF733FE10BD0000004870477C
:100520000800202001491820ABBEFEE7260002008B
:100530007047811E091F00BFFCD2704770B50A7852
:100540000C231A400124240305196E689E43B21837
:100550006A604978072211400359934359180151A1
:1005600070BD0000F0B57A4A82183B4BC318087979
:100570004E793A4D784C002E23D0202804D0052601
:10058000F601002803D003E0354E002800D188266C
:10059000576F2F4037435767976F2F403743976701
:1005A000566B26405663966B26409663002656652A
:1005B00096658F26F6435F6837405F609F683740D7
:1005C0009F608E79096820280BD0002819D1491E18
:1005D0005160D76E2F4088210F43D766174670377A
:1005E00019E0491E5160D16E29401D4F3943D16633
:1005F000116F29403943116701214907194D1746E9
:1006000009E049085160D76E2F400521C9010F4309
:10061000D766174670373C682C400C433C60D16A63
:100620004D4C2140D162116B214011630021D164F6
:1006300011658F21C943D46F0C40D4671C680C40EE
:100640001C600643BD2030401168074B0B40C018AA
:10065000801C1060F0BDC0468418000024493E0094
:1006600001040000FFFFFFCF4000FFCFB0B54A6894
:10067000364BC250364A80180A78222A58D893003E
:1006800001A4E3589F46C046270700003107000039
:100690002707000031070000310700003107000084
:1006A000310700003107000031070000310700006A
:1006B000310700003107000031070000310700005A
:1006C0003107000031070000150700003107000066
:1006D0001507000031070000310700003107000056
:1006E000310700003107000031070000310700002A
:1006F000310700003107000031070000310700001A
:100700003107000031070000150700003107000025
:100710001507000003231B0704689C4301235B07A4
:10072000E318036004E003231B0704689C43046090
:100730000B69C360CB68074C1C40C36A064D1D4063
:100740002B19C362097A11430160B0BD081800007B
:1007500004180000777702008888FDFF10B5072392
:100760009B04194092008018024A84589C436118E7
:10077000815010BD3018000010B5029CA400001973
:1007800011431943014A815010BDC0465018000062
:1007900092008018014A81507047C046101800002E
:1007A00010B50122120383180C789C604B7883509B
:1007B0008978014A815010BD0C110000B0B511229A
:1007C000120283580124A34383500B888C781C4366
:1007D0008B882343094C1C408358094D1D406319E5
:1007E00083508B79CC791C43097A21437E231940AD
:1007F000801842689A4351184160B0BD18670000E4
:10080000E798FDFF10B50122120383180C789C6055
:100810004978815010BD0000B0B514488421C167EB
:1008200001221103124B196012490C460C3C85251C
:10083000256054031C60872303650F4C4025256009
:100840004365802323600D4B0B604B6052060B68A1
:1008500013430B604B6813434B6082218163084A4A
:10086000C2630160C2608166C266B0BD0C80424056
:10087000D0120A4098804240D0320A4084000C00D6
:100880008200040080B511481149FFF757FE03208C
:100890004102104802680A43026001210A0203680B
:1008A000134303600022426107224262836B934339
:1008B00083631202836B93438363826A042313432B
:1008C0008362826A0A43826280BDC04600200F4074
:1008D0006012000000320F40F0B581B01C4C1D4981
:1008E0002046FFF75DFF1C492046FFF73BFE1B48F3
:1008F00001683E4A0A4002600025009520462946CC
:100900002A462B46FFF738FF204629462A46FFF79E
:1009100025FF6426204631462A46FFF739FF012786
:100920000097204629462A462B46FFF725FF2046FA
:1009300029463A46FFF712FF204631463A46FFF76E
:1009400027FF074887600321016001B0F0BDC04662
:10095000004008406212000068120000045808407D
:1009600000510840F0B581B01C4C1D492046FFF7EE
:1009700017FF1C492046FFF7F5FD1B4801681B4A7D
:100980000A40026000250095204629462A462B464B
:10099000FFF7F2FE204629462A46FFF7DFFE6426CF
:1009A000204631462A46FFF7F3FE012700972046EE
:1009B00029462A462B46FFF7DFFE204629463A46BF
:1009C000FFF7CCFE204631463A46FFF7E1FE0848E5
:1009D00087600321016001B0F0BDC0460080864001
:1009E0007012000074120000049886407F00FFFF20
:1009F000009186400C48002101600320C1430B4850
:100A00000246083A13680B401360016801229143C3
:100A10000160110203688B4303601103001F026829
:100A20000A4302607047C04608030B4008010B40B0
:100A3000084809494160FF210906084A13688B43A9
:100A40000321890759181160002181600721016085
:100A50007047C04610E000E0FF7C000020ED00E0A1
:100A600010B5084C08492046FFF79AFE0749204672
:100A7000FFF7FCFD064801680122114301600548AB
:100A8000026010BD002086407C1200008012000031
:100A9000283086400831864010B5154C154920464F
:100AA000FFF7B0FE14492046FFF788FE0321CA0372
:100AB00012480368934303600269474B13409A1C32
:100AC000026142690B23134334229343436142681A
:100AD00001231A4044689C43A21842608902084AD4
:100AE00014680C43146001681943016010BDC046CE
:100AF00000801040941200009612000000911040F7
:100B00002890104010B5154C15492046FFF77AFE85
:100B100014492046FFF752FE0321CA031248036816
:100B20009343036002692C4B13409A1C0261426993
:100B30000B231343342293434361426801231A4039
:100B400044689C43A21842608902084A14680C4316
:100B5000146001681943016010BDC04600001040D8
:100B6000A0120000A2120000001110402810104036
:100B700010B5154C15492046FFF744FE1449204690
:100B8000FFF71CFE0321CA03124803689343036066
:100B90000269114B13409A1C026142690B231343F3
:100BA000342293434361426801231A4044689C43C2
:100BB000A21842608902094A14680C431460016853
:100BC0001943016010BDC04600005040AC12000047
:100BD000AE120000001150400000FFFF28105040EE
:100BE00080B500F025F8FFF717FEFFF703FFFFF7CA
:100BF00073FEFFF7B7FEFFF733FFFFF743FEFFF784
:100C000081FFFFF749FFFFF7B3FFFFF711FFB820A0
:100C1000044900220A549C2003490A542C20034909
:100C20000A5480BD1401202074002020D00120200F
:100C3000F0B581B01248134A42601348426013482D
:100C40004260134C6260134D6A60134E7260134F22
:100C50007A6013494A6013484260134A084B1A608D
:100C6000094B1A60094B1A6022602A6032603A60B0
:100C70000A6002601020FFF75CFC01B0F0BDC046C6
:100C800000080A40030000B100280A40004808405C
:100C9000008886400028864000280F400008104049
:100CA00000881040000850400100002603480168F9
:100CB000002902D00168491E0160704770002020A1
:100CC000F0B581B02C480068C0B2012851D12B4C3E
:100CD000256A0220285EFFF7CAFA294A294BFFF746
:100CE000D1FAFFF76DFA6188081807B226488742E3
:100CF00000DC0746E1204601B74200DB374667804B
:100D00000420285EFFF7B3FA1D4A1E4BFFF7BAFA1C
:100D1000FFF756FA2188081800B21B49884200DC08
:100D20000846B04200DB30462080010F401800B278
:100D30000011A081B9B2C90B791809B24B106383B5
:100D4000124D2E78002E07D01620225E1820215E2C
:100D500012341846234604E00821625E0A21615ECF
:100D6000231D00F07FF80120C104094A11604640AC
:100D70002E7001B0F0BDC046203086400002202019
:100D80009A9999999999B93FE0E3FFFF6A00202069
:100D900080E200E0B0B524480068C0B20B283BD127
:100DA00022480068224908700B78224801780129FE
:100DB0000BD000292CD1AA2B2ED11F4901220A7059
:100DC0001E49AA230B700270B0BD1B490C781B4A48
:100DD00013550C78641C0C70BB2B1ED10B78032BA5
:100DE0001BD3002303700B701478AA2C0DD15479F7
:100DF000BB2C0AD1947855782D022C19104D6C809B
:100E00001479D27812021219AA8003700B70B0BD47
:100E10000021017008480170B0BD0A78072AFBD391
:100E2000002202700A70B0BD209010402491104042
:100E3000300220202F0220202E02202028022020F5
:100E40003202202004480068C0B20B2803D10348B6
:100E500000680349087070472010104024111040AA
:100E600031022020F0B501265E801C88002C00D0C5
:100E7000F0BD634D2970002800DC00265E81614CC6
:100E80002670090A604F397001B2C9134840401AF0
:100E900018815E490870010A5D4B197000B2C013D9
:100EA0005C4E30705C49087089480368DB0708D0E5
:100EB0000368DB0705D00368DB0702D00368DB07A4
:100EC000F3D1D2B282610268D20708D00268D20799
:100ED00005D00268D20702D00268D207F3D1FB2204
:100EE00082610268D20708D00268D20705D0026882
:100EF000D20702D00268D207F3D122788261026859
:100F0000D20708D00268D20705D00268D20702D003
:100F10000268D207F3D13A7882610268D20708D01A
:100F20000268D20705D00268D20702D00268D20751
:100F3000F3D12A7882610268D20708D00268D2070A
:100F400005D00268D20702D00268D207F3D1327806
:100F500082610268D20708D00268D20705D0026811
:100F6000D20702D00268D207F3D109788161016803
:100F7000C90708D00168C90705D00168C90702D0B0
:100F80000168C907F3D12249097881610168C9075D
:100F900008D00168C90705D00168C90702D00168F7
:100FA000C907F3D11949097881610168C90708D0D7
:100FB0000168C90705D00168C90702D00168C907DF
:100FC000F3D1012181610168C90708D00168C9070F
:100FD00005D00168C90702D00168C907F3D1002113
:100FE00081610168C90708D00168C90705D0016897
:100FF000C90702D00168C907F3D16B218161F0BD37
:10100000010020206B002020000020200200202072
:101010006E0020206C0020206D0020201080002811
:1010200000D070472A480268D20708D00268D20769
:1010300005D00268D20702D00268D207F3D1C9B244
:1010400081610168C90708D00168C90705D0016836
:10105000C90702D00168C907F3D1F3218161016892
:10106000C90708D00168C90705D00168C90702D0BF
:101070000168C907F3D1AB2181610168C90708D0B4
:101080000168C90705D00168C90702D00168C9070E
:10109000F3D1012181610168C90708D00168C9073E
:1010A00005D00168C90702D00168C907F3D1002142
:1010B00081610168C90708D00168C90705D00168C6
:1010C000C90702D00168C907F3D16B21816170475C
:1010D00008111040074908600868002808D008680F
:1010E000002805D00868002802D008680028F3D13D
:1010F0007047C0467000202070B50F4C00200F4A8A
:101100000F4B01210D040926760121C42260606085
:10111000083C2246103249C2E061221DFFF77EFFE3
:101120001620215E1220205E22461232FFF776FF43
:1011300000F082F8206270BD000220200100200132
:1011400001000200FFF74CFD01204103414A1160FC
:10115000414B196009490C680F2525430D60C004F7
:101160001060186000F06AF8FFF7C6FF00F008F89A
:101170000A20FFF7AFFF00F009F8F9E72810104048
:101180002A480021417001707047C046F0B581B017
:101190000025264F7A576321C843824200DC02466D
:1011A0006423642A114600DB1946397001243E5736
:1011B000864200DC0646642E00DB1E467E701C4F15
:1011C000012A05DB00223846FFF7E2FA254606E051
:1011D0000A0623D0494201223846FFF7D9FA0026F1
:1011E000384631462A46FFF7D3FA10480157114CCA
:1011F000012905DB00222046FFF7CAFA012606E096
:1012000000290FD0494201222046FFF7C1FA0021F0
:1012100020463246FFF7BCFA01B0F0BD0021384647
:101220000A46D1E7002120460A46E5E7680020206B
:101230000040084000808640084870470120C003F5
:101240000449086004490860044800218180418005
:101250000170704780E200E000E100E032022020EF
:1012600008000807030000006400000000010100FE
:101270000807030064000000000101000807630084
:1012800002000000C7000000010000000000000094
:101290000000000004000000180000000030000002
:1012A00004000000180000000030000004000000EE
:1012B0001800000000300000D812000000002020BC
:1012C0000800000020010000E012000008002020BB
:1012D000300300004801000001200A000000000067
:04000005000000C136
:00000001FF
