:020000040000FA
:1000000078102020890200008D0200008F0200007D
:1000100000000000000000000000000000000000E0
:10002000000000000000000000000000910200003D
:1000300000000000000000009302000045450000A1
:1000400097020000852C00000D460000754C000052
:10005000970200009702000097020000970200003C
:10006000000000009702000097020000000000005E
:10007000000000003D4C0000970200000D4C000005
:1000800097020000970200009702000061450000FF
:10009000970200009702000000000000000000002E
:1000A000970200009702000000000000000000001E
:1000B0009702000000000000970200009702000075
:1000C00000F002F800F0D1F812A030C80838241867
:1000D0002D18AC4201D100F0C8F80FCCA246AB46B7
:1000E0000CA730CF2D1B083F3F197C427F1E544484
:1000F0002D090426F441641EAC4201D300F0B5F88A
:100100000126334200D0FB1A3343984754465D46DC
:10011000DFE70000EC7500000C7600000000000036
:10012000103A02D378C878C1FAD8520701D330C840
:1001300030C101D504680C60704700000000000069
:100140007047000000000000002300240025002666
:10015000103A01D378C1FBD8520700D330C100D583
:100160000B60704710B56E2902D100F015FE10BD6E
:10017000702902D100F04FFF10BD662902D105F0B1
:10018000F7FD10BD652902D105F0F2FD10BD67290C
:1001900002D105F0EDFD10BD612902D105F0F0FDA1
:1001A00010BD03681B0A01D380231943692902D1BA
:1001B00000F0BCFD10BD642902D100F0B7FD10BDF8
:1001C000752902D100F0B2FD10BD6F2902D100F0F7
:1001D000CDFE10BD782902D100F00AFF10BDE9293B
:1001E00002D100F069FE10BDE42902D100F064FEE6
:1001F00010BDF52902D100F05FFE10BDEF2902D13C
:1002000000F0C0FE10BDF82902D100F0FFFE10BDC5
:100210000368DB0901D380231943632902D101F06C
:10022000E2FB10BD732902D101F0E5FB10BDE3290B
:1002300002D101F0EFFB10BDF32902D101F0F2FB76
:1002400010BD002010BD1FB501F0D0FC040000203F
:10025000002105F0B9FB401C60600020002105F082
:100260009DFBE0601FBD10B510BD01F097FC11466D
:10027000FFF7E9FF05F070F802F02CF803B4FFF780
:10028000F2FF03BC02F0E4F806480047FEE7FEE791
:10029000FEE7FEE7FEE7FEE703480449044A054B94
:1002A00070470000C100000078082020781020204E
:1002B000780C2020780C20201CB50C46064B7B4483
:1002C00069460090204600F080FD04460020694603
:1002D00000F08EFD20461CBD2F0B000000220309FC
:1002E0008B4273D3030A8B4258D3030B8B423CD30C
:1002F000030C8B4221D312E003460B437FD4002230
:1003000043088B4274D303098B425FD3030A8B42A9
:1003100044D3030B8B4228D3030C8B420DD3090229
:10032000FF2212BA030C8B4202D31212090265D0CB
:10033000030B8B4219D300E0090AC30B8B4201D394
:10034000CB03C01A5241830B8B4201D38B03C01ADB
:100350005241430B8B4201D34B03C01A5241030B52
:100360008B4201D30B03C01A5241C30A8B4201D303
:10037000CB02C01A5241830A8B4201D38B02C01AAE
:100380005241430A8B4201D34B02C01A5241030A25
:100390008B4201D30B02C01A5241CDD2C3098B420A
:1003A00001D3CB01C01A524183098B4201D38B0187
:1003B000C01A524143098B4201D34B01C01A52412A
:1003C00003098B4201D30B01C01A5241C3088B426F
:1003D00001D3CB00C01A524183088B4201D38B005A
:1003E000C01A524143088B4201D34B00C01A5241FC
:1003F000411A00D201465241104670475DE0CA0FD3
:1004000000D04942031000D3404253409C46002292
:1004100003098B422DD3030A8B4212D38901FC229C
:1004200012BA030A8B420CD3890192118B4208D372
:10043000890192118B4204D389013AD0921100E0D4
:100440008909C3098B4201D3CB01C01A52418309E8
:100450008B4201D38B01C01A524143098B4201D315
:100460004B01C01A524103098B4201D30B01C01A40
:100470005241C3088B4201D3CB00C01A52418308BA
:100480008B4201D38B00C01A5241D9D243088B4210
:1004900001D34B00C01A5241411A00D201465241C9
:1004A000104663465B1001D34042002B00D5494201
:1004B000704763465B1000D3404201B504490028F1
:1004C00002DC491C084000E00846C046C04602BDA8
:1004D000FFFFFF7F70477047704700000246C80F5C
:1004E000C00781434B0030B54B405B009B0D20D0D3
:1004F0001923DB06C91801231B05994220DB0324BD
:10050000A40704251346AB400BD3002B04D1EB0604
:1005100013409B00E34204D4012464070023121912
:100520005941FF231B0599420BD2C9000143500FCB
:1005300009E0CB0204D501430803024305D0054876
:1005400030BDFF21C905084330BD08460721090514
:10055000884330BD0000C07FF0B50C46871A9C412F
:100560000D46861A9D4103D2C01BA141D219634199
:100570000D0D1F0DC94EEC1BAE435CD07F057F0DEA
:100580000026002F51D02D05AC46A943DD020123E2
:10059000ED0A1B051D4320231B1B24D41746E740EF
:1005A000381871412F46E740CC199D402818314634
:1005B00061410C0D27D161449A4013D50023401CA2
:1005C000594152000ED14008400001224B00520513
:1005D000D34207D305204007C14201D5B04900E00E
:1005E000B0493046F0BD6B00002A00D001229A18B5
:1005F0001F23203C1B1B01D5002302E0E5402818E7
:1006000071410C0DD7D0012424050919C407CD0769
:1006100040084908E40F28436144002CD5D0002449
:10062000401C61419A40D0D1CDE76A05520DD9D125
:10063000C90FC907D5E79C4D4E00002801D0012401
:1006400000E0002434195F00002A01D0012600E0F8
:100650000026BE19954FAC420CD8AE420AD8B4421F
:1006600006D001256D05EC42BCD010461946F0BD00
:100670009942FCD000203946F0BDF0B51FB40C46BD
:100680000F46811A9F412546861A9D4106D20125B3
:10069000ED076F40401ABC4152187B41210D1E0DE1
:1006A0008D1BAC467D4D8D437ED075056D0D7CD088
:1006B0000D05AE46AC431B031B0B794D52429D41C9
:1006C000202366469B1B14D31746F7403818002694
:1006D0000090744160462F460741E41900989D4000
:1006E0002818664116D4714671189A4025D5012301
:1006F00020E093182A466A415200002B00D0521C79
:100700001E23203E9B1B002B61DD3541EE17281870
:100710006641E8D5001876415B1C9A4000D3401C26
:100720004B05F3181524E34010D3002B52D071462B
:100730007118D30FC01802D3491C05B0F0BD0123B6
:10074000DB079A42F9D140084000F6E70122520542
:10075000B21801D1002853D00123CC0ADB029943FF
:10076000891E002A08D1020C03D0020C00041039A3
:1007700002E00246002020390023550B05D1120269
:100780000823550B01D152010D23550C01D1120143
:100790001B1DD50C01D192009B1C150D01D15200DF
:1007A0005B1C2025EE1A01E02CE022E00546F54016
:1007B00015439840CA1AE10769181305C918002A99
:1007C000BBDA032040070818C10FC9070FE07146C4
:1007D0006118B2E7F10740080843711071444A00FC
:1007E0000CD001235B059A42A7D2C90FC90700208C
:1007F000A3E74905490D26D1002001E00028F4D1E6
:1008000000219AE7284D6600002801D0012100E070
:10081000002171185F00002A01D0012600E00026A7
:10082000BE19224FA94210D8AE420ED8B14208D00C
:1008300001256D05E94206D01946A802414010463F
:100840007BE79C4201D0214677E70020394674E7D8
:1008500010B50C465C4005D50124E4076340FFF762
:100860000CFF10BDFFF778FE10BD30B40C465C40A5
:1008700004D50124E407634030BC6DE630BCFCE6DF
:1008800070B50124E40761400D465D4002D4FFF7D6
:1008900063FE70BD6340FFF7F0FE70BDFF07000010
:1008A0000000F0FF0000F07F0000E0FF0000F87F94
:1008B00030B50346CA02400D1043164D164C0A15BA
:1008C00002D02043002A06DBAA1A002A12DDD040FB
:1008D000FF2A0BDC30BD5205520D01D1400040080B
:1008E000AA1A07D4D0404042FF2A01DD002030BDC3
:1008F0000028FCDD4A00002B01D0012000E0002090
:10090000101801225205D042F0D8C817C0436040E9
:1009100030BD00001E040000000000801F22030CF8
:1009200002D10F22000402D0030E03D004E0002005
:10093000014670470002083A030F01D10001121F5F
:10094000830F01D18000921E002801DB4000521E5F
:10095000120551184205C012411810467047C10FC8
:10096000C90700D04042012292071143D6E7012176
:100970008907D3E7F0B58B4C0F09254689B0BD43F5
:100980007BD01D092646AE43FAD00E465E40274076
:10099000F60F3E43254071D024012142FBD0FF24B5
:1009A000AD19A4042D1B039501252D05DB02DB0ADF
:1009B000C9022B43C90A29431E010901040F130F61
:1009C000050121431701880B820391432D098C46B1
:1009D000A90B1E438A039543B30B9A0396433F0921
:1009E000BA0B9403A74302962E467E430497B6465D
:1009F0004E19D7190C460196544305977E43371B71
:100A00007646BF1B3601B646BE0B361900967646B3
:100A1000BC043719009C01D3641C00946400002FAF
:100A200001D001263443029E049F754366467E43EF
:100A30000496760034196E0034190094029C019ECD
:100A40001C196643751BAE46069465464519059C00
:100A500005956C43594375460891691A0191049EA6
:100A600001465143A41B0491611A009C0791E106C1
:100A700005D061090122114302E072E06EE06109D4
:100A8000089D00272C0A2D066918049D7C412A0A1E
:100A90002D066918019D6241AC0DAD026D185441DF
:100AA000079A910D920255196141029A6446584382
:100AB0005443069B059A5A43121A131B9A0E9B0124
:100AC0005B187A41010B0005C3185141220A200628
:100AD00044195A419A4200D2491C012040028142E5
:100AE00003D315230226F64302E014230326F6431C
:100AF0002020C51AA9401746AF40DA400A432046D5
:100B00000399D8400914731819055118039A3843EA
:100B1000D2075140AC4009D00122944006D30022B4
:100B2000401C5141002C01D1400840001E4A934214
:100B300012D3012203989206904207DB052040075A
:100B400009181A480143C012414004E0032040073D
:100B50000818C10FC907002009B0F0BD0020F10737
:100B6000FAE705180C464C4111486D42A04115D3D7
:100B700094181A465A410E48644290410ED30120FF
:100B80004A004005824209D35A00824206D35940A6
:100B9000C90F084AC90700201143DDE700200649B4
:100BA000DAE700000000FF07FE070000FFFFFF7FFD
:100BB0000000E0FF0000F07F0000F87F10B5014664
:100BC0009E240002CA15A307002A02D01843002A57
:100BD00004DBA21A002A0CDDD04010BD1206120E52
:100BE00001D140004008A21A03D4D040404200285E
:100BF000F3DDFF2248001206904201D9002010BD0B
:100C0000C817C043584010BD1F22030C02D10F2249
:100C100000041CD0030E01D10002083A030F01D1D9
:100C20000001121F830F01D18000921E002801DBFA
:100C30004000521ED205511802125118192290403C
:100C400004D3491C002801D14908490008467047CF
:100C5000C10FC90700D04042012292071143D3E7D8
:100C600001218907D0E770B5044685690068C1068F
:100C700001D5302600E02026C00707D070BD62688D
:100C80003046A1689047206A401C20626D1EF6D550
:100C900070BD70B5044685690078C00707D170BD86
:100CA0006268A16820209047206A401C20626D1E67
:100CB000F6D570BD09684A0501D540B27047C9052F
:100CC000FCD500B2704709684A0501D5C0B270472B
:100CD000C905FCD580B2704770B50C460546012A9F
:100CE00005D02878800600D5EA69002302E00123B8
:100CF00005E05B1C934202D2E05C0028F9D1A869B0
:100D0000E618C01AA861286AC01828622846FFF7AA
:100D1000AAFF04E06A682078A968641C9047B4427E
:100D2000F8D32846FFF7B5FF70BD0000F7B50025E2
:100D300075291068009914A611D0FFF7BBFF002891
:100D400002DA404211A608E0009909688A0701D535
:100D50000FA602E0490704D50EA6012501E0FFF722
:100D6000B2FF009F0024243704E000F080FE303101
:100D70003955641C0028F8D12B463246214600988C
:100D800000F057FAFEBD0000000000002D0000003A
:100D90002B0000002000000011680268006A530563
:100DA00001D5087009E0D30501D5088005E01306D8
:100DB00002D5C21705C100E008600120704700009D
:100DC00001694A1C02610878704700B58FB0029132
:100DD000002105910549019379440391114604903E
:100DE000684600F025F90FB000BD0000E5FFFFFFE9
:100DF0000A681070521C0A6070470000F7B504467C
:100E0000154686B02B487844002703C83E4600901C
:100E1000019111E007986A467100415A02A800F05A
:100E200005FE411C07D02178890603D5E2693918EF
:100E300091420ED83F18761C2078800602D5E069D2
:100E4000B84206DDAE42E5DB07987100405A002843
:100E5000E0D1A069C01BA0612046FFF704FF154840
:100E600078445A3803C800900020019116E04100F0
:100E70006A460798415A02A800F0D8FD0590401C28
:100E80000AD0002505E0626802A8A168405D90478D
:100E90006D1C05988542F6D30498401CB04204901E
:100EA000E5DB206AC01920622046FFF7F2FE09B098
:100EB000F0BD0000864F0000F7B5D21D0025D20816
:100EC00015A6D200F52905CA11D0002A05DA00219D
:100ED0004042914111A60A4608E0009909688B0733
:100EE00001D50FA602E0490701D50EA6012511463E
:100EF000009F0024243704E000F05EF930323A55B8
:100F0000641C02460A43F7D12B463246214600981C
:100F100000F08FF9FEBD0000000000002D00000071
:100F20002B0000002000000070B50446002124348E
:100F300008E05507D2086D0F303565545D072A4328
:100F4000DB08491C15461D43F3D10468002310A299
:100F5000250708D520252C400C4304D0C469012363
:100F60000CA2641EC46100F064F970BD10B50446A3
:100F700021461068FFF7A7FE002302462046FFF730
:100F8000D3FF10BDD21DD108C9000CC9CCE70000A9
:100F90000000000030000000F8B50F460188090588
:100FA00002D5224C7C4402E0204C7C440E340546A1
:100FB0000021243508E016071209360FA65D6E548D
:100FC0001E0732431B09491C16461E43F3D1224615
:100FD00004780023240705D5702F06D0002901D0FE
:100FE0000223113200F025F9F8BD01231032F9E790
:100FF00070B504460D4621461068FFF764FE0023D5
:10100000024629462046FFF7C7FF70BDD21DD30810
:10101000DB000CCBC0E730B4036820241268234304
:1010200003600823C36130BC0023B5E7F04D000026
:10103000F3B50446002081B020622046E16888476D
:10104000002872D0252802D06268A168ABE0594F11
:1010500000267F442046E16888472028054608DBB3
:10106000312D06D2781920380078002801D00643A7
:10107000F0E7B00701D5042086430020E061074671
:10108000A0612A2D0AD0284604F081FC002827D030
:10109000B8000019303D0090856119E00298BA004F
:1010A000121902C8916102902046E1688847012F19
:1010B000054617D1E06900281FDA202086431CE08E
:1010C00000980A21806948430099401930388861A6
:1010D0002046E1688847054604F059FC0028EFD116
:1010E000012F0AD02E2D08D12046E16888470546F9
:1010F000202006437F1C022FC3DBA069002803DAEF
:101100004042A06101200643F00701D01020864331
:101110006C2D0BD0682D09D04C2D3CD06A2D38D0C9
:10112000742D38D07A2D36D016E040E0E1682F4695
:1011300020468847B842054609D16C2F29D00120A6
:101140008002E168064320468847054604E06C2F8C
:101150001DD0FF2001300643002D28D028464138FD
:10116000192803D80120C0020643203520462660F6
:101170002946029A1646FEF7F5FF002810D00128EE
:101180000BD0F61DF008C0000830029055E7402053
:10119000E1E78020D5E70020D3E7361D02964CE733
:1011A00062682846A1689047206A401C44E7206A8C
:1011B000FEBD00006A4D00000B4670B5024689076F
:1011C0008008084319469D08141AA94125090807F3
:1011D000054308092C194841250A01060D43010A57
:1011E0002C194141200C0D0428430D0C00194D41D0
:1011F000002140194D41C00869070843E908840FE0
:101200008D002543840024184D4124196D41121B83
:10121000AB4107E00925ED432C115219634100242D
:10122000401C61411C460A250026551BB441F1D2E1
:1012300070BDFFB504460D4681B024300090216892
:10124000880604D51022E0699143216000E0012066
:10125000A84201DD471B00E000270498A1697A1924
:101260001018081AA0612078C00602D42046FFF7A3
:10127000FAFC002608E003986268A168805D904748
:10128000206A401C761C206204988642F3DB20789A
:10129000C0060AD52046FFF7E6FC06E06268A168B2
:1012A00030209047206A401C206238467F1E00286C
:1012B000F4DC07E000986268A168405D9047206A0E
:1012C000401C206228466D1E0028F3DC2046FFF7F4
:1012D000E0FC2078000602D5022005B0F0BD012018
:1012E000FBE70000FFB50C461E468FB003CA08900E
:1012F00009914F007D0D00D16D1E00210846002090
:10130000C0460321099A89050840002A03DA8200B1
:10131000801840080840800D01280A9002DD002056
:10132000C0430A90089807430DD0F048F0492818A8
:1013300048430714189800281DD07542291E1DDD4A
:101340000A9842421BE01898012802D00020302160
:1013500004E00020F24305E02154401CB042FBDBD6
:1013600030460022189B002121540F998B600A609F
:10137000486013B0F0BDBD1B6D1CDFE70A9A002961
:1013800000DA69420BA800F079FC0BAB07CB03AB8A
:1013900007C30899099800F0DDFC6B4607C30146B6
:1013A000D4480918002D00910BDDD24903980A9A00
:1013B00049424018002303A90390684600F03AFF11
:1013C00008E003990A9A0023081803A903906846C5
:1013D00000F0DAFE6B4607C30004000C03D00020C7
:1013E000C043410800E01046189A002A03D00022AA
:1013F000009215461EE0751E05D4FFF7DDFE303263
:1014000062556D1EF9D501220843079602D00022CD
:101410007F1C04E02078302801D100227F1E002AA2
:10142000069787D01EE0112D07DAFFF7C5FE303290
:1014300062556D1C02460A43F5D1084303D000985B
:10144000002819D00EE00021681E05E0235C625CD4
:1014500063542254401E491C8142F7DBA81B401EE6
:1014600007950690079A18990020A0540F98079B9B
:10147000069A81600CC07CE711260020189059E77D
:10148000D21DF0B50D460446D10893B0C90003C97A
:101490000C900D9104F02AFA02460D98C00F01D06D
:1014A0002D2007E02068810701D52B2002E04007AE
:1014B000C00F4001032A0F9001D0072A05DB034625
:1014C0002946204600F096FB0EE12078800601D5E3
:1014D000E76900E006272846652D04D0662814D069
:1014E000672D69D12DE00020112F009001DB112321
:1014F00000E07B1C0CAA03A910A8FFF7F3FE1199CA
:10150000002610987D1C0E9142E001203B460CAA5B
:10151000C0070B900120009003A910A8FFF7E2FE7E
:10152000119D12981099002600280E9501D1781C63
:101530000D18781B02D446427D1C761EE81B0090D5
:101540003AE0012F00DA01270020112F009001DD81
:10155000112300E03B460CAA03A910A8FFF7C2FE26
:1015600011993D46109800260E91217809070BD459
:101570000E99A94200DA0D4603A9012D04DD4A198E
:10158000203AD27F302A06D0B84201DA011D04DAAF
:10159000012100910FE06D1EEFE7002802DC8619A3
:1015A0002D1A03E0411CA94200DD0D46801B401CA2
:1015B00000900120C0070B902078000705D4009808
:1015C000A84202DB0020C043009069460020C87298
:1015D0000B98012102AF0337C907884225D00220AA
:1015E00010902B2011900B9800280BDA40420B90A2
:1015F0002D20119006E00B9800F039FA30317F1E53
:101600000B9039701099481E00291090F3DC0B984C
:101610000028F0D111987F1E38702088000501D570
:10162000452000E065207F1E387001A8C01BC01D4A
:101630000B900F98002800D0012041190098C01786
:1016400009180B980818A169081A401EA061207893
:10165000C00602D42046FFF706FB0F98002805D0ED
:101660006268A1689047206A401C20622078C0060A
:1016700025D52046FFF7F7FA21E0002E07DB0E986C
:10168000B04204DD03A86268805DA16802E0626880
:10169000A16830209047206A761C401C2062009888
:1016A000401E002800900AD100F0A0FAC0686268CD
:1016B0000168405CA1689047206A401C206228466F
:1016C0006D1E0028D9DC07E062683878A1687F1CAD
:1016D0009047206A401C20620B99481E00290B90FD
:1016E000F2DC2046FFF7D5FA032042E601FCFFFFBB
:1016F000104D0000E1DFFFFFD21DF0B504460D469E
:10170000D0088DB0C000466807683146384604F0FE
:10171000EDF80246F00F01D02D2307E02068810785
:1017200001D52B2302E04007C00F43016846002B80
:10173000037001D0012000E00020032A0A9001D0AC
:10174000072A04DB2946204600F054FA2DE12078D0
:10175000800601D40D2500E0E5697000400D0D2DD7
:1017600001904BDA300D00210B9008460020C04656
:10177000032189050840002E05DA82008018C20F77
:101780001018401008408015012801DD0020C043DA
:10179000A9000023182906D39C460A460123183ABB
:1017A0001B07D34003E001221205CA4094460C31C6
:1017B000202902D33A46203900E032468A400028E8
:1017C00002DD002A06D119E0002817D10121C9073E
:1017D0008A4213D3194663467F185E41002806D11A
:1017E0000120C007824202D1084687439E430B98DE
:1017F000310D814202D00198401C019020880005E3
:1018000002D57149794402E06F49794419396B4630
:101810000A9830221A540A980A7C401C1A54401C18
:101820000A900198002801DC302000E03120187275
:10183000019A0120002A02D0644BD21804E0720001
:101840003A4302D0614A521C0192002D02DC2278F8
:10185000120703D56A462E205072022000228646C7
:1018600094460CE032033601120F6D1E8B5C02AA07
:1018700013546246521C401C9446052A01DA002D7E
:10188000F0DC002202AE08E03B0F3F01CB5C521CB3
:101890006D1E3354401C082A01DA002DF4DC236845
:1018A0009A0601D511E0401E704504DD3218203A39
:1018B000D27F302AF7D0002807DD3218203AD27FB5
:1018C0002E2A02D11A0700D4401E002D03DD3E222D
:1018D0003254401C6D1E497C31540199401C002932
:1018E00006DA2D21471C315401984042019003E053
:1018F0002B21471C315401987D21C900884206DB09
:10190000FEF7FAFC3030F0557F1C019101E06428AD
:1019100008DB01986421FEF7EFFC3030F0557F1CA6
:10192000019101E00A2806DB01980A21FEF7E4FC98
:101930003030F0557F1C01980A21FEF7DDFC303174
:10194000F1550A98A1697F1C7A191018081AA0612C
:101950002078C00602D42046FFF785F9216A6E463A
:101960000A980818206204E062683078A168761C42
:1019700090470A98401E0A90401CF5D12078C00676
:1019800002D52046FFF76FF902AE09E03078761CE9
:101990003E280DD06268A1689047206A401C2062F2
:1019A0007F1EF3D22046FFF774F90DB00320F0BD7F
:1019B000206A4019206203E06268A16830209047E5
:1019C0006D1EEDD3F8E70000DC45000001FCFFFFD1
:1019D00010B54369002B02D0C046C04601E0FFF7B6
:1019E0007BF9012010BD1278014624310A700022D3
:1019F0004A700122ECE711680022D243E8E710B5F3
:101A00004369002B02D0C046C04601E0FFF7F6F95B
:101A1000012010BD12880146243182840022C28434
:101A20000122ECE711680022D243E8E7F8B5164638
:101A30000C46054600F0D2F80368FF200230C05C77
:101A4000012807D0FF2C0FD8185D00280CD00120EA
:101A50002C70F8BDFF333246214608331868C7188A
:101A600028460023B847F8BD0020C043F8BD014612
:101A70008008081A02091018020A1018020C10181F
:101A8000C008820012185200891A01E0401C0A396D
:101A90000A29FBD270470000F8B5264C4E00069D7F
:101AA000A6420AD8A64201D1002806D15E00A6426D
:101AB00003D8A6420AD1002A08D00D2424042542C6
:101AC00033D02946002000F00DFCF8BD0C461C4325
:101AD00011D4994207D0C81A02D3EFF30080F8BDA1
:101AE000EFF30080F8BD801A02D3EFF30080F8BD59
:101AF000EFF30080F8BD09242407E5008B4207D0EE
:101B0000581A02D3EFF3008006E0EFF3008007E0FD
:101B1000101A03D3EFF30080A04303E0EFF300803B
:101B2000A043284380F30088F8BD009500F0F2FB45
:101B3000F8BD00000000E0FF10B5FF231B064400C5
:101B40009C421DD84C009C421AD80346124A0B43B3
:101B500007D4401A02D3EFF3008010BDEFF30080EA
:101B600010BD081A03D3EFF30080904305E0EFF3B4
:101B7000008001219043C907084380F3008810BD0D
:101B80000D231B041A4204D01146002000F0AAFBCA
:101B900010BD00F0C9FB10BD00000090754600F0BC
:101BA000CBFBAE46050069465346C008C0008546DB
:101BB00018B020B5FEF770FB60BCB64600260027C3
:101BC000C0C5C0C5C0C5C0C5C0C5C0C5C0C5C0C5ED
:101BD000403D490849008D467047000010B500F0AF
:101BE00005F8001D10BD00BFE13D00000048704732
:101BF00050002020F8B51F46044601230068DB0290
:101C0000032601461840072A05DB002801D017A546
:101C100006E017A504E0002801D016A500E016A5EF
:101C2000102081432160A069C01E002FA06101D057
:101C3000401EA0612046FFF716F8002F09D0384655
:101C40006268A1689047206A401C2062C01C206224
:101C500006E0206AFAE762682878A1686D1C904760
:101C6000761EF8D22046FFF714F8F8BD4E414E001C
:101C70006E616E00494E4600696E6600F7B5164605
:101C80008AB0334878446C4603467C33C06F5A6848
:101C90009B680DC42E487844763003AC0DC80DC443
:101CA0003720C001081837211B30FEF725FB0546F9
:101CB0000C46803D1B3C02D56442012000E0002020
:101CC0000027099010E0E0070CD00C202049784351
:101CD000794432464C3941186846012300F054FAE1
:101CE0006B4607C364107F1C002CECD1184F7F4457
:101CF0002E3F16E0E80712D02001C0190EC8069149
:101D0000089307920068F04201D198190890324672
:101D1000012306A903A800F037FA03AB07C36D102F
:101D2000641C002DE6D10998002806D03246694689
:101D3000012303A800F07EFA05E00123324669463C
:101D400003A800F021FA0A9B07C30DB0F0BD000004
:101D500070410000034640000A4610B5400D0BD00C
:101D60000121C9070F24A40200191C0364082143A0
:101D7000540D2143D20207E000210120F2E7D40FE5
:101D8000490021435200401E0029F8DADB0FDB072F
:101D9000184310BDFFB50D46144685B0486851681C
:101DA00003F08CFD00910190A868A16803F086FD06
:101DB00002910390A868616803F080FD029A1218EE
:101DC0008242029201D2012000E00020019A0B1809
:101DD000D2180028019202D08A4202D903E08A4236
:101DE00001D2012000E000200099081800906868E6
:101DF000A16803F063FD029A12188242029201D296
:101E0000012000E00020019A0B18D218002801924E
:101E100002D08A4202D903E08A4201D2012000E0C6
:101E200000200099081800902868216840004900A7
:101E3000400849084018FA49471814E00199400041
:101E4000C90F08430090019802994000C90F084348
:101E50000190029803994000C90F0843029003982B
:101E600040007F1E039000980028E7DA08980028B9
:101E700001D0EC4E00E00026B74201DA012000E07C
:101E80000020002804902AD0F71BF806C00E15D0B9
:101E9000029B2021091A039A8B401A430392029A4B
:101EA000019BC2408B401A430292019A009BC240A0
:101EB0008B4000991A430192C14000917B110DD0D3
:101EC0006F460320C11A03D500218200B95003E0F8
:101ED0008A008100BA587A50401EF3D537460398DD
:101EE0000299002800D0012001430898029100289F
:101EF00008460CD0002800D001200199019A49051C
:101F000008430121D20AC902D202019200E0012154
:101F10000E9B0122D207012B02D0002B03D013E02D
:101F2000002807D120E0904204D890420CD1019BB8
:101F30000B4209D0019B5918019105D10099491C08
:101F4000009101D17F1C009200280DD0102108467D
:101F50000020C0460498002806D00F98002803D01F
:101F6000082108460020C04628682168019B009A85
:101F70004840C10F0598C90739430EC009B0F0BDEC
:101F8000FFB587B0099A0898089953689268406825
:101F9000896896460022039317469446089A126869
:101FA0005300099A5B081268520052089A1A9E4B15
:101FB000D4180A9A002A01D0352200E04022069265
:101FC0000022012315460492DB07059324E0002D2F
:101FD00005D175460346039E4D1BB34109D3754693
:101FE0006646039B491B049D9841059B7519AC46A9
:101FF0005F4163463B4308D0059B049EDD0776089E
:102000002E435B080496059301E0521E641EC50F23
:10201000ED0749184041521C069B9A42D7DB002D20
:1020200004D17546039A6B1A824101D203200CE059
:10203000039A0B466B404240134303D0014303D045
:10204000012002E0022000E0002061460191002111
:10205000009702910A99002905D061464002014388
:10206000704B019102E08007002302909C4201DA4C
:10207000012000E0002007003AD01A1BD006C00E55
:1020800015D0029D2021019C091AC5408C40254392
:10209000029C8C4000D001242543019C0295009DA8
:1020A000C4408D4000992C430194C14000915411CB
:1020B0001DD06D460221002202290CD10320001BF5
:1020C00007E0002804DB8600AE59002E00D0012274
:1020D000401C0328F5DB081B02D588002A5004E0C9
:1020E0008000285810438A00A850491EE3D51C469A
:1020F0000A98002802980CD0002800D001200199ED
:10210000019A490508430121D20AC902D20201926B
:1021100000E00121109B0122D207012B02D0002BED
:1021200003D013E0002807D11FE0904204D890426A
:102130000CD1019B0B4209D0019B5918019105D18B
:102140000099491C009101D1641C009200280CD018
:10215000102108460020C046002F06D01198002804
:1021600003D0082108460020C04608980999019A22
:10217000009B006809684840C10F0798C9072143C0
:1021800082600AC00BB0F0BD00B585B0019300922B
:102190000A460146002302A8FFF7FCFD02A807C873
:1021A00005B000BDFFB50A461F4685B007990193EB
:1021B00001230091014602A8FFF7ECFD0299039864
:1021C000049ECA0F4900D20700920F2249089202CA
:1021D0008C1A0021002800DB0C46450013486D08CE
:1021E000844214D3079A002A04DA441E0026104DB4
:1021F000F64302E004460D460E4610210846002034
:10220000C046002F03D0042108460020C046200508
:10221000E90A0843009908436905F20A1143ADE64B
:1022200002C0FFFF013C0000FF3F0000FF0700006D
:10223000FFFFFF7F00B585B0019300920A4601467B
:10224000002302A8FFF79CFE02A807C8A8E7FFB575
:102250000A461F4685B00799019301230091014664
:1022600002A8FFF78DFE02990398049ECA0F490049
:10227000D20700920F22490892028C1A00210028EE
:1022800000DB0C46450011486D08844214D3079AC0
:10229000002A04DA441E00260D4DF64302E00446EF
:1022A0000D460E46102108460020C046002F03D0E0
:1022B000042108460020C0462005E90A0843009989
:1022C00008436905F20A114358E60000FF070000C1
:1022D000FFFFFF7F10B50446C046C0462046FDF70D
:1022E000CDFF10BDC80212D54803400F002804D00E
:1022F000C803C043012188407047EFF3008000010C
:10230000000903210907084380F300887047002073
:102310007047000010B500200249029A00F068F8EA
:1023200010BD00000000F87F10B5024800F060F812
:1023300010BD00000000C07F004870473000202022
:1023400082078B079A423FD170B5920F0AD00324BF
:1023500002780B78401C491C002A33D09A4231D1B4
:102360002042F5D1214EF40104C808C9951B9543BC
:10237000254018D19A420FD104C808C9951B95432E
:10238000254010D19A4207D104C808C9951B95432E
:10239000254008D19A42E7D012BA1BBA01209A42CE
:1023A00000D2404270BD12BA1BBA2DBA18241000D8
:1023B000E0401900E140401A05D12E00E64002D16C
:1023C000083CF4D1D01A70BD02780B78401C491C2F
:1023D000002A09D09A4207D102780B78401C491C88
:1023E000002A01D09A42EFD0D01A704701010101B2
:1023F00010B50C461107090F092904D00A290AD083
:1024000008290CD104E011460820FFF76BFF06E015
:10241000510606D501E0510601D50120C00721462D
:1024200010BDD10607D501010909CC084907000EE6
:102430000006044309E0410F20024907000A014356
:10244000200E00061D22D14101430846E7E70000A7
:1024500001491820ABBEFEE72600020070470000CD
:1024600080B584B003A9009108800120C1060291C3
:102470001948019000F046F90098008800F0F2FB3E
:102480000198029900F072F804B080BD80B586B062
:1024900005A9087000200490FFE7049805A90978B1
:1024A000884217DAFFE70120C10602910A4801902D
:1024B00000F028F96420039000F0D4FB0198029901
:1024C00000F054F8039800F0CDFBFFE70498401C9F
:1024D0000490E2E706B080BD00000A40811E091F9B
:1024E00000BFFCD2704784B0039002910192039820
:1024F0000068009000980199884300900098029924
:10250000019A114008430399086004B07047000025
:1025100082B001900091009B0199094A88581843A4
:10252000885002B07047C04682B001900091009B75
:102530000199034A88581843885002B07047C04632
:102540004810000082B001900091009801999522F6
:102550005201885002B0704782B0019000910098FB
:10256000019995225201885002B0704782B00190C3
:1025700000910098019995225201885002B070474D
:1025800082B001900091009B01998E4A88581843AF
:10259000885002B07047C04682B001900091009808
:1025A0000199024A885002B07047C046D01200001C
:1025B00081B0009000990120C2028848885001B083
:1025C0007047C04682B0019000910198024940587E
:1025D0000099084002B070473810000081B00090A8
:1025E00000988100204A0D48885001B07047C046CD
:1025F00010B584B0069C039002910192009302985A
:102600000199084300990843069908430349084380
:1026100003998900144A885004B010BD8100040059
:1026200081B00090009881000F4A8120885001B04D
:102630007047C04682B0019000910098034908435A
:1026400001998900084A885002B070478000040050
:1026500082B001900091009880210843019989007F
:10266000014A885002B070470480424082B0019015
:10267000009101982721C90140580099084002B0F3
:10268000704782B00190009101982721C9014058FC
:102690000099084002B0704782B001900091019803
:1026A0002721C90140580099084002B07047000036
:1026B00081B000900099D54AD548885001B0704744
:1026C00082B001900091009B0199034A88581843F9
:1026D000885002B07047C0469013000082B001904D
:1026E0000091009801990C4A885002B07047C0468A
:1026F00082B00190009100980199074A885002B079
:102700007047C04682B00190009100980199024A3A
:10271000885002B07047C0469012000082B001900D
:102720000091009B01999D204201885818438850D0
:1027300002B070470649086801229043086070475C
:102740000349086801221202904308607047C0469E
:1027500008010B4003490868012212031043086076
:102760007047C04604010B4081B0014668460170C5
:1027700000780249086001B07047C04608030B406A
:1027800080B582B0014601A8017001780248032299
:10279000FFF7A9FE02B080BD00010B4081B00090A0
:1027A0000099F74A0120885001B0704782B001902B
:1027B0000091009B0199C64A88581843885002B07E
:1027C0007047C0462810000081B000900099012099
:1027D000C202C548885001B07047C04601000026BB
:1027E00081B000900098812149014058C0B201B0E9
:1027F000704781B000900098812149014058C0B2D3
:1028000001B07047F0B57A4A82183B4BC31808797B
:102810004E793A4D784C002E23D0202804D005263E
:10282000F601002803D003E0354E002800D18826A9
:10283000576F2F4037435767976F2F40374397673E
:10284000566B26405663966B264096630026566567
:1028500096658F26F6435F6837405F609F68374014
:102860009F608E79096820280BD0002819D1491E55
:102870005160D76E2F4088210F43D76617467037B7
:1028800019E0491E5160D16E29401D4F3943D16670
:10289000116F29403943116701214907194D174626
:1028A00009E049085160D76E2F400521C9010F4347
:1028B000D766174670373C682C400C433C60D16AA1
:1028C0004D4C2140D162116B214011630021D16434
:1028D00011658F21C943D46F0C40D4671C680C402C
:1028E0001C600643BD2030401168074B0B40C018E8
:1028F000801C1060F0BDC0468418000024493E00D2
:1029000001040000FFFFFFCF4000FFCFB0B54A68D1
:10291000364BC250364A80180A78222A58D893007B
:1029200001A4E3589F46C046C7290000D1290000F2
:10293000C7290000D1290000D1290000D1290000B9
:10294000D1290000D1290000D1290000D12900009F
:10295000D1290000D1290000D1290000D12900008F
:10296000D1290000D1290000B5290000D12900009B
:10297000B5290000D1290000D1290000D12900008B
:10298000D1290000D1290000D1290000D12900005F
:10299000D1290000D1290000D1290000D12900004F
:1029A000D1290000D1290000B5290000D12900005B
:1029B000B529000003231B0704689C4301235B0720
:1029C000E318036004E003231B0704689C430460CE
:1029D0000B69C360CB68074C1C40C36A064D1D40A1
:1029E0002B19C362097A11430160B0BD08180000B9
:1029F00004180000777702008888FDFF81B00090FE
:102A00000099714A7148885001B07047040800006D
:102A1000030000B182B00190009100980199112249
:102A20001202885002B0704710B507239B0419406A
:102A300092008018024A84589C436118815010BD4E
:102A40003018000010B5029CA4000019114319436E
:102A5000014A815010BDC0465018000092008018F5
:102A6000014A81507047C0461018000010B501227D
:102A7000120383180C789C604B7883508978014A44
:102A8000815010BD0C11000081B000900099112000
:102A90000202885801231843885001B07047000093
:102AA00082B001900091009B0199094A885818430F
:102AB000885002B07047C04682B001900091009BE0
:102AC0000199034A88581843885002B07047C0469D
:102AD0002810000081B0009000990120C202024835
:102AE000885001B07047C0460100002681B00090B8
:102AF0000098812149014058C0B201B0704781B0AF
:102B000000900098812149014058C0B201B070473F
:102B100081B000900098812149014058C0B201B0B5
:102B200070470000B0B51122120283580124A3435C
:102B300083500B888C781C438B882343094C1C40A2
:102B40008358094D1D40631983508B79CC791C4300
:102B5000097A21437E231940801842689A4351180C
:102B60004160B0BD18670000E798FDFF81B000909C
:102B70000098034940580121084001B07047C04601
:102B80000811000081B0009000980A494058C0B276
:102B900001B0704781B00090009806494058C0B21B
:102BA00001B0704781B00090009802494058C0B20F
:102BB00001B070472411000081B000900099024AD2
:102BC0000248885001B0704704080000030000B1BB
:102BD00080B584B003900291019203980B4940188C
:102BE00002990B4AFFF77FFC03980A4940180199A4
:102BF0003F22FFF778FC0399074A88188958012279
:102C00001140FFF770FC04B080BDC04610110000F9
:102C1000FFFF0000141100000411000010B5012294
:102C2000120383180C789C604978815010BD80B5E0
:102C300082B0019000910198112109024018009979
:102C40000322D203FFF74FFC02B080BD82B0019097
:102C5000684601700078019989225201885002B0BB
:102C60007047000081B00090009805490860FFE7B8
:102C700003480068002801D0FFE7F9E701B070477A
:102C8000D405202080B582B0E8480321FFF79AFCE4
:102C9000019001A800788007002812D5FFE7E348DB
:102CA0000121FFF7E3FC002805D1FFE7144908687C
:102CB000401E086004E012490868401C0860FFE7F5
:102CC00018E001A80078C007002812D0FFE7D74815
:102CD0000221FFF7CBFC002805D1FFE7084908686F
:102CE000401C086004E006490868401E0860FFE7D1
:102CF000FFE7FFE7CD480321FFF716FC02B080BDD8
:102D0000D407202080B594B000200F90139012902B
:102D1000C5490E910878C97B401AFDF720FE009046
:102D200008460E9901904878897B401AFDF717FEF6
:102D30000F9A374BFDF71EFE0F9A03460098029339
:102D40000B4601990393334BFDF714FE029A039B44
:102D5000FDF77EFD049008460E9905908878497B22
:102D6000401AFDF7FCFD0F9A2B4B0693FDF702FE70
:102D7000049A059BFDF76CFD079008460E99089094
:102D8000C878097B401AFDF7EAFD069B0F9AFDF70C
:102D9000F1FD079A089BFDF75BFD099008460E9927
:102DA0000A900879C97A401AFDF7D9FD0F9A1B4B92
:102DB0000B93FDF7DFFD099A0A9BFDF749FD0C9087
:102DC00008460E990D904879897A401AFDF7C7FD9B
:102DD0000B9B0F9AFDF7CEFD0C9A0D9BFDF738FD6E
:102DE000109008460E9911908879497A401AFDF79B
:102DF000B6FD0F9A0A4BFDF7BDFD109A119BFDF72A
:102E000027FD139112901298139914B080BDC046FB
:102E10000000344000003E4000002E4000001C40F6
:102E20000000144080B50120C1057E48FFF729FC51
:102E3000002804D0FFE77C490120087003E07A49AC
:102E400000200870FFE7012081077848FFF719FC90
:102E5000002804D0FFE774490120487003E072495C
:102E600000204870FFE70120C1066E48FFF709FC0B
:102E7000002804D0FFE76C490120887003E06A490C
:102E800000208870FFE7012041056648FFF7F9FB45
:102E9000002804D0FFE764490120C87003E06249BC
:102EA0000020C870FFE7012041076048FFF7E9FBF9
:102EB000002804D0FFE75C490120087103E05A496B
:102EC00000200871FFE7FB480421FFF7DAFB002828
:102ED00004D0FFE754490120487103E05249002023
:102EE0004871FFE70120C102F248FFF7CAFB002842
:102EF00004D0FFE74C490120887103E04A490020D3
:102F00008871FFE70120C104EB48FFF7BAFB0028F6
:102F100004D0FFE744490120C87103E04249002082
:102F2000C871FFE701208106E348FFF7AAFB0028EC
:102F300004D0FFE73C490120087203E03A49002031
:102F40000872FFE701200103DA48FFF79AFB002827
:102F500004D0FFE734490120487203E032490020E1
:102F60004872FFE701204103D248FFF78AFB00289F
:102F700004D0FFE72C490120887203E02A49002091
:102F80008872FFE701200102CB48FFF77AFB002897
:102F900004D0FFE724490120C87203E02249002041
:102FA000C872FFE701204102C348FFF76AFB00280F
:102FB00004D0FFE71C490120087303E01A490020F0
:102FC0000873FFE7BC484021FFF75BFB002804D0F3
:102FD000FFE715490120487303E0134900204873B7
:102FE000FFE7B5488021FFF74CFB002804D0FFE73E
:102FF0000D490120887303E00B4900208873FFE727
:1030000001208102AB48FFF73CFB002804D0FFE71A
:1030100005490120C87303E003490020C873FFE796
:1030200080BDC04600200A409800202000000A40D1
:1030300080B584B003A90870394800780090002852
:1030400008D0FFE70098012813D0FFE70098022876
:1030500024D05CE003A80078552809D1FFE7039845
:10306000314908702F49012008702D490870FFE789
:1030700053E003A80078532809D1FFE703982A49B1
:1030800048702849022008702549087005E0244945
:103090000020087023490870FFE73EE003992148AB
:1030A0000378214AD1540178491C017000780B281B
:1030B0002CDBFFE71C498879CA7980180A7A8018C6
:1030C0004A7A8218A83202A802700078897A884267
:1030D00016D1FFE71449C87900028979411801A87F
:1030E00001800088FDF7BCFD0721C90602F080FDC4
:1030F0000E4902F07DFD1649486001200870FFE787
:1031000007490020087007490870FFE705E00449F7
:103110000020087003490870FFE704B080BDC04676
:10312000B4002020B3002020A80020200000344359
:1031300080B582B00320019001F0A8FE019801F053
:103140000BFF034900200870486002B080BDC046F4
:10315000A807202081B000200090FFE700980328F6
:103160001EDCFFE70098C200D74900208854009A6F
:10317000D2008A185070009AD2008A185080009AA3
:10318000D2008A189080009AD2008A189071009A12
:10319000D2008918C871FFE70098401C0090DDE755
:1031A00001B0704782B0014668460170007804287B
:1031B00004DBFFE701A90020087017E068460078EB
:1031C000C100C1484018407801280BD1FFE768468C
:1031D0000078C100BC4841180020487001A90120B6
:1031E000087003E001A900200870FFE701A800783B
:1031F00002B0704782B0014668460170007804282A
:1032000004DBFFE701A9002008700AE068460078A7
:10321000C100AD48401880790121084001A908701B
:10322000FFE701A8007802B07047C04680B584B0BF
:10323000014602A8017000780190032831D8019856
:10324000810001A040588746593200006B320000CF
:103250007D3200008F320000E4480121FFF71CFAA4
:103260004142484103A908701FE0E0480221FFF7EE
:1032700013FA4142484103A9087016E09B48802197
:10328000FFF70AFA4142484103A908700DE0012006
:1032900081049648FFF700FA4142484103A90870AB
:1032A00003E003A900200870FFE703A8007804B03A
:1032B00080BDC04600000A4000200A4010B584B01E
:1032C00003A900200870FFE703A80078032800DDA9
:1032D000F7E003A800900078FFF7A8FF01460098E8
:1032E00002AA11700078C1007748405C0190042860
:1032F00000D9D6E00198810001A040588746C04619
:10330000153300003B330000A933000007340000F0
:103310002D34000002A80078C00700280CD0FFE779
:1033200003A90878C30068480122C2540978C9007B
:10333000411800204880FFE7B3E002A80078C007EA
:10334000002825D0FFE703A90878C2005E4883184B
:103350005A88521C5A800978C900401840880228AF
:1033600015DBFFE703AA1078C30057490220C854B1
:103370001078C0000B18012098711378DB00CC186E
:103380000023A3801278D20089184870FFE70AE072
:1033900003AA1078C3004C490020C8541278D20008
:1033A00089184880FFE77CE002A80078C007002861
:1033B0001CD0FFE703A90878C200434883189A8805
:1033C000521C9A800978C9004018808864280CDB58
:1033D000FFE703A90878C3003B480322C2540978D9
:1033E000C900411802204870FFE70BE003A90878E4
:1033F000C30035480422C2540978C900411800208E
:103400004880FFE74DE002A80078C00700280CD1F3
:10341000FFE703A90878C3002B480422C2540978A7
:10342000C900411800204880FFE73AE002A8007870
:10343000C007002828D1FFE703A90878C200224866
:1034400083185A88521C5A800978C900401840884D
:10345000022818DBFFE703AA1078C3001A490020EE
:10346000C8541378DB00CB1898711378DB00CC18A4
:10347000032363701378DB00CB1858801278D200D6
:1034800089188880FFE70BE003A90878C3000E487D
:103490000222C2540978C900411800204880FFE781
:1034A000FFE702A8007803A90978CA00064989182D
:1034B00001221040C871FFE70398401C03A908705F
:1034C00002E704B010BDC046B007202080B501203F
:1034D00081060648FFF70CF980BDC04680B5012083
:1034E00001060248FFF704F980BDC04600000A400B
:1034F00080B5012001063D48FFF7FAF880BDC046BF
:1035000084B00B46014602A8018001A90B806B46DE
:103510001A800022805E895E884204DAFFE7019803
:1035200003A908800FE0002202A8805E6946895E38
:10353000884204DDFFE7009803A9088003E00298B1
:1035400003A90880FFE7002103A8405E04B070478C
:1035500080B584B0034603A8037002AB197001A9BB
:103560000A800078022801DBFFE724E003A8007846
:1035700002A90091097800F079F8009800780028F5
:1035800006D1FFE703A80078002100F093F806E0D9
:1035900003A8007801A9098800F08CF8FFE702A8C9
:1035A0000078411E884103A9097806224A435549FB
:1035B00089180871FFE704B080BDC04680B50120BE
:1035C00001050A48FEF7C8FF1D490020087080BDAC
:1035D00080B582B00120019001050448FFF77EF814
:1035E00001981749087002B080BDC04600200A400B
:1035F00010B582B000200190FFE70198012815DC8A
:10360000FFE701980622134643433E490020C85471
:10361000019C13466343CB185880019B5A43891879
:103620000871FFE70198401C0190E6E7044900207B
:10363000087000F0C2F8FFF7C1FF02B010BDC0462D
:10364000D007202080B584B0014603A801900180F6
:103650000288002001210291FFF77AFF0198029968
:1036600002880846FFF774FF04B080BD80B582B0C1
:10367000024601A802706A4611700078022801DB38
:10368000FFE714E0009901A80278062353431D4A7E
:10369000D1540078002805D1FFE76846007801F092
:1036A00099FF04E06846007801F0E6FFFFE702B00A
:1036B00080BDC04680B582B0024601A802706A464D
:1036C00011800078022801DBFFE718E0684601F06E
:1036D0006FFF009901A8027806235343094AD218C4
:1036E00051800078002805D1FFE76846008801F086
:1036F000B7FF04E06846008802F00CF8FFE702B06C
:1037000080BDC046EC07202080B58AB0024609A8DB
:103710000290028008AA0392118000210491415E68
:1037200001200590022206920029079001DC0698EC
:10373000079004980799FFF799FF02990498095E8A
:10374000CA175140891AFFF7B5FF049A03990598E3
:10375000895E0029019001DC069801900598019985
:10376000FFF784FF049A03990598895ECA175140B0
:10377000891AFFF79FFF0AB080BD80B584B001466B
:1037800003A8019001800288002001210291FFF727
:10379000DFFE019902980A880221FFF7D9FE04B0E2
:1037A00080BD80B582B0014601A80170007800227A
:1037B0001146FFF7CDFE02B080BD80B50020FFF7B7
:1037C000F0FF0120FFF7EDFF80BD000080B582B063
:1037D00001A900200870FFE701A8007807281EDC77
:1037E000FFE7694600200870FFE7684600787F28F9
:1037F0000FDCFFE768460078C1002E48411801A899
:10380000027800208854FFE70098401C6946087041
:10381000EBE7FFE70198401C01A90870DCE700F026
:1038200067FA02B080BDC04684B0034603A80370A7
:1038300002AB197001A90A7000787F2805DCFFE748
:1038400002A80078402801DBFFE730E002A80078FA
:10385000C0086946087001A80078C007002813D086
:10386000FFE702A80078072108400123834003A84E
:1038700001787F20401AC1000E484118684602783E
:10388000885C1843885412E002A800780721084099
:103890000123834003A801787F20401AC100054816
:1038A000411868460278885C98438854FFE704B062
:1038B0007047C046BA012020012250044B490860DD
:1038C00012040A6000BF00BF00BF00BF00BF00BFFE
:1038D00000BF00BF00BF00BF45490A6000BF00BF76
:1038E00000BF00BF00BF00BF00BF00BF00BF00BFE0
:1038F00008607047012042043D490A6000040860E6
:1039000000BF00BF00BF00BF00BF00BF00BF00BFBF
:1039100000BF00BF35490A6000BF00BF00BF00BF45
:1039200000BF00BF00BF00BF00BF00BF08607047FE
:1039300082B001A90870694600200870FFE7684658
:103940000078072834DCFFE701A80078000600288B
:1039500005D5FFE7012000042449086004E00120A8
:10396000000423490860FFE700BF00BF00BF00BF9D
:1039700000BF00BF00BF00BF00BF00BF0120400468
:103980001A49086000BF00BF00BF00BF00BF00BFF2
:1039900000BF00BF00BF00BF15490860019840008C
:1039A00001A90870FFE70098401C69460870C6E747
:1039B000012002040D490A6000BF00BF00BF00BF24
:1039C00000BF00BF00BF00BF00BF00BF40040860D1
:1039D00000BF00BF00BF00BF00BF00BF00BF00BFEF
:1039E00000BF00BF0249086002B0704790120A4051
:1039F000A0120A4080B584B000F086F800BF00BF76
:103A000000BF00BF00BF00BF00BF00BF00BF00BFBE
:103A1000AE200021039100F0A5FA0399084600F0BA
:103A2000A1FA0399102000F09DFA0399402000901C
:103A300000F098FA0399812000F094FA0399CF20BE
:103A400000F090FA0399A12000F08CFA0399C820A5
:103A500000F088FA0399A620019000F083FA0399F8
:103A6000A82000F07FFA03993F2000F07BFA039929
:103A7000D32000F077FA0399084600F073FA03990F
:103A8000D52000F06FFA0399802000F06BFA0399BB
:103A9000D92000F067FA0399F12000F063FA039946
:103AA000DA2000F05FFA0399122000F05BFA039924
:103AB000DB2000F057FA0098039900F053FA0399BD
:103AC000202000F04FFA0399022000F04BFA0399EE
:103AD0008D2000F047FA0399142000F043FA03996F
:103AE000A42000F03FFA0198039900F03BFA0399F3
:103AF000AF20029000F036FA0298039900F032FAF3
:103B0000FFF764FE04B080BD7047000083B010B5BD
:103B100087B00B930A920991069005A9002088703E
:103B200008807248049009A903910699039AFCF74A
:103B3000C3FBA6490868012210430860FFE7049808
:103B40000078002800D1C4E004980078802833DB96
:103B5000FFE70498411C0491007805A908700498B7
:103B6000421C049200784870FA480168880AC0B282
:103B70008905490E4018802811DBFFE7F5490868E0
:103B8000FF239A029043086008688408820C121987
:103B9000D2B292049B04984380180860FFE7ED4975
:103BA00008688308820AD218D2B29202FF239B02CD
:103BB0009843801808608BE0049800780A2814D194
:103BC000FFE7E4490868FF239A0290430860086809
:103BD0008408820C1219D2B292049B049843801874
:103BE00008600498401C049071E00498007809284B
:103BF00030D1FFE7D7480168880AC0B24908FF22E0
:103C0000520011404018802811DBFFE7D1490868B5
:103C1000FF239A029043086008688408820C1219F6
:103C2000D2B292049B049843801808600EE0C94900
:103C300008684308FE221340820AD218D2B29202C8
:103C4000FF239B02984380180860FFE70498401CFC
:103C500004903BE0BF480168880AC0B28905490E5C
:103C60004018802811DBFFE7BA490868FF239A0251
:103C70009043086008688408820C1219D2B292043A
:103C80009B04984380180860FFE7B24B02931968C1
:103C9000880AC0B2890CC9B2049A541C04941278E0
:103CA0001C68A308DBB2A407E40F009400F090F8AE
:103CB000029908688205530E820AD218D2B2920283
:103CC000FF239B02984380180860FFE7FFE7FFE7A8
:103CD00035E7A049086801229043086000F008F821
:103CE00007B010BC01BC03B086467047BA00202064
:103CF00080B584B003A900200870FFE703A800780E
:103D0000072831DCFFE70398B030C0B200210191F1
:103D100000F028F90199084600F024F901991020D3
:103D200000F020F9019802A90870FFE702A80078C6
:103D30007F2813DCFFE702A801787F20401AC1002A
:103D40000A48401803A90978405C012100F00AF9EB
:103D5000FFE70298401C02A90870E7E7FFE7039815
:103D6000401C03A90870C9E704B080BDBA01202037
:103D7000F0B585B000910446009804A90C8003AC0E
:103D8000208002A8027001AA13700B7871490D6897
:103D90009E02FF239F02BD43AD190D6025780C687C
:103DA000AD049E04B44364190C6014780A68E407F7
:103DB000A40F0225AA4312190A600278086892002B
:103DC0009B0098438018086005B0F0BDBC0520201A
:103DD000B0B592B0029104460298169910AD2C70BD
:103DE0000FAC20700EA8039002700DA803700CAAEF
:103DF00011700F9908AA117001780491C8080590F4
:103E00004907401C0029069001D1059806900399A6
:103E10000498069A4008504307AA10700E9820385C
:103E200008700AA900200870FFE70AA8007807A90F
:103E3000097888427CDAFFE70DA8007801900C2809
:103E400008D0FFE70198102810D0FFE70198182844
:103E500017D022E00EA800780C21414340484018BA
:103E60000AA90978405C0BA908701AE00EA800782E
:103E700001013A4840180AA90978405C0BA908706A
:103E80000FE00EA8007824214143334840180AA9C6
:103E90000978405C0BA9087003E011A900200870A4
:103EA00053E009A900200870FFE709A80078072857
:103EB00038DCFFE70B9809A909788840000600283C
:103EC0000AD5FFE710A800780FA909780C9B0122FA
:103ED0009A43FFF7A9FC0AE010A800780FA9097817
:103EE0000CAA127801231A40FFF79EFCFFE70F98F7
:103EF000411C0FA80170007808A90978401A0DA983
:103F00000978884208D1FFE708980FA9087010982F
:103F1000401C10A9087005E0FFE70998401C09A99A
:103F20000870C2E7FFE70A98401C0AA908707CE7FE
:103F300008480078C007002803D1FFE7FFF7D8FE44
:103F4000FFE711A901200870FFE711A8007812B05F
:103F5000B0BDC046BC052020F06800000063000032
:103F60008C5E000080B582B001AA107068460170B6
:103F7000007800280FD1FFE7FFF79EFC7820FFF7BD
:103F8000D7FC0020FFF7D4FC01A80078FFF7D0FC95
:103F9000FFF7B0FC14E06846007801280FD1FFE776
:103FA000FFF78AFC7820FFF7C3FC4020FFF7C0FC36
:103FB00001A80078FFF7BCFCFFF79CFCFFE7FFE7D8
:103FC00002B080BD80B58CB0122005210591FEF7AE
:103FD0003FFB01200890010290480690FEF7DCFAB2
:103FE00005991320FEF734FB069808994902FEF75D
:103FF000D3FA102002210191FEF72AFB019911202A
:10400000FEF718FB01990846FEF722FB0199059877
:10401000FEF710FB01991C20FEF71AFB01991D20E9
:10402000FEF708FB3B20FEF7FBFA0E20FEF7F8FA3E
:104030003A20FEF7F5FA3520FEF7F2FA3320FEF7C4
:10404000EFFA0898002202920092C30403930B2017
:104050001146FEF7CDFA029A039B00920C201146FE
:10406000FEF7C6FA029A039B00920D201146FEF756
:10407000BFFA029A039B009227201146FEF7B8FA76
:10408000029A039B009232201146FEF7B1FA029A7F
:10409000039B009204201146FEF7AAFA029A039BA2
:1040A000009239201146FEF7A3FA029A039B009270
:1040B00030201146FEF79CFA029A039B00920320DF
:1040C00009901146FEF794FA029A039B009206208B
:1040D0001146FEF78DFA029A039B009215201146B5
:1040E000FEF786FA029A039B00922C201146FEF7F7
:1040F0007FFA029A039B009238201146FEF778FA65
:10410000029A039B009221201146FEF771FA029A4F
:10411000039B009222201146FEF76AFA029A039B43
:10412000009218201146FEF763FA029A039B009250
:1041300019201146FEF75CFA029A039B00921620A2
:104140001146FEF755FA029A039B0092172011467A
:10415000FEF74EFA029A039B009214201146FEF7D6
:1041600047FA3620FEF75CFA3720FEF759FA2F207F
:10417000FEF756FA2320FEF753FA2A20FEF750FAEC
:104180000898FEF72BFA0298FEF728FA029A039B8A
:1041900000921F201146FEF72BFA029A039B009211
:1041A00020201146FEF724FA2620FEF739FA2520B2
:1041B000FEF736FA06981A490491FEF7C3F90499F6
:1041C0000698FEF7E9F905990698FEF779FA069838
:1041D0000999FEF79DF906980999FEF7D1F9C048AB
:1041E0000A9010490791FEF7ADF907990A98FEF772
:1041F000D3F908990A988907FEF762FA08990A988C
:10420000FEF78CFA09990A98C9030B91FEF780F919
:104210000A980B99FEF7B4F90CB080BD00000A4073
:104220000040030F0400120380B584B01B49AD4861
:104230000390FEF71BFC03981949FEF7E3FA039875
:1042400000230193009319461A46FEF7FBFB019ADF
:1042500003981146FEF7E8FB019A03981146FEF712
:10426000FDFB019B039801210291009119461A461A
:10427000FEF7E8FB0199029A0398FEF7D5FB019936
:10428000029A0398FEF7EAFB0398FEF787FA039871
:104290000321FEF7BFFB04B080BDC0464C76000092
:1042A0005076000080B582B000200190FEF75CFAE5
:1042B0000198FEF765FAFEF73DFAFEF741FAFEF7C0
:1042C00049FA0199012000F085FE02B080BD80B559
:1042D0007D20000200F00EF980BD000080B582B0A4
:1042E0000A49DD480190FEF7C1FB01980849FEF735
:1042F0000DFB01980121FEF759FA0220002100F080
:1043000069FE0198FEF74AFA02B080BD58760000B7
:104310005C76000080B582B00849B3480190FEF792
:10432000A5FB01980649FEF7F1FA01980121FEF775
:104330003DFA0198FEF732FA02B080BD70760000B7
:104340007476000080B582B00D4968480190FEF790
:1043500065FC01980B49FEF7E5FB01980021FEF78B
:1043600066FC019802210B22FEF732FC0198032122
:104370008902FEF7A1FB0198FEF786FB02B080BD23
:10438000887600008A76000080B582B00D495648D4
:104390000190FEF743FC01980B49FEF7C3FB01981F
:1043A0000021FEF744FC019802210B22FEF710FCCD
:1043B000019803218902FEF77FFB0198FEF764FB59
:1043C00002B080BD947600009676000080B582B081
:1043D0000D4947480190FEF721FC01980B49FEF773
:1043E000A1FB01980021FEF722FC019802210B227B
:1043F000FEF7EEFB019803218902FEF75DFB0198B1
:10440000FEF742FB02B080BDA0760000A27600005D
:1044100080B500F023F8FFF7D5FDFFF743FFFFF766
:1044200003FFFFF777FFFFF759FFFFF7ADFFFFF738
:1044300089FFFFF7CBFFFFF74AFF0549B8220020AD
:1044400088540449885404492C22885480BDC046AD
:10445000D8052020940620205007202080B588B061
:104460001E480090FEF724F91D480190FEF720F940
:104470001C480290FEF7C2FA5B480390FEF7BEFAB2
:1044800075480490FEF7BAFA17480590FEF794FBBA
:1044900016480690FEF790FB15480790FEF78CFB38
:1044A0000098FEF785F80198FEF782F80298FEF76B
:1044B0008BF90398FEF788F90498FEF785F90598BB
:1044C000FEF708FB0698FEF705FB0798FEF702FBD0
:1044D0001020FEF703F808B080BDC04600000A4077
:1044E00000200A400000864000001040008010407C
:1044F0000000504080B584B002900298401E000E2B
:10450000002803D0FFE70120039011E00298401E2D
:104510000949086000200190C043032100F05AFDC2
:10452000019806490860064A072111600390FFE7D9
:10453000039804B080BDC04614E000E018E000E03D
:1045400010E000E005480068002805D0FFE70349B7
:104550000868401E0860FFE77047C046D405202069
:10456000B0B582B02048FEF73BF9012838D1FFE70B
:1045700000F0F2FD00F0EAFD1C48007801900028F0
:1045800004D0FFE70198012814D028E0184B0C2034
:10459000185E1C1D0A21595E10229A5E08255B5F79
:1045A000009400F07FFB114901200870132000F0F7
:1045B00045FC14E00E4B1A20185E1C4612341821DC
:1045C000595E1E229A5E16255B5F009400F06AFB1E
:1045D000064900200870132000F030FCFFE700E0DF
:1045E000FFE702B0B0BDC04600208640C0052020D5
:1045F0008007202080B582B00220019000F06EFC80
:10460000019800F0D1FC02B080BD000080B51248D6
:10461000FEF7EFF801281CD1FFE7FEF74FFE00F090
:104620002DFD0E490868496800F04EFDFEF7FAFBC3
:10463000FEF768FB0A4656494A6008600848007859
:10464000C007002801D0FFE702E0FFF7B6F8FFE758
:1046500000E0FFE780BDC046000009409000202038
:10466000D007202080B586B0EA4801788908EC4A56
:1046700011800078E64909788900884235DBFFE738
:10468000E249002004900870FFF797F80498E14988
:104690000870E1490870E1490870DD480078E04998
:1046A000059108800220FDF7F1FE049B5020029046
:1046B000102203921946FFF75BFBDA48FFF726FA50
:1046C0000298039A049B1946FFF752FB3348FFF701
:1046D0001DFA039A049B30211846FFF749FB059801
:1046E00001882F48FFF712FA4FE0CC4901200870EB
:1046F0002749086849680022264B01F025F900285F
:1047000019D1FFE7C44901200870C4480023037091
:10471000C04901910878401C0870302110221846C9
:10472000FFF726FB019800788108B94802781A48FB
:10473000FFF7ECF9FFE7B848007801281AD1FFE746
:104740007D20C000FEF77EFFFA20FEF78BFA1920CD
:104750004001FFF712F801200090FDF797FEAF200F
:104760004000FEF77FFA0098E74A00211170E74900
:104770000870FFE7E5480078012806D1FFE700F060
:10478000EDF90A20FEF76EFAFFE706B080BDC046DD
:10479000C805202000405540BC760000B6760000D9
:1047A000D47600007047704770477047704700002C
:1047B00080B584B00020FEF7F5FC00281FD0FFE78D
:1047C000CF480078C007002818D1FFE7C948017812
:1047D000491C01700078072804DBFFE7C549012068
:1047E0000870FFE71022002318461946FFF7C0FAA9
:1047F000C0480178C848FFF789F9FFE7FFE7BD48DF
:10480000007801282BD1FFE70120FEF7CBFC002820
:1048100024D0FFE7B748007801281FD1FFE7B84848
:104820000078C007002818D1FFE7B3480178491C79
:1048300001700078062804DBFFE7AF49012008700B
:10484000FFE71022002318461146FFF791FAAA4805
:104850000178B248FFF75AF9FFE7FFE7FFE7A548FD
:10486000007801280FD0FFE7A248007804280AD07A
:10487000FFE7A0480078052805D0FFE79D480078AD
:10488000062826D1FFE70220FEF78CFC00281FD067
:10489000FFE79B480078C007002818D1FFE797483A
:1048A0000178491C01700078042804DBFFE7934974
:1048B00001200870FFE72021102200231846FFF78F
:1048C00057FA8E4801789648FFF720F9FFE7FFE78F
:1048D000FFE70320FEF766FC002829D0FFE78948A0
:1048E0000023039303708848037088480370884846
:1048F000038083490120087050201022029219463B
:10490000FFF736FA4748FFF701F9029A039B6C203C
:104910001946FFF72DFA4448FFF7F8F8029A039B6F
:1049200030211846FFF724FA7E48FFF7EFF8FFE73B
:104930000020FEF75FFC002834D0FFE70120FEF7DF
:1049400059FC00282ED0FFE70220FEF753FC002878
:1049500028D0FFE70320FEF74DFC002822D0FFE718
:104960006749002001900870FEF727FFFEF726FE3A
:1049700000F05CF801985F4A012111705E4A1170E5
:104980005E4A11705F4908705F4908705F4908709E
:104990005F490880FFF73CFD62B67D200001FDF70E
:1049A0005FFDFFE756480078C00700282BD0FFE7DF
:1049B00050480078401E0090052823D800988100B8
:1049C00001A040588746C046E1490000E749000081
:1049D000ED490000F3490000F9490000FF490000DB
:1049E000FFF740FE0EE0FFF7DDFE0BE0FFF7DBFE1A
:1049F00008E0FFF7D9FE05E0FFF7D7FE02E0FFF77A
:104A0000D5FEFFE7FFE704B080BDC0466808202060
:104A100010002020D2052020D30520206908202066
:104A2000D0052020B0760000F376000080B586B077
:104A3000FEF790FBFEF7DCFDFEF7CAFDFFF7DAFD9F
:104A40000320FDF723FD00F007FB00F06DF8FEF7F3
:104A5000D1FF102204920023059318461946FFF750
:104A600087F9049A059B2349019101200870224986
:104A70000291087021490391087021480370214870
:104A8000037021480370214803702148038050209F
:104A90001946FFF76DF91F48FFF738F8049A059B90
:104AA00018461946FFF764F9019801781A48FFF78C
:104AB0002DF8049A059B18461146FFF759F90298FC
:104AC00001781648FFF722F8049A059B2021184622
:104AD000FFF74EF9039801781148FFF717F8049A89
:104AE000059B30211846FFF743F90E48FFF70EF8F3
:104AF00006B080BD110020201000202028002020BA
:104B000068082020D2052020D30520206908202015
:104B1000D0052020F6760000E0760000E876000060
:104B2000CB760000AC76000080B58AB000220892F7
:104B30000748079006920748059004920392029254
:104B4000019200922E48044B00F0F1FC0AB080BDA7
:104B500000409F4000408F4000003E4010B58CB0A8
:104B60002649086849680191009025480390002370
:104B700009931A4600F01EFC0A460399CA64886429
:104B80007D20C0000BAA10800B980490886CC96C23
:104B9000FBF78EFE039902460498801A0AAA079230
:104BA00010800B980590886CC96CFBF781FE059A04
:104BB000099903460798D2184280405E114A06922E
:104BC000FEF79EFC069A0999034607980380022384
:104BD0000893C05EFEF794FC079B089A014609986B
:104BE00059800A9C08490C805B884B80085E895E6E
:104BF000FEF78AFDFEF7ECFC0CB010BDC8052020C6
:104C0000000820209F0F0000B600202080B5094832
:104C1000FDF775FF0B280AD1FFE70648FDF7BAFF3D
:104C2000014605480170007800F0EEFD00E0FFE766
:104C300080BDC046008010406A08202080B582B048
:104C40000A48FDF753FF014601910B2804D0FFE706
:104C500001980C2806D006E00448FDF793FF0449AC
:104C6000087001E000E0FFE702B080BD00001040E6
:104C70006B08202080B50948FDF74AFF0B280AD1B0
:104C8000FFE70648FDF78EFF0146054801700078F2
:104C9000FEF7CEF900E0FFE780BDC04600005040BF
:104CA0006C08202010B58AB00C9C09AC208008A8A4
:104CB000018007A8028006A803800C990120488083
:104CC00032494873069808700C980021405E0590A0
:104CD000032858D80598810001A040588746C0464F
:104CE000F14C0000814D0000834D0000854D000017
:104CF0000021029109A80390415E0120002904903F
:104D000001DC0298049003980299049A0C9B5A8142
:104D1000405E012805DBFFE7002109A8405E019005
:104D200005E0002109A8405E40420190FFE701989C
:104D30000C9908810C98817A14480090817007A919
:104D40004A78C270079A0271497841710799817156
:104D500008A94978C171089901720C990822895EE5
:104D6000090E41720C99895E090C81720C99497A7D
:104D7000C1720C99097A0173102100F0D9FC03E08B
:104D800002E001E000E0FFE70AB010BD00002020D3
:104D900080B584B003AB188002A80180019203980B
:104DA0000199088002981649087002981549087000
:104DB000029815490870029814490870029814491D
:104DC000087001980021405E0090032814D80098D4
:104DD000810001A040588746E94D0000F34D0000D6
:104DE000F54D0000F74D00000548062100F0A0FC3D
:104DF00003E002E001E000E0FFE704B080BDC04650
:104E00001200202020002020240020201C00202030
:104E10001800202081B001466846017000214056EC
:104E2000002809D4FFE7684601781F2001400120CF
:104E3000884034490860FFE701B0704781B00146FF
:104E40006846017000214056002809D4FFE76846F3
:104E500001781F200140012088402A490860FFE7AF
:104E600001B0704781B0014668460170002140568C
:104E7000002809D4FFE7684601781F20014001207F
:104E8000884020490860FFE701B0704781B00146C3
:104E90006846017000214056002809D4FFE76846A3
:104EA00001781F2001400120884016490860FFE773
:104EB00001B0704781B0014668460170002140563C
:104EC000002809D4FFE7684601781F20014001202F
:104ED00088400C490860FFE701B0704781B0014687
:104EE0006846017000214056002809D4FFE7684653
:104EF00001781F2001400120884002490860FFE737
:104F000001B0704780E200E081B001466846017060
:104F100000214056002809D4FFE7684601781F2089
:104F20000140012088402A490860FFE701B070472E
:104F300081B001466846017000214056002809D41E
:104F4000FFE7684601781F20014001208840204982
:104F50000860FFE701B0704781B001466846017004
:104F600000214056002809D4FFE7684601781F2039
:104F700001400120884016490860FFE701B07047F2
:104F800081B001466846017000214056002809D4CE
:104F9000FFE7684601781F200140012088400C4946
:104FA0000860FFE701B0704781B0014668460170B4
:104FB00000214056002809D4FFE7684601781F20E9
:104FC00001400120884002490860FFE701B07047B6
:104FD00000E100E070B582B0024601A802700091C5
:104FE00000214056002816D4FFE7002401A90857E5
:104FF0000322D3431840174A805809578C07E50EFF
:10500000FF24AC40A043009CA401E4B2AC40204388
:10501000194088501AE001A908780F242040083868
:105020000322D34318400A4A8058002549578D0768
:10503000EE0EFF25B540A843009DAD01EDB2B54091
:1050400028432140083919408850FFE702B070BD5D
:105050001CED00E000E400E080B582B0012001908A
:10506000FFF728FF0198FFF725FF0198FFF788FF5A
:105070000198FFF785FF02B080BD000010B581B038
:1050800000200090FFE7009801281BDCFFE7009953
:105090000C221046484311490858009C13466343AC
:1050A000CB185860009B104658430B185868C00F27
:1050B00018720098424300208850FFE70098401C77
:1050C0000090E0E701B010BD82B00190009103486C
:1050D000416801910069009002B07047D407202018
:1050E000B0B582B091490191002008804880888045
:1050F0000A1D01240C81CC801523DB014B818881A2
:10510000C8811B252D020D8248820D46123500955F
:105110000225CD828C820B83488388831F20000266
:10512000C8830420085E0823C95EFFF731FE009A99
:1051300001991220085E1623C95EFFF729FE00F0D0
:1051400021FB0199086202B0B0BDC04677490888CA
:10515000888148884883704780B58EB07348006A5C
:105160000421405EC92803DBFFE7C8200D9015E04D
:105170006E48006A0421405EC821C943884204DCAD
:10518000FFE7C720C0430C9005E06848006A04218F
:10519000405E0C90FFE70C980D90FFE70D98FBF731
:1051A000DEFB634A634BFBF7E5FBFBF797F9014630
:1051B00061480B90006800F081FC0B9908605B4827
:1051C000006A0221405EC92803DBFFE7C8200A907D
:1051D00015E05648006A0221405EC821C943884252
:1051E00004DCFFE7C720C043099005E04F48006A90
:1051F0000221405E0990FFE709980A90FFE70A98AC
:10520000FBF7ADFB4A4A4B4BFBF7B4FBFBF766F9E8
:1052100001464A480890006800F050FC0899086070
:1052200045480068464900F0A5FB002803D1FFE788
:105230004348079011E040480068424900F08FFB66
:10524000002803D1FFE73F48069003E03A48006892
:105250000690FFE706980790FFE707983649086031
:1052600036480068384900F085FB002803D1FFE785
:105270003548059011E031480068344900F06FFB73
:10528000002803D1FFE73148049003E02B48006871
:105290000490FFE704980590FFE705982749086008
:1052A000254800682A4900F065FB002803D1FFE784
:1052B0002748039011E020480068264900F04FFB82
:1052C000002803D1FFE72348029003E01A48006852
:1052D0000290FFE702980390FFE70398FBF76EFC4C
:1052E0001249088015480068194900F043FB00285E
:1052F00003D1FFE71648019011E0104800681549F6
:1053000000F02DFB002803D1FFE71248009003E0D6
:105310000A4800680090FFE700980190FFE70198B5
:10532000FBF74CFC014948800EB080BD800720206F
:105330007B14AE47E17A743FF8072020FC07202059
:105340000000E1430000E1C30000E1440000E1C4CB
:105350000000E1450000E1C580B584B00020039065
:10536000FFF756F80D200190FFF754FD0198FFF765
:10537000CBFD0F480F21FDF793FB13200290FFF7A1
:1053800049FD0298FFF7C0FD62B6FFF74FFB00F042
:1053900029FAFFF7A5FEFDF7CBFEFEF7A9F8FEF709
:1053A00095F8FEF79BF8FFE7FFF702FAFCE7C04627
:1053B00000001040B0B596B004461B991A98159499
:1053C00013931292119110901599086B4A6BCA634E
:1053D00088631298139A1599CA65886515990A9178
:1053E000886DC96D109A119BFBF73FFA0A460A991E
:1053F0004A6308631599086B496B0F910E901599D4
:105400000B910A6B4B6B086A496AFBF721FA0A4653
:105410000B994A620862159B186B596B9A6BDB6B90
:10542000FBF723FA0D910C90159B186A596A1A6CB8
:105430005B6C00F07CFA002806D1FFE71599086C38
:105440004A6C4A62086216E0159B186A596A1A6C1F
:105450005B6C0124E407634000F05EFA002809D188
:10546000FFE715990A6C486C0123DB0758400A6274
:105470004862FFE7FFE7159B099318680390586897
:1054800004900E9801900F9802909868D9681A6A53
:105490005B6AFBF76FFA019A029B04460398059436
:1054A0000C4604990694FBF765FA059A069BFBF7F0
:1054B000CFF90790084609990890086949690C9A3C
:1054C0000D9BFBF757FA079A089BFBF7C1F90A46B1
:1054D0000999CA648864159B986CD96C1A6D5B6DC8
:1054E00000F025FA002806D1FFE71599086D4A6DEE
:1054F000CA64886416E0159B986CD96C1A6D5B6D54
:105500000124E407634000F007FA002809D1FFE70F
:1055100015990A6D486D0123DB0758408A64C864F9
:10552000FFE7FFE71599886CC96C16B0B0BDF0B500
:105530008FB000901B991A980190199802901898B2
:105540000390179D169C159F149E1C9800980E9012
:1055500001980D93029B0C92039A0B970A9609955A
:10556000089407930692059104900C980D9A0E9951
:105570004A6008600A980B9A0E99CA608860089879
:10558000099A0E994A6108610698079A0E994A6429
:1055900008640498059A0E994A6508651C98FBF7FB
:1055A000DEF90A460E99CA6588650FB0F0BD0000A5
:1055B00081B00090009800887D214901884204DB79
:1055C000FFE7009902480880FFE701B07047C04636
:1055D0009F0F000080B586B0014605A801700078D5
:1055E000049003282ED80498810001A040588746D3
:1055F0004356000017560000015600002D560000CB
:105600000120410603914248FDF768F803993F489D
:10561000FCF7A2FF21E00120410602913C48FCF783
:105620009BFF02993948FDF759F816E00120410621
:1056300001913748FDF752F801993448FDF74EF8CB
:105640000BE0FFE70120410600913148FCF784FFA1
:1056500000992E48FCF780FFFFE706B080BDC046EA
:1056600080B582B0014601A8018001882F48002240
:10567000FDF7F4F902B080BD80B586B0014605A8FB
:10568000017000780490032831D80498810001A0AB
:1056900040588746ED560000BD560000A556000054
:1056A000D55600000120039081031848FDF716F835
:1056B000039841041648FCF74FFF24E001200290B4
:1056C00081031248FCF748FF029841041048FDF797
:1056D00005F818E00120019081030C48FCF7FEFF5B
:1056E000019841040A48FCF7F9FF0CE0FFE70120AC
:1056F000009081030548FCF72FFF009841040448FF
:10570000FCF72AFFFFE706B080BDC04600000A4054
:1057100000200A4080B582B0014601A801800188BE
:1057200002480122FDF79AF902B080BD00008640D0
:1057300080B584B0039002A8018001A900200880F0
:10574000FFE701A8008802A90988884215DAFFE767
:10575000FFE70B48FDF70AFA002801D0FFE7F8E75A
:10576000039801A90988415C0548FDF76FFAFFE736
:105770000198401C01A90880E3E704B080BDC04641
:10578000000010401F48704782B04B480078AA289C
:105790001FD1FFE748484079BB281AD1FFE7EFF354
:1057A000108072B6019044490091487800028A78CE
:1057B0008018144A5080C87800020B79C018908075
:1057C00062B6002048710871C8708870487008700F
:1057D00005E037490020087036490870FFE702B03D
:1057E0007047C04680B582B00F200190FFF73AFBAA
:1057F0000198FFF79DFB03490020087048808880CE
:1058000002B080BD6E08202080B584B003A9087066
:10581000274800780290002804D0FFE7029801286A
:105820000FD03DE003A80078AA2809D1FFE703982C
:10583000214908701F49012008701D490870FFE7C1
:1058400034E003981B490B781B4AD0540878401C5D
:10585000087003A80078BB280DD1FFE71548007831
:10586000062808D1FFE71249002008701149087086
:10587000FFF78AFF13E00F48007806280ED3FFE7F2
:105880000B490020019008700A4908700A494871C4
:105890000871C870887048700870FFE7FFE705E07E
:1058A00003490020087003490870FFE704B080BD79
:1058B000670820206608202060082020F8B5040C26
:1058C0008BB2264682B25E43104658430D0C370C0D
:1058D000360400218019164679416E43370C360490
:1058E0008019264679416E438919F8BD4900CA02DC
:1058F0000243100000D004204A0D01D001221043C1
:10590000044A490D914201D102210843012800D1E6
:1059100005207047FF07000010B500F06BF8EFF3AB
:105920000080800001D5012010BD002010BD10B501
:1059300000F092F8EFF300804000800F012801D0C2
:10594000012010BD002010BD10B500F085F8EFF368
:105950000080800001D4012010BD002010BD10B5D2
:1059600000F0F2F8EFF30080800001D5012010BDB7
:10597000002010BD10B500F011F9EFF300804000D9
:10598000800F012801D0012010BD002010BD30384B
:105990000A2801D2012070470020704710B5002965
:1059A0000AD00878002807D005487844FCF7C8FCDE
:1059B000002801D0002010BD0248784410BD00002E
:1059C000761D00006E1D000010B500290AD0087871
:1059D000002807D005487844FCF7B2FC002801D025
:1059E000002010BD0248784410BD0000661D000074
:1059F0005E1D000070B501252D050C001C4310D460
:105A0000EC4206D4AC420AD4994200D070BD904218
:105A100070BDE94217D4EB4215D4994270BD89425A
:105A200070BDEC4206D5AC42F9D58B4200D070BDBA
:105A3000824270BD6D004C00EC4204D25C00EC422E
:105A400001D28B4270BD034C30B4FCF725F830BC5A
:105A500070BD00BF1900130470B501252D050C00A1
:105A60001C4310D4EC4206D4AC420AD4994200D074
:105A700070BD904270BDE94217D4EB4215D49942F3
:105A800070BD894270BDEC4206D5AC42F9D58B425F
:105A900000D070BD824270BD6D004C00EC4204D25B
:105AA0005C00EC4201D28B4270BD034C30B4FBF77A
:105AB000F3FF30BC70BD00BF1900160470B501259E
:105AC000ED0704004C4020D4441A01D2001B0919F0
:105AD000C60D4B00F2B2FF2A29D01B0E2CD00002BB
