:020000040000FA
:10000000780320208D010000910100009301000081
:1000100000000000000000000000000000000000E0
:10002000000000000000000000000000950100003A
:100030000000000000000000970100001D0F0000FC
:100040009B0100009B0100009B010000E90F0000E4
:100050009B0100009B0100009B0100009B01000030
:10006000000000009B0100009B0100000000000058
:1000700000000000C90F00009B010000A10F00005C
:100080009B0100009B0100009B010000310F00005C
:100090009B0100009B010000000000000000000028
:1000A0009B0100009B010000000000000000000018
:1000B0009B010000000000009B0100009B0100006C
:1000C00000F002F800F052F812A030C808382418E6
:1000D0002D18AC4201D100F049F80FCCA246AB4636
:1000E0000CA730CF2D1B083F3F197C427F1E544484
:1000F0002D090426F441641EAC4201D300F036F809
:100100000126334200D0FB1A3343984754465D46DC
:10011000DFE7000044180000641800000000000041
:10012000103A02D378C878C1FAD8520701D330C840
:1001300030C101D504680C60704700000000000069
:100140007047000000000000002300240025002666
:10015000103A01D378C1FBD8520700D330C100D583
:100160000B6070471FB51FBD10B510BD00F03EFA03
:100170001146FFF7F7FF01F099F900F056FA03B4C2
:10018000FFF7F2FF03BC00F0ABFA0000064800479F
:10019000FEE7FEE7FEE7FEE7FEE7FEE70348044969
:1001A000024A044B70470000C10000007802202082
:1001B00078032020780220207047704770470000A5
:1001C0000246C80FC00781434B0030B54B405B006F
:1001D0009B0D20D01923DB06C91801231B0599426A
:1001E00020DB0324A40704251346AB400BD3002BCC
:1001F00004D1EB0613409B00E34204D401246407BE
:10020000002312195941FF231B0599420BD2C90043
:100210000143500F09E0CB0204D501430803024318
:1002200005D0054830BDFF21C905084330BD08464B
:1002300007210905884330BD0000C07F1F22030C41
:1002400002D10F22000402D0030E03D004E00020EC
:10025000014670470002083A030F01D10001121F46
:10026000830F01D18000921E002801DB4000521E46
:10027000120551184205C012411810467047C10FAF
:10028000C90700D04042012292071143D6E701215D
:100290008907D3E7F0B58B4C0F09254689B0BD43DC
:1002A0007BD01D092646AE43FAD00E465E4027405D
:1002B000F60F3E43254071D024012142FBD0FF249C
:1002C000AD19A4042D1B039501252D05DB02DB0AC6
:1002D000C9022B43C90A29431E010901040F130F48
:1002E000050121431701880B820391432D098C4698
:1002F000A90B1E438A039543B30B9A0396433F0908
:10030000BA0B9403A74302962E467E430497B64643
:100310004E19D7190C460196544305977E43371B57
:100320007646BF1B3601B646BE0B3619009676469A
:10033000BC043719009C01D3641C00946400002F96
:1003400001D001263443029E049F754366467E43D6
:100350000496760034196E0034190094029C019EB4
:100360001C196643751BAE46069465464519059CE7
:1003700005956C43594375460891691A0191049E8D
:1003800001465143A41B0491611A009C0791E106A8
:1003900005D061090122114302E072E06EE06109BB
:1003A000089D00272C0A2D066918049D7C412A0A05
:1003B0002D066918019D6241AC0DAD026D185441C6
:1003C000079A910D920255196141029A6446584369
:1003D0005443069B059A5A43121A131B9A0E9B010B
:1003E0005B187A41010B0005C3185141220A20060F
:1003F00044195A419A4200D2491C012040028142CC
:1004000003D315230226F64302E014230326F64302
:100410002020C51AA9401746AF40DA400A432046BB
:100420000399D8400914731819055118039A3843D1
:10043000D2075140AC4009D00122944006D300229B
:10044000401C5141002C01D1400840001E4A9342FB
:1004500012D3012203989206904207DB0520400741
:1004600009181A480143C012414004E00320400724
:100470000818C10FC907002009B0F0BD0020F1071E
:10048000FAE705180C464C4111486D42A04115D3BE
:1004900094181A465A410E48644290410ED30120E6
:1004A0004A004005824209D35A00824206D359408D
:1004B000C90F084AC90700201143DDE7002006499B
:1004C000DAE700000000FF07FE070000FFFFFF7FE4
:1004D0000000E0FF0000F07F0000F87F10B501464B
:1004E0009E240002CA15A307002A02D01843002A3E
:1004F00004DBA21A002A0CDDD04010BD1206120E39
:1005000001D140004008A21A03D4D0404042002844
:10051000F3DDFF2248001206904201D9002010BDF1
:10052000C817C043584010BD1F22030C02D10F2230
:1005300000041CD0030E01D10002083A030F01D1C0
:100540000001121F830F01D18000921E002801DBE1
:100550004000521ED2055118021251181922904023
:1005600004D3491C002801D14908490008467047B6
:10057000C10FC90700D04042012292071143D3E7BF
:1005800001218907D0E7000010B5FF231B064400B6
:100590009C421DD84C009C421AD80346124A0B4379
:1005A00007D4401A02D3EFF3008010BDEFF30080B0
:1005B00010BD081A03D3EFF30080904305E0EFF37A
:1005C000008001219043C907084380F3008810BDD3
:1005D0000D231B041A4204D01146002000F02DF810
:1005E00010BD00F041F810BD00000090754600F00D
:1005F00043F8AE46050069465346C008C00085462C
:1006000018B020B5FFF7CAFD60BCB646002600272B
:10061000C0C5C0C5C0C5C0C5C0C5C0C5C0C5C0C5B2
:10062000403D490849008D46704710B50446C04614
:10063000C0462046FFF7A3FD10BDC80212D54803EF
:10064000400F002804D0C803C043012188407047F0
:10065000EFF300800001000903210907084380F33C
:10066000008870470020704710B5024800F008F875
:1006700010BD00000000C07F004870470800202027
:1006800010B50C461107090F092904D00A290AD010
:1006900008290CD104E011460820FFF7CEFF06E040
:1006A000510606D501E0510601D50120C0072146BB
:1006B00010BDD10607D501010909CC084907000E74
:1006C0000006044309E0410F20024907000A0143E4
:1006D000200E00061D22D14101430846E7E7000035
:1006E00001491820ABBEFEE7260002007047811EBC
:1006F000091F00BFFCD2704770B50A780C231A405E
:100700000124240305196E689E43B2186A60497873
:1007100007221140035993435918015170BD00003D
:10072000F0B57A4A82183B4BC31808794E793A4D96
:10073000784C002E23D0202804D00526F60100286E
:1007400003D003E0354E002800D18826576F2F4094
:1007500037435767976F2F4037439767566B26404D
:100760005663966B264096630026566596658F26DF
:10077000F6435F6837405F609F6837409F608E79BF
:10078000096820280BD0002819D1491E5160D76E66
:100790002F4088210F43D7661746703719E0491E4E
:1007A0005160D16E29401D4F3943D166116F2940E8
:1007B0003943116701214907194D174609E04908D6
:1007C0005160D76E2F400521C9010F43D7661746E8
:1007D00070373C682C400C433C60D16A4D4C214042
:1007E000D162116B214011630021D16411658F2109
:1007F000C943D46F0C40D4671C680C401C6006438E
:10080000BD2030401168074B0B40C018801C1060A1
:10081000F0BDC0468418000024493E0001040000D9
:10082000FFFFFFCF4000FFCFB0B54A68364BC25044
:10083000364A80180A78222A58D8930001A4E3582F
:100840009F46C046E3080000ED080000E3080000F2
:10085000ED080000ED080000ED080000ED080000C4
:10086000ED080000ED080000ED080000ED080000B4
:10087000ED080000ED080000ED080000ED080000A4
:10088000ED080000D1080000ED080000D1080000CC
:10089000ED080000ED080000ED080000ED08000084
:1008A000ED080000ED080000ED080000ED08000074
:1008B000ED080000ED080000ED080000ED08000064
:1008C000ED080000D1080000ED080000D10800008C
:1008D00003231B0704689C4301235B07E3180360A1
:1008E00004E003231B0704689C4304600B69C36096
:1008F000CB68074C1C40C36A064D1D402B19C362D0
:10090000097A11430160B0BD081800000418000006
:10091000777702008888FDFF10B507239B041940F4
:1009200092008018024A84589C436118815010BD7F
:100930003018000010B5029CA4000019114319439F
:10094000014A815010BDC046501800009200801826
:10095000014A81507047C0461018000010B50122AE
:10096000120383180C789C604B7883508978014A75
:10097000815010BD0C110000B0B511221202835835
:100980000124A34383500B888C781C438B8823431A
:10099000094C1C408358094D1D40631983508B79C5
:1009A000CC791C43097A21437E2319408018426880
:1009B0009A4351184160B0BD18670000E798FDFFE9
:1009C00010B50122120383180C789C60497881507D
:1009D00010BD000070B5234C217802291AD00129DE
:1009E0000AD0002911D1552813D11F4801210170C7
:1009F0001E48552202700BE0532806D11A480221E6
:100A000001701A485322427002E017480021017019
:100A1000217070BD144D2A7814498854501C2870D8
:100A2000C0B20B28F5D3CA79887983180E7A9B193E
:100A30004E7A9B19583BDBB2897A8B420ED1144E09
:100A40000121317011020818FFF79AFD0721C9062C
:100A500000F090FE064900F08DFE706000202870C6
:100A6000207070BD740020207300202068002020BA
:100A70000000344304480821016004480160044830
:100A8000002141600170704780E200E000E100E079
:100A90005002202070B5214985228A640124230256
:100AA0001F480360CA64620202601E4AD51C1E4BC6
:100AB0001D605D6064061D6825431D605D682543FB
:100AC0005D6082250D64194C4C648D604C610D672E
:100AD0004C6781259D655D651D649D63CA620A63DF
:100AE0004A639A605A630A611A65DA62CA605D6491
:100AF0009D649D621E46083E35605D61641E4C60CB
:100B00000C60CA67143B1A6001463039084A0A6013
:100B10000260084808490160016370BD04804240DA
:100B2000D0120A4081000C009880424082000400EC
:100B30000040000FA0320A400000120380B51148A7
:100B40001149FFF7D9FD03204102104802680A430A
:100B5000026001210A02036813430360002242611C
:100B600007224262836B934383631202836B934336
:100B70008363826A042313438362826A0A43826224
:100B800080BDC04600200F40F418000000320F4026
:100B900070B582B01B4C1C492046FFF7DFFE1B4995
:100BA0002046FFF7BDFD1A4801681A4A0A40026054
:100BB00000250095204629462A462B46FFF7BAFE17
:100BC000204629462A46FFF7A7FE204629462A4600
:100BD000FFF7BCFE01260096204629462A462B46F2
:100BE000FFF7A8FE204629463246FFF795FE20462D
:100BF00029463246FFF7AAFE0748866003210160B6
:100C000002B070BD00008640F6180000FC1800001D
:100C1000041886407F00FFFF001186400C48002129
:100C200001600320C1430B480246083A13680B4099
:100C300013600168012291430160110203688B4334
:100C400003601103001F02680A4302607047C04638
:100C500008030B4008010B40084809494160FF2187
:100C60000906084A13688B43032189075918116044
:100C700000218160072101607047C04610E000E05C
:100C8000FF7C000020ED00E010B50B4C0B49204626
:100C9000FFF764FE0A492046FFF7C6FD09480168D0
:100CA000012211430160FF20000407490B688343C0
:100CB0000B600648026010BD0000094004190000E6
:100CC000081900002810094000E400E0081109405C
:100CD00010B5084C08492046FFF740FE074920465A
:100CE000FFF7A2FD06480168012211430160054893
:100CF000026010BD002086401C1900002019000071
:100D0000283086400831864010B5154C15492046DC
:100D1000FFF756FE14492046FFF72EFE0321CA03B3
:100D200012480368934303600269474B13409A1CBF
:100D3000026142690B2313433422934343614268A7
:100D400001231A4044689C43A21842608902084A61
:100D500014680C43146001681943016010BDC0465B
:100D60000080104034190000361900000091104036
:100D70002890104010B5154C15492046FFF720FE6D
:100D800014492046FFF7F8FD0321CA0312480368FF
:100D90009343036002692C4B13409A1C0261426921
:100DA0000B231343342293434361426801231A40C7
:100DB00044689C43A21842608902084A14680C43A4
:100DC000146001681943016010BDC0460000104066
:100DD0004019000042190000001110402810104076
:100DE00010B5154C15492046FFF7EAFD1449204679
:100DF000FFF7C2FD0321CA0312480368934303604F
:100E00000269114B13409A1C026142690B23134380
:100E1000342293434361426801231A4044689C434F
:100E2000A21842608902094A14680C4314600168E0
:100E30001943016010BDC046000050404C1900002D
:100E40004E190000001150400000FFFF28105040D4
:100E500080B500F025F8FFF71DFEFFF7DFFEFFF776
:100E600097FEFFF735FFFFF70FFFFFF767FEFFF76E
:100E700081FFFFF749FFFFF7B3FFFFF7EDFEB82053
:100E8000044900220A5404490A542C2003490A54F4
:100E900080BDC0463C01202080002020F801202099
:100EA000F0B581B01248134A4260134842601348BB
:100EB0004260134C6260134D6A60134E7260134FB0
:100EC0007A6013494A6013484260134A084B1A601B
:100ED000094B1A60094B1A6022602A6032603A603E
:100EE0000A6002601020FFF702FC01B0F0BDC046AE
:100EF00000080A40030000B100280A4000088640AC
:100F0000002886400008094000280F4000081040D3
:100F10000088104000085040010000260348016886
:100F2000002902D00168491E016070477C00202022
:100F3000F0B581B016480068C0B2012825D100F094
:100F40002BFA14480688868147884783124C2578F7
:100F5000002D09D01621435E1E21425E1821415EFC
:100F60001230009038B208E00821435E1021425E42
:100F70000A21415E001D009030B200F049F80120C6
:100F8000C104064A11604540257001B0F0BDC0465D
:100F900020308640280220207700202080E200E0D8
:100FA00080B506480068C0B20B2806D10448006826
:100FB00004490870087800F007FB80BD20901040BD
:100FC000249110406802202004480068C0B20B2819
:100FD00003D103480068034908707047201010408F
:100FE000241110406902202080B506480068C0B274
:100FF0000B2806D10448006804490870C0B2FFF706
:10100000E9FC80BD20105040241150406A0220208D
:10101000F0B5059F01247C803D88002D00D0F0BDF7
:10102000864D2A70864E3270864E3170002800DC64
:1010300000247C81844E3470090A844C217091B262
:101040000C0A83490C70834A147004B2E4136040A4
:10105000001B3881804C2070040A804F3C7000B225
:10106000C0137F4C20707F4F3870AC480468E40791
:1010700008D00468E40705D00468E40702D00468D7
:10108000E407F3D1DBB283610368DB0708D00368B0
:10109000DB0705D00368DB0702D00368DB07F3D169
:1010A000FD2383610368DB0708D00368DB0705D0F5
:1010B0000368DB0702D00368DB07F3D13378836171
:1010C0000368DB0708D00368DB0705D00368DB078C
:1010D00002D00368DB07F3D1097881610168C90791
:1010E00008D00168C90705D00168C90702D00168A6
:1010F000C907F3D1297881610168C90708D001685F
:10110000C90705D00168C90702D00168C907F3D132
:10111000117881610168C90708D00168C90705D045
:101120000168C90702D00168C907F3D144490978A9
:1011300081610168C90708D00168C90705D0016845
:10114000C90702D00168C907F3D140490978816114
:101150000168C90708D00168C90705D00168C90737
:1011600002D00168C907F3D1364909788161016865
:10117000C90708D00168C90705D00168C90702D0AE
:101180000168C907F3D13649097881610168C90747
:1011900008D00168C90705D00168C90702D00168F5
:1011A000C907F3D1397881610168C90708D001689E
:1011B000C90705D00168C90702D00168C907F3D182
:1011C0002649097881610168C90708D00168C90703
:1011D00005D00168C90702D00168C907F3D11E49CB
:1011E000097881610168C90708D00168C90705D07D
:1011F0000168C90702D00168C907F3D101218161E3
:101200000168C90708D00168C90705D00168C90786
:1012100002D00168C907F3D1002181610168C907C3
:1012200008D00168C90705D00168C90702D0016864
:10123000C907F3D16B218161F0BDC04603002020B6
:10124000050020200700202002002020060020208A
:101250007900202004002020010020200000202010
:101260007A002020780020201080002800D07047CD
:101270002A480268D20708D00268D20705D002685F
:10128000D20702D00268D207F3D1C9B281610168E6
:10129000C90708D00168C90705D00168C90702D08D
:1012A0000168C907F3D1F32181610168C90708D03A
:1012B0000168C90705D00168C90702D00168C907DC
:1012C000F3D1AB2181610168C90708D00168C90762
:1012D00005D00168C90702D00168C907F3D101210F
:1012E00081610168C90708D00168C90705D0016894
:1012F000C90702D00168C907F3D1002181610168E3
:10130000C90708D00168C90705D00168C90702D01C
:101310000168C907F3D16B21816170470811104042
:10132000074908600868002808D00868002805D028
:101330000868002802D008680028F3D17047C0462A
:101340007C002020F0B581B04D4C0020104A1B21BC
:101350000D0201210E041F273F061523DB0141C4A6
:1013600022606060A5600B4A083C254614358CC598
:10137000221DFFF779FF1620215E1220205E2246F3
:101380001232FFF771FF00F00DF9206201B0F0BDDD
:101390000100800A01000200F0B581B03848066AF9
:1013A0000420305E7F21CC05C721CF43C8282546C5
:1013B0000CDCB84201DA334D08E0FEF760FF324A38
:1013C000324BFEF767FFFEF7FBFE05460220305E5C
:1013D0002F490E68C8280CDCB84201DA294C08E015
:1013E000FEF74DFF284A294BFEF754FFFEF7E8FEB3
:1013F00004462846314600F04DF90646254D29465B
:1014000000F03CF9002800D13546234E28463146ED
:1014100000F034F9002800D135461D4805601F4F03
:101420003968204600F036F906461D4C214600F08A
:1014300025F9002800D134461A4E2046314600F0E6
:101440001DF9002800D134463C60174E284631462D
:1014500000F014F90028304600D12846FFF73EF886
:10146000074D28802046314600F008F9002800D1B9
:1014700026463046FFF732F8688001B0F0BDC0461E
:1014800028022020000080BF7B14AE47E17A743F21
:10149000580220200000E1C30000E1435C0220204C
:1014A0000000E1C40000E1440000E1C5FFF7D0FC0A
:1014B00001204103424A1160424B19600A490C68FD
:1014C0000F2525430D60C0041060186000F06CF813
:1014D000FFF738FF00F00AF8FFF7CCFA0A20FFF711
:1014E0001FFF00F009F8F9E7281010402A480021F2
:1014F000417001707047C046F0B581B00025264F9D
:101500007A576321C843824200DC02466423642A7E
:10151000114600DB1946397001243E57864200DC33
:101520000646642E00DB1E467E701C4F012A05DB3A
:1015300000223846FFF70AFA254606E00A0623D0BD
:10154000494201223846FFF701FA00263846314663
:101550002A46FFF7FBF910480157114C012905DB1A
:1015600000222046FFF7F2F9012606E000290FD0FD
:10157000494201222046FFF7E9F900212046324680
:10158000FFF7E4F901B0F0BD002138460A46D1E783
:10159000002120460A46E5E775002020004008406B
:1015A00000808640344870470120C0030449086029
:1015B00004490860304800218180418001707047F3
:1015C00080E200E000E100E010B528490A78012A35
:1015D0000BD0002A34D1AA2836D125480122027026
:1015E0002448AA2303700A7010BD214B1C78214A9D
:1015F00010551C78641C1C70BB2826D1187806284E
:1016000023D10020087018701478AA2C2AD154799C
:10161000BB2C27D1EFF3108172B6917853781B025F
:101620005918154B59801179D47824026118998082
:1016300062B650711071D07090705070107010BD03
:10164000002008700A49087010BD18780628FBD3DE
:1016500000200870107050709070D0701071507130
:10166000187010BD0870187010BDC04667022020A9
:1016700066022020600220206C02202010B500F0BD
:101680004FF8EFF30080800001D4012010BD00204E
:1016900010BD000070B50125ED0704004C4020D4BA
:1016A000441A01D2001B0919C60D4B00F2B2FF2AE1
:1016B00029D01B0E2CD000020C0228432C43D31A35
:1016C000DC40051910D2280A02D3401C6D0611D047
:1016D000761EF6058019FF2A00DA70BDC00DC00520
:1016E00070BD694000F0A4F801200543C541521CBB
:1016F000761CE8E764089C40C90161408900E7D195
:101700000124A043E4E71B0E440200D0034870BD4F
:10171000002AFCD1C00FC00770BD00BF0000C07F11
:101720000123DB0502000A430DD4DA4203D49A42B6
:1017300007D488427047D84214D4D94212D4884280
:10174000704780427047DA4203D59A42F9D5814208
:1017500070475B004200DA4204D24A00DA4201D20A
:101760008142704710B5024AFEF70EFF10BD00BF60
:101770000900160470B5420064414B005C41120E32
:1017800039D01B0E38D0FF2A3CD0FF2B3AD0D218CC
:101790007F3A40024902400A490A4518ED01060015
:1017A0004E43000A090A48430104731A4019190CF0
:1017B0004318990F04D05B08012149075B1A521C9A
:1017C000D80904D3401CF50301D19D0607D0FF2A98
:1017D00008D2D50506D0E4072043401970BD012585
:1017E000A843F4E7002A01DCE00770BD2402FF20D3
:1017F0002043C00570BD1B0EFF2A03D0FF2B01D074
:10180000E00770BDFF2636064500B54206D84D00FC
:10181000B54203D8D218FF2A00D0E7E7004870BDD0
:101820000000C07F70B50125ED0704004C4022D4B4
:10183000441A02D26C40001B0919C60D4B00F2B2CB
:10184000FF2A4BD01B0E50D000020C02A8432C43A1
:10185000D31ADC40051B05D5AD0019D36D08761EE3
:10186000521E37D0F605280A01D2801970BD70418A
:101870006D0603D070BD6940FFF712FF9C4009025E
:101880006140490001D0401E70BD0124A04370BDDD
:101890006D081DD001202B0C01D12D0410302B0E12
:1018A00001D12D0208302B0F01D12D01001DAB0FEE
:1018B00001D1AD00801CEB0F01D16D00401C361A28
:1018C000121A6D00680AF5054019012A02DB70BD85
:1018D000002070BDC036300AC00770BD1B0E440228
:1018E00001D1FF2B00D1024870BD002AF0D070BD9D
:1018F0000000C07F0800080000000000A00F0000EA
:101900002001010008006300020000007F0C0000BD
:101910000100000000000000000000000807630054
:1019200002000000C70000000100000000000000ED
:10193000000000000400000018000000003000005B
:101940000400000018000000003000000400000047
:10195000180000000030000078190000000020206E
:10196000080000002001000080190000080020206D
:1019700070030000480100008CA001FF01FA27104D
:04000005000000C136
:00000001FF
