:020000040000FA
:10000000400B2020690200006D0200006F0200001A
:1000100000000000000000000000000000000000E0
:10002000000000000000000000000000710200005D
:10003000000000000000000073020000F54C00000A
:100040007702000099270000894D0000055200004A
:1000500077020000770200007702000077020000BC
:10006000000000007702000077020000000000009E
:1000700000000000E551000077020000BD510000C3
:10008000770200007702000077020000094D0000AF
:10009000770200007702000000000000000000006E
:1000A000770200007702000000000000000000005E
:1000B00077020000000000007702000077020000D5
:1000C00000F002F800F0C1F812A030C80838241877
:1000D0002D18AC4201D100F0B8F80FCCA246AB46C7
:1000E0000CA730CF2D1B083F3F197C427F1E544484
:1000F0002D090426F441641EAC4201D300F0A5F89A
:100100000126334200D0FB1A3343984754465D46DC
:10011000DFE700009C760000BC76000000000000D5
:100120007047000000000000002300240025002686
:10013000103A01D378C1FBD8520700D330C100D5A3
:100140000B60704710B56E2902D100F013FE10BD90
:10015000702902D100F04DFF10BD662902D105F0D3
:100160006FFE10BD652902D105F06AFE10BD67293A
:1001700002D105F065FE10BD612902D105F068FECF
:1001800010BD03681B0A01D380231943692902D1DA
:1001900000F0BAFD10BD642902D100F0B5FD10BD1C
:1001A000752902D100F0B0FD10BD6F2902D100F019
:1001B000CBFE10BD782902D100F008FF10BDE9295F
:1001C00002D100F067FE10BDE42902D100F062FE0A
:1001D00010BDF52902D100F05DFE10BDEF2902D15E
:1001E00000F0BEFE10BDF82902D100F0FDFE10BDEA
:1001F0000368DB0901D380231943632902D101F08D
:10020000E0FB10BD732902D101F0E3FB10BDE3292F
:1002100002D101F0EDFB10BDF32902D101F0F0FB9A
:1002200010BD002010BD1FB501F0CEFC0400002061
:10023000002105F05BFC401C60600020002105F0FF
:100240003FFCE0601FBD10B510BD01F095FC1146EC
:10025000FFF7E9FF05F040FA02F02AF803B4FFF7D0
:10026000F2FF03BC02F0E2F806480047FEE7FEE7B3
:10027000FEE7FEE7FEE7FEE703480449024A044BB7
:1002800070470000C1000000400A2020400B2020E1
:10029000400A20201CB50C46064B7B446946009062
:1002A000204600F080FD04460020694600F08EFDE7
:1002B00020461CBD2F0B0000002203098B4273D384
:1002C000030A8B4258D3030B8B423CD3030C8B4263
:1002D00021D312E003460B437FD4002243088B4214
:1002E00074D303098B425FD3030A8B4244D3030BBD
:1002F0008B4228D3030C8B420DD30902FF2212BA82
:10030000030C8B4202D31212090265D0030B8B42FD
:1003100019D300E0090AC30B8B4201D3CB03C01AE7
:100320005241830B8B4201D38B03C01A5241430BC2
:100330008B4201D34B03C01A5241030B8B4201D3B2
:100340000B03C01A5241C30A8B4201D3CB02C01A1D
:100350005241830A8B4201D38B02C01A5241430A95
:100360008B4201D34B02C01A5241030A8B4201D384
:100370000B02C01A5241CDD2C3098B4201D3CB012B
:10038000C01A524183098B4201D38B01C01A5241DA
:1003900043098B4201D34B01C01A524103098B42DE
:1003A00001D30B01C01A5241C3088B4201D3CB00C9
:1003B000C01A524183088B4201D38B00C01A5241AC
:1003C00043088B4201D34B00C01A5241411A00D25C
:1003D00001465241104670475DE0CA0F00D04942C5
:1003E000031000D3404253409C46002203098B4235
:1003F0002DD3030A8B4212D38901FC2212BA030ABD
:100400008B420CD3890192118B4208D3890192113E
:100410008B4204D389013AD0921100E08909C309C3
:100420008B4201D3CB01C01A524183098B4201D3C5
:100430008B01C01A524143098B4201D34B01C01AB0
:10044000524103098B4201D30B01C01A5241C30828
:100450008B4201D3CB00C01A524183088B4201D397
:100460008B00C01A5241D9D243088B4201D34B00B2
:10047000C01A5241411A00D2014652411046634609
:100480005B1001D34042002B00D5494270476346C0
:100490005B1000D3404201B50449002802DC491C2E
:1004A000084000E00846C046C04602BDFFFFFF7F8F
:1004B00070477047704700000246C80FC00781436D
:1004C0004B0030B54B405B009B0D20D01923DB0661
:1004D000C91801231B05994220DB0324A407042526
:1004E0001346AB400BD3002B04D1EB0613409B000B
:1004F000E34204D401246407002312195941FF2365
:100500001B0599420BD2C9000143500F09E0CB02F1
:1005100004D501430803024305D0054830BDFF213F
:10052000C905084330BD084607210905884330BD89
:100530000000C07FF0B50C46871A9C410D46861A14
:100540009D4103D2C01BA141D21963410D0D1F0D66
:10055000C94EEC1BAE435CD07F057F0D0026002FFB
:1005600051D02D05AC46A943DD020123ED0A1B0540
:100570001D4320231B1B24D41746E7403818714124
:100580002F46E740CC199D402818314661410C0D9B
:1005900027D161449A4013D50023401C5941520091
:1005A0000ED14008400001224B005205D34207D330
:1005B00005204007C14201D5B04900E0B0493046AE
:1005C000F0BD6B00002A00D001229A181F23203CA6
:1005D0001B1B01D5002302E0E540281871410C0DDA
:1005E000D7D0012424050919C407CD0740084908BC
:1005F000E40F28436144002CD5D00024401C614105
:100600009A40D0D1CDE76A05520DD9D1C90FC9079B
:10061000D5E79C4D4E00002801D0012400E00024C5
:1006200034195F00002A01D0012600E00026BE191F
:10063000954FAC420CD8AE420AD8B44206D0012540
:100640006D05EC42BCD010461946F0BD9942FCD075
:1006500000203946F0BDF0B51FB40C460F46811A94
:100660009F412546861A9D4106D20125ED076F4020
:10067000401ABC4152187B41210D1E0D8D1BAC460A
:100680007D4D8D437ED075056D0D7CD00D05AE463C
:10069000AC431B031B0B794D52429D412023664600
:1006A0009B1B14D31746F74038180026009074415E
:1006B00060462F460741E41900989D40281866417E
:1006C00016D4714671189A4025D5012320E093185D
:1006D0002A466A415200002B00D0521C1E23203EA5
:1006E0009B1B002B61DD3541EE1728186641E8D5CC
:1006F000001876415B1C9A4000D3401C4B05F31850
:100700001524E34010D3002B52D071467118D30F3B
:10071000C01802D3491C05B0F0BD0123DB079A4283
:10072000F9D140084000F6E701225205B21801D184
:10073000002853D00123CC0ADB029943891E002AEA
:1007400008D1020C03D0020C0004103902E002466A
:10075000002020390023550B05D112020823550B28
:1007600001D152010D23550C01D112011B1DD50CD5
:1007700001D192009B1C150D01D152005B1C20255C
:10078000EE1A01E02CE022E00546F54015439840C2
:10079000CA1AE10769181305C918002ABBDA032031
:1007A00040070818C10FC9070FE071466118B2E78A
:1007B000F10740080843711071444A000CD001232E
:1007C0005B059A42A7D2C90FC9070020A3E74905D4
:1007D000490D26D1002001E00028F4D100219AE73C
:1007E000284D6600002801D0012100E00021711889
:1007F0005F00002A01D0012600E00026BE19224F2A
:10080000A94210D8AE420ED8B14208D001256D05DC
:10081000E94206D01946A802414010467BE79C42B7
:1008200001D0214677E70020394674E710B50C4621
:100830005C4005D50124E4076340FFF70CFF10BDC1
:10084000FFF778FE10BD30B40C465C4004D501249F
:10085000E407634030BC6DE630BCFCE670B50124B3
:10086000E40761400D465D4002D4FFF763FE70BDB2
:100870006340FFF7F0FE70BDFF0700000000F0FFCF
:100880000000F07F0000E0FF0000F87F30B5034675
:10089000CA02400D1043164D164C0A1502D02043D3
:1008A000002A06DBAA1A002A12DDD040FF2A0BDC40
:1008B00030BD5205520D01D140004008AA1A07D49C
:1008C000D0404042FF2A01DD002030BD0028FCDD81
:1008D0004A00002B01D0012000E000201018012266
:1008E0005205D042F0D8C817C043604030BD000068
:1008F0001E040000000000801F22030C02D10F2202
:10090000000402D0030E03D004E00020014670472B
:100910000002083A030F01D10001121F830F01D119
:100920008000921E002801DB4000521E1205511863
:100930004205C012411810467047C10FC90700D0C8
:100940004042012292071143D6E701218907D3E7EC
:10095000F0B58B4C0F09254689B0BD437BD01D09EE
:100960002646AE43FAD00E465E402740F60F3E4381
:10097000254071D024012142FBD0FF24AD19A404ED
:100980002D1B039501252D05DB02DB0AC9022B4334
:10099000C90A29431E010901040F130F0501214350
:1009A0001701880B820391432D098C46A90B1E4326
:1009B0008A039543B30B9A0396433F09BA0B9403FA
:1009C000A74302962E467E430497B6464E19D71982
:1009D0000C460196544305977E43371B7646BF1B52
:1009E0003601B646BE0B361900967646BC0437195A
:1009F000009C01D3641C00946400002F01D00126E8
:100A00003443029E049F754366467E4304967600F7
:100A100034196E0034190094029C019E1C1966431F
:100A2000751BAE46069465464519059C05956C43B5
:100A3000594375460891691A0191049E0146514334
:100A4000A41B0491611A009C0791E10605D061097D
:100A50000122114302E072E06EE06109089D002767
:100A60002C0A2D066918049D7C412A0A2D06691856
:100A7000019D6241AC0DAD026D185441079A910D74
:100A8000920255196141029A644658435443069BA9
:100A9000059A5A43121A131B9A0E9B015B187A414E
:100AA000010B0005C3185141220A200644195A417E
:100AB0009A4200D2491C01204002814203D31523EF
:100AC0000226F64302E014230326F6432020C51A2B
:100AD000A9401746AF40DA400A4320460399D84060
:100AE0000914731819055118039A3843D207514055
:100AF000AC4009D00122944006D30022401C514151
:100B0000002C01D1400840001E4A934212D301221A
:100B100003989206904207DB0520400709181A48FF
:100B20000143C012414004E0032040070818C10FF0
:100B3000C907002009B0F0BD0020F107FAE7051849
:100B40000C464C4111486D42A04115D394181A46E9
:100B50005A410E48644290410ED301204A0040059C
:100B6000824209D35A00824206D35940C90F084A2B
:100B7000C90700201143DDE700200649DAE700003D
:100B80000000FF07FE070000FFFFFF7F0000E0FFFF
:100B90000000F07F0000F87F10B501469E2400029F
:100BA000CA15A307002A02D01843002A04DBA21AA0
:100BB000002A0CDDD04010BD1206120E01D14000FB
:100BC0004008A21A03D4D04040420028F3DDFF229F
:100BD00048001206904201D9002010BDC817C0433A
:100BE000584010BD1F22030C02D10F2200041CD05C
:100BF000030E01D10002083A030F01D10001121FB8
:100C0000830F01D18000921E002801DB4000521E9C
:100C1000D2055118021251181922904004D3491CD0
:100C2000002801D14908490008467047C10FC9078B
:100C300000D04042012292071143D3E701218907E6
:100C4000D0E770B5044685690068C10601D5302635
:100C500000E02026C00707D070BD62683046A1685A
:100C60009047206A401C20626D1EF6D570BD70B59D
:100C7000044685690078C00707D170BD6268A16825
:100C800020209047206A401C20626D1EF6D570BD62
:100C900009684A0501D540B27047C905FCD500B2C4
:100CA000704709684A0501D5C0B27047C905FCD52F
:100CB00080B2704770B50C460546012A05D02878E9
:100CC000800600D5EA69002302E0012305E05B1CF1
:100CD000934202D2E05C0028F9D1A869E618C01A54
:100CE000A861286AC01828622846FFF7AAFF04E016
:100CF0006A682078A968641C9047B442F8D32846F3
:100D0000FFF7B5FF70BD0000F7B500257529106825
:100D1000009914A611D0FFF7BBFF002802DA404269
:100D200011A608E0009909688A0701D50FA602E01C
:100D3000490704D50EA6012501E0FFF7B2FF009F89
:100D40000024243704E000F080FE30313955641C63
:100D50000028F8D12B4632462146009800F057FA79
:100D6000FEBD0000000000002D0000002B00000070
:100D70002000000011680268006A530501D5087060
:100D800009E0D30501D5088005E0130602D5C21796
:100D900005C100E0086001207047000001694A1C9D
:100DA00002610878704700B58FB00291002105916B
:100DB000054901937944039111460490684600F077
:100DC00025F90FB000BD0000E5FFFFFF0A681070B5
:100DD000521C0A6070470000F7B50446154686B0FD
:100DE0002B487844002703C83E460090019111E04B
:100DF00007986A467100415A02A800F005FE411C9E
:100E000007D02178890603D5E269391891420ED8B6
:100E10003F18761C2078800602D5E069B84206DDCE
:100E2000AE42E5DB07987100405A0028E0D1A06986
:100E3000C01BA0612046FFF704FF154878445A38CC
:100E400003C800900020019116E041006A4607980F
:100E5000415A02A800F0D8FD0590401C0AD0002598
:100E600005E0626802A8A168405D90476D1C059886
:100E70008542F6D30498401CB0420490E5DB206A1A
:100E8000C01920622046FFF7F2FE09B0F0BD000055
:100E90007A500000F7B5D21D0025D20815A6D20061
:100EA000F52905CA11D0002A05DA002140429141F6
:100EB00011A60A4608E0009909688B0701D50FA61C
:100EC00002E0490701D50EA601251146009F002426
:100ED000243704E000F05EF930323A55641C0246D3
:100EE0000A43F7D12B4632462146009800F08FF98D
:100EF000FEBD0000000000002D0000002B000000DF
:100F00002000000070B504460021243408E0550795
:100F1000D2086D0F303565545D072A43DB08491C44
:100F200015461D43F3D10468002310A2250708D5F8
:100F300020252C400C4304D0C46901230CA2641E5C
:100F4000C46100F064F970BD10B504462146106814
:100F5000FFF7A7FE002302462046FFF7D3FF10BD90
:100F6000D21DD108C9000CC9CCE700000000000068
:100F700030000000F8B50F460188090502D5224C63
:100F80007C4402E0204C7C440E340546002124358C
:100F900008E016071209360FA65D6E541E0732438D
:100FA0001B09491C16461E43F3D122460478002330
:100FB000240705D5702F06D0002901D00223113255
:100FC00000F025F9F8BD01231032F9E770B50446A9
:100FD0000D4621461068FFF764FE002302462946AD
:100FE0002046FFF7C7FF70BDD21DD308DB000CCB36
:100FF000C0E730B403682024126823430360082349
:10100000C36130BC0023B5E7E44E0000F3B50446ED
:10101000002081B020622046E1688847002872D015
:10102000252802D06268A168ABE0594F00267F44B2
:101030002046E16888472028054608DB312D06D286
:10104000781920380078002801D00643F0E7B0076F
:1010500001D5042086430020E0610746A0612A2DC7
:101060000AD0284604F024FD002827D0B800001933
:10107000303D0090856119E00298BA00121902C84B
:10108000916102902046E1688847012F054617D1FB
:10109000E06900281FDA202086431CE000980A211E
:1010A0008069484300994019303888612046E168DA
:1010B0008847054604F0FCFC0028EFD1012F0AD038
:1010C0002E2D08D12046E16888470546202006439A
:1010D0007F1C022FC3DBA069002803DA4042A06115
:1010E00001200643F00701D0102086436C2D0BD061
:1010F000682D09D04C2D3CD06A2D38D0742D38D0B5
:101100007A2D36D016E040E0E1682F462046884729
:10111000B842054609D16C2F29D001208002E16830
:10112000064320468847054604E06C2F1DD0FF206B
:1011300001300643002D28D028464138192803D80D
:101140000120C00206432035204626602946029A27
:101150001646FEF7F7FF002810D001280BD0F61D29
:10116000F008C0000830029055E74020E1E78020F9
:10117000D5E70020D3E7361D02964CE76268284683
:10118000A1689047206A401C44E7206AFEBD000029
:101190005E4E00000B4670B5024689078008084382
:1011A00019469D08141AA94125090807054308098D
:1011B0002C194841250A01060D43010A2C19414109
:1011C000200C0D0428430D0C00194D41002140193D
:1011D0004D41C00869070843E908840F8D00254385
:1011E000840024184D4124196D41121BAB4107E0C6
:1011F0000925ED432C11521963410024401C614123
:101200001C460A250026551BB441F1D270BDFFB51E
:1012100004460D4681B0243000902168880604D52C
:101220001022E0699143216000E00120A84201DD25
:10123000471B00E000270498A1697A191018081AC2
:10124000A0612078C00602D42046FFF7FAFC0026F1
:1012500008E003986268A168805D9047206A401C9E
:10126000761C206204988642F3DB2078C0060AD5FB
:101270002046FFF7E6FC06E06268A1683020904750
:10128000206A401C206238467F1E0028F4DC07E0FC
:1012900000986268A168405D9047206A401C206207
:1012A00028466D1E0028F3DC2046FFF7E0FC20787E
:1012B000000602D5022005B0F0BD0120FBE70000CA
:1012C000FFB50C461E468FB003CA089009914F0027
:1012D0007D0D00D16D1E002108460020C04603216F
:1012E000099A89050840002A03DA8200801840081C
:1012F0000840800D01280A9002DD0020C0430A90BA
:10130000089807430DD0F048F049281848430714BF
:10131000189800281DD07542291E1DDD0A984242EA
:101320001BE01898012802D00020302104E00020A2
:10133000F24305E02154401CB042FBDB3046002262
:10134000189B002121540F998B600A60486013B0EC
:10135000F0BDBD1B6D1CDFE70A9A002900DA694267
:101360000BA800F079FC0BAB07CB03AB07C30899C4
:10137000099800F0DDFC6B4607C30146D448091804
:10138000002D00910BDDD24903980A9A494240187A
:10139000002303A90390684600F03AFF08E0039990
:1013A0000A9A0023081803A90390684600F0DAFEA1
:1013B0006B4607C30004000C03D00020C043410863
:1013C00000E01046189A002A03D000220092154629
:1013D0001EE0751E05D4FFF7DDFE303262556D1E2E
:1013E000F9D501220843079602D000227F1C04E0B1
:1013F0002078302801D100227F1E002A069787D04E
:101400001EE0112D07DAFFF7C5FE303262556D1C64
:1014100002460A43F5D1084303D00098002819D0AA
:101420000EE00021681E05E0235C625C63542254D8
:10143000401E491C8142F7DBA81B401E0795069001
:10144000079A18990020A0540F98079B069A81606C
:101450000CC07CE711260020189059E7D21DF0B58A
:101460000D460446D10893B0C90003C90C900D91F4
:1014700004F0DCFA02460D98C00F01D02D2007E0E1
:101480002068810701D52B2002E04007C00F4001F2
:10149000032A0F9001D0072A05DB03462946204680
:1014A00000F096FB0EE12078800601D5E76900E0A8
:1014B00006272846652D04D0662814D0672D69D1EB
:1014C0002DE00020112F009001DB112300E07B1C98
:1014D0000CAA03A910A8FFF7F3FE11990026109893
:1014E0007D1C0E9142E001203B460CAAC0070B90E8
:1014F0000120009003A910A8FFF7E2FE119D1298A9
:101500001099002600280E9501D1781C0D18781B23
:1015100002D446427D1C761EE81B00903AE0012F63
:1015200000DA01270020112F009001DD112300E0D7
:101530003B460CAA03A910A8FFF7C2FE11993D462D
:10154000109800260E91217809070BD40E99A94214
:1015500000DA0D4603A9012D04DD4A19203AD27F95
:10156000302A06D0B84201DA011D04DA01210091C7
:101570000FE06D1EEFE7002802DC86192D1A03E04C
:10158000411CA94200DD0D46801B401C009001203B
:10159000C0070B902078000705D40098A84202DB12
:1015A0000020C043009069460020C8720B980121BA
:1015B00002AF0337C907884225D0022010902B20A4
:1015C00011900B9800280BDA40420B902D201190BF
:1015D00006E00B9800F039FA30317F1E0B9039701D
:1015E0001099481E00291090F3DC0B980028F0D1C8
:1015F00011987F1E38702088000501D5452000E035
:1016000065207F1E387001A8C01BC01D0B900F986D
:10161000002800D0012041190098C01709180B9824
:101620000818A169081A401EA0612078C00602D4DB
:101630002046FFF706FB0F98002805D06268A168D6
:101640009047206A401C20622078C00625D520469D
:10165000FFF7F7FA21E0002E07DB0E98B04204DD19
:1016600003A86268805DA16802E06268A16830201A
:101670009047206A761C401C20620098401E00287B
:1016800000900AD100F0A0FAC06862680168405C6E
:10169000A1689047206A401C206228466D1E0028E1
:1016A000D9DC07E062683878A1687F1C9047206A1F
:1016B000401C20620B99481E00290B90F2DC20464A
:1016C000FFF7D5FA032042E601FCFFFF104D0000B2
:1016D000E1DFFFFFD21DF0B504460D46D0088DB006
:1016E000C000466807683146384604F09FF9024654
:1016F000F00F01D02D2307E02068810701D52B23AF
:1017000002E04007C00F43016846002B037001D080
:10171000012000E00020032A0A9001D0072A04DB00
:101720002946204600F054FA2DE12078800601D4A5
:101730000D2500E0E5697000400D0D2D01904BDA9C
:10174000300D00210B9008460020C046032189057A
:101750000840002E05DA82008018C20F10184010D1
:1017600008408015012801DD0020C043A9000023A6
:10177000182906D39C460A460123183A1B07D34072
:1017800003E001221205CA4094460C31202902D3FD
:101790003A46203900E032468A40002802DD002A1D
:1017A00006D119E0002817D10121C9078A4213D3B5
:1017B000194663467F185E41002806D10120C00704
:1017C000824202D1084687439E430B98310D8142E5
:1017D00002D00198401C01902088000502D5714973
:1017E000794402E06F49794419396B460A983022EE
:1017F0001A540A980A7C401C1A54401C0A900198FA
:10180000002801DC302000E031201872019A01200C
:10181000002A02D0644BD21804E072003A4302D08E
:10182000614A521C0192002D02DC2278120703D576
:101830006A462E20507202200022864694460CE012
:1018400032033601120F6D1E8B5C02AA13546246DE
:10185000521C401C9446052A01DA002DF0DC0022BF
:1018600002AE08E03B0F3F01CB5C521C6D1E3354AF
:10187000401C082A01DA002DF4DC23689A0601D501
:1018800011E0401E704504DD3218203AD27F302A24
:10189000F7D0002807DD3218203AD27F2E2A02D155
:1018A0001A0700D4401E002D03DD3E223254401C96
:1018B0006D1E497C31540199401C002906DA2D2106
:1018C000471C315401984042019003E02B21471CF2
:1018D000315401987D21C900884206DBFEF7FAFCED
:1018E0003030F0557F1C019101E0642808DB01983D
:1018F0006421FEF7EFFC3030F0557F1C019101E0D0
:101900000A2806DB01980A21FEF7E4FC3030F05586
:101910007F1C01980A21FEF7DDFC3031F1550A9851
:10192000A1697F1C7A191018081AA0612078C006D6
:1019300002D42046FFF785F9216A6E460A980818F6
:10194000206204E062683078A168761C90470A98AB
:10195000401E0A90401CF5D12078C00602D52046D2
:10196000FFF76FF902AE09E03078761C3E280DD003
:101970006268A1689047206A401C20627F1EF3D2F3
:101980002046FFF774F90DB00320F0BD206A40191E
:10199000206203E06268A168302090476D1EEDD39D
:1019A000F8E70000D046000001FCFFFF10B54369D6
:1019B000002B02D0C046C04601E0FFF77BF90120B2
:1019C00010BD1278014624310A7000224A700122AB
:1019D000ECE711680022D243E8E710B54369002B19
:1019E00002D0C046C04601E0FFF7F6F9012010BD65
:1019F00012880146243182840022C2840122ECE74D
:101A000011680022D243E8E7F8B516460C460546B1
:101A100000F0D2F80368FF200230C05C012807D034
:101A2000FF2C0FD8185D00280CD001202C70F8BDB9
:101A3000FF333246214608331868C718284600236A
:101A4000B847F8BD0020C043F8BD01468008081A19
:101A500002091018020A1018020C1018C00882009F
:101A600012185200891A01E0401C0A390A29FBD2D7
:101A700070470000F8B5264C4E00069DA6420AD8D5
:101A8000A64201D1002806D15E00A64203D8A64294
:101A90000AD1002A08D00D242404254233D0294637
:101AA000002000F00DFCF8BD0C461C4311D49942F7
:101AB00007D0C81A02D3EFF30080F8BDEFF300801F
:101AC000F8BD801A02D3EFF30080F8BDEFF3008079
:101AD000F8BD09242407E5008B4207D0581A02D329
:101AE000EFF3008006E0EFF3008007E0101A03D365
:101AF000EFF30080A04303E0EFF30080A04328430E
:101B000080F30088F8BD009500F0F2FBF8BD0000FE
:101B10000000E0FF10B5FF231B0644009C421DD8C7
:101B20004C009C421AD80346124A0B4307D4401A71
:101B300002D3EFF3008010BDEFF3008010BD081A50
:101B400003D3EFF30080904305E0EFF30080012121
:101B50009043C907084380F3008810BD0D231B0480
:101B60001A4204D01146002000F0AAFB10BD00F07C
:101B7000C9FB10BD00000090754600F0CBFBAE46DF
:101B8000050069465346C008C000854618B020B518
:101B9000FEF772FB60BCB64600260027C0C5C0C574
:101BA000C0C5C0C5C0C5C0C5C0C5C0C5403D490849
:101BB00049008D467047000010B500F005F8001D83
:101BC00010BD00BF293F00000048704730022020B0
:101BD000F8B51F46044601230068DB0203260146D0
:101BE0001840072A05DB002801D017A506E017A535
:101BF00004E0002801D016A500E016A510208143BE
:101C00002160A069C01E002FA06101D0401EA0610C
:101C10002046FFF716F8002F09D038466268A16801
:101C20009047206A401C2062C01C206206E0206AA7
:101C3000FAE762682878A1686D1C9047761EF8D292
:101C40002046FFF714F8F8BD4E414E006E616E005D
:101C5000494E4600696E6600F7B516468AB03348AD
:101C600078446C4603467C33C06F5A689B680DC449
:101C70002E487844763003AC0DC80DC43720C0011F
:101C8000081837211B30FEF725FB05460C46803D22
:101C90001B3C02D56442012000E00020002709908F
:101CA00010E0E0070CD00C202049784379443246FC
:101CB0004C3941186846012300F054FA6B4607C3BB
:101CC00064107F1C002CECD1184F7F442E3F16E08F
:101CD000E80712D02001C0190EC806910893079298
:101CE0000068F04201D1981908903246012306A9F4
:101CF00003A800F037FA03AB07C36D10641C002D76
:101D0000E6D10998002806D032466946012303A887
:101D100000F07EFA05E001233246694603A800F090
:101D200021FA0A9B07C30DB0F0BD00006442000019
:101D3000034640000A4610B5400D0BD00121C907EB
:101D40000F24A40200191C0364082143540D2143ED
:101D5000D20207E000210120F2E7D40F490021431D
:101D60005200401E0029F8DADB0FDB07184310BDD4
:101D7000FFB50D46144685B04868516803F03EFE35
:101D800000910190A868A16803F038FE02910390C9
:101D9000A868616803F032FE029A12188242029229
:101DA00001D2012000E00020019A0B18D21800286F
:101DB000019202D08A4202D903E08A4201D2012074
:101DC00000E000200099081800906868A16803F0FE
:101DD00015FE029A12188242029201D2012000E0FE
:101DE0000020019A0B18D2180028019202D08A42D2
:101DF00002D903E08A4201D2012000E000200099CC
:101E000008180090286821684000490040084908E7
:101E10004018FA49471814E001994000C90F0843D7
:101E20000090019802994000C90F08430190029860
:101E300003994000C90F08430290039840007F1E99
:101E4000039000980028E7DA0898002801D0EC4EAB
:101E500000E00026B74201DA012000E0002000285F
:101E600004902AD0F71BF806C00E15D0029B202143
:101E7000091A039A8B401A430392029A019BC240AB
:101E80008B401A430292019A009BC2408B400099FA
:101E90001A430192C14000917B110DD06F4603207F
:101EA000C11A03D500218200B95003E08A008100E5
:101EB000BA587A50401EF3D5374603980299002845
:101EC00000D00120014308980291002808460CD058
:101ED000002800D001200199019A490508430121F9
:101EE000D20AC902D202019200E001210E9B012216
:101EF000D207012B02D0002B03D013E0002807D11A
:101F000020E0904204D890420CD1019B0B4209D0B2
:101F1000019B5918019105D10099491C009101D1EB
:101F20007F1C009200280DD0102108460020C046DA
:101F30000498002806D00F98002803D008210846EE
:101F40000020C04628682168019B009A4840C10FC4
:101F50000598C90739430EC009B0F0BDFFB587B079
:101F6000099A089808995368926840688968964663
:101F70000022039317469446089A12685300099A60
:101F80005B081268520052089A1A9E4BD4180A9A9B
:101F9000002A01D0352200E04022069200220123CF
:101FA00015460492DB07059324E0002D05D1754604
:101FB0000346039E4D1BB34109D375466646039BFA
:101FC000491B049D9841059B7519AC465F416346CA
:101FD0003B4308D0059B049EDD0776082E435B0833
:101FE0000496059301E0521E641EC50FED074918C3
:101FF0004041521C069B9A42D7DB002D04D1754606
:10200000039A6B1A824101D203200CE0039A0B461B
:102010006B404240134303D0014303D0012002E050
:10202000022000E00020614601910021009702910A
:102030000A99002905D0614640020143704B019185
:1020400002E08007002302909C4201DA012000E0B8
:10205000002007003AD01A1BD006C00E15D0029DF2
:102060002021019C091AC5408C402543029C8C40CC
:1020700000D001242543019C0295009DC4408D4061
:1020800000992C430194C140009154111DD06D461C
:102090000221002202290CD10320001B07E00028A6
:1020A00004DB8600AE59002E00D00122401C03281C
:1020B000F5DB081B02D588002A5004E08000285870
:1020C00010438A00A850491EE3D51C460A980028F0
:1020D00002980CD0002800D001200199019A4905EE
:1020E00008430121D20AC902D202019200E0012173
:1020F000109B0122D207012B02D0002B03D013E04A
:10210000002807D11FE0904204D890420CD1019BD7
:102110000B4209D0019B5918019105D10099491C26
:10212000009101D1641C009200280CD010210846B7
:102130000020C046002F06D01198002803D00821A7
:1021400008460020C04608980999019A009B00683B
:1021500009684840C10F0798C907214382600AC037
:102160000BB0F0BD00B585B0019300920A46014660
:10217000002302A8FFF7FCFD02A807C805B000BDB8
:10218000FFB50A461F4685B00799019301230091C8
:10219000014602A8FFF7ECFD02990398049ECA0FBE
:1021A0004900D20700920F22490892028C1A00219E
:1021B000002800DB0C46450013486D08844214D308
:1021C000079A002A04DA441E0026104DF64302E066
:1021D00004460D460E46102108460020C046002F3A
:1021E00003D0042108460020C0462005E90A084320
:1021F000009908436905F20A1143ADE602C0FFFFEA
:10220000013C0000FF3F0000FF070000FFFFFF7FD1
:1022100000B585B0019300920A460146002302A84A
:10222000FFF79CFE02A807C8A8E7FFB50A461F46AD
:1022300085B00799019301230091014602A8FFF799
:102240008DFE02990398049ECA0F4900D20700929E
:102250000F22490892028C1A0021002800DB0C464C
:10226000450011486D08844214D3079A002A04DA05
:10227000441E00260D4DF64302E004460D460E4670
:10228000102108460020C046002F03D00421084634
:102290000020C0462005E90A084300990843690563
:1022A000F20A114358E60000FF070000FFFFFF7F1E
:1022B00010B50446C046C0462046FDF7CFFF10BD0E
:1022C000C80212D54803400F002804D0C803C043F9
:1022D000012188407047EFF30080000100090321CD
:1022E0000907084380F3008870470020704700000A
:1022F00010B500200249029A00F068F810BD0000F5
:102300000000F87F10B5024800F060F810BD000032
:102310000000C07F004870471002202082078B0712
:102320009A423FD170B5920F0AD0032402780B78FD
:10233000401C491C002A33D09A4231D12042F5D1A9
:10234000214EF40104C808C9951B9543254018D1B6
:102350009A420FD104C808C9951B9543254010D156
:102360009A4207D104C808C9951B9543254008D156
:102370009A42E7D012BA1BBA01209A4200D24042D8
:1023800070BD12BA1BBA2DBA18241000E040190013
:10239000E140401A05D12E00E64002D1083CF4D1BC
:1023A000D01A70BD02780B78401C491C002A09D055
:1023B0009A4207D102780B78401C491C002A01D0B0
:1023C0009A42EFD0D01A70470101010110B50C46B6
:1023D0001107090F092904D00A290AD008290CD1AC
:1023E00004E011460820FFF76BFF06E0510606D512
:1023F00001E0510601D50120C007214610BDD106DC
:1024000007D501010909CC084907000E000604435D
:1024100009E0410F20024907000A0143200E00068F
:102420001D22D14101430846E7E700000149182079
:10243000ABBEFEE726000200704730B58C1802786C
:10244000401C13071B0F01D10378401C120906D151
:102450000278401C03E00578401C0D70491C5B1E8F
:10246000F9D101E00B70491C521EFBD1A142E6D309
:10247000002030BDB0B50121CC06034D2C6003F027
:102480005DF82C61B0BDC04690120A40B0B500287E
:1024900009D004466425284603F050F8284603F086
:1024A0004DF8641EF6D1B0BD10B508480421016096
:1024B0000748016003F03CF9064C0120207000F051
:1024C0003BFAA06000F024FB606010BD80E200E0F9
:1024D00000E100E0A0072020811E091F00BFFCD200
:1024E00070470000F0B57A4A82183B4BC318087950
:1024F0004E793A4D784C002E23D0202804D0052662
:10250000F601002803D003E0354E002800D18826CC
:10251000576F2F4037435767976F2F403743976761
:10252000566B26405663966B26409663002656658A
:1025300096658F26F6435F6837405F609F68374037
:102540009F608E79096820280BD0002819D1491E78
:102550005160D76E2F4088210F43D76617467037DA
:1025600019E0491E5160D16E29401D4F3943D16693
:10257000116F29403943116701214907194D174649
:1025800009E049085160D76E2F400521C9010F436A
:10259000D766174670373C682C400C433C60D16AC4
:1025A0004D4C2140D162116B214011630021D16457
:1025B00011658F21C943D46F0C40D4671C680C404F
:1025C0001C600643BD2030401168074B0B40C0180B
:1025D000801C1060F0BDC0468418000024493E00F5
:1025E00001040000FFFFFFCF4000FFCFB0B54A68F5
:1025F000364BC250364A80180A78222A58D893009F
:1026000001A4E3589F46C046A7260000B12600005B
:10261000A7260000B1260000B1260000B126000068
:10262000B1260000B1260000B1260000B12600004E
:10263000B1260000B1260000B1260000B12600003E
:10264000B1260000B126000095260000B12600004A
:1026500095260000B1260000B1260000B12600003A
:10266000B1260000B1260000B1260000B12600000E
:10267000B1260000B1260000B1260000B1260000FE
:10268000B1260000B126000095260000B12600000A
:102690009526000003231B0704689C4301235B0766
:1026A000E318036004E003231B0704689C430460F1
:1026B0000B69C360CB68074C1C40C36A064D1D40C4
:1026C0002B19C362097A11430160B0BD08180000DC
:1026D00004180000777702008888FDFF10B50723F3
:1026E0009B04194092008018024A84589C43611848
:1026F000815010BD3018000010B5029CA4000019D4
:1027000011431943014A815010BDC04650180000C2
:1027100092008018014A81507047C046101800008E
:1027200010B50122120383180C789C604B788350FB
:102730008978014A815010BD0C110000B0B51122FA
:10274000120283580124A34383500B888C781C43C6
:102750008B882343094C1C408358094D1D40631945
:1027600083508B79CC791C43097A21437E2319400D
:10277000801842689A4351184160B0BD1867000044
:10278000E798FDFF10B50122120383180C789C60B6
:102790004978815010BD00000F48014610390A6881
:1027A00003210A40022A09D2002A10D0C34A136822
:1027B0000A4A12689B0707D5521E06E0BF4A1368F3
:1027C000064A1268DB07F7D0521C044B1A600268F5
:1027D0000A4302607047C04648100A40A4092020FE
:1027E000F0B581B02B4C20792178081AFEF7A5F8B6
:1027F00000900D46E0786178081AFEF79EF80026F2
:10280000084B3246FEF7A4F807460C46064B0098E4
:1028100029463246FEF79CF83A462346FEF706F86C
:1028200001B0F0BD00002E4000003E4019494A783A
:10283000504250410A78002A00D1401C8A78002A70
:1028400000D1401CCA78002A00D1401C0979002917
:1028500000D1401CC0B2022801D8002070470120DE
:102860007047C046954801680905CA0F09490A70B2
:10287000934A13681B03DB0F4B7003685B07DB0F86
:102880008B7012689202D20FCA7000684000C00FAD
:10289000087170477002202070B5234C21780229FE
:1028A0001AD001290AD0002911D1552813D11F4867
:1028B000012101701E48552202700BE0532806D1F9
:1028C0001A48022101701A485322427002E0174848
:1028D00000210170217070BD144D2A78144988546C
:1028E000501C2870C0B20B28F5D3CA798879831898
:1028F0000E7A9B194E7A9B19583BDBB2897A8B4230
:102900000ED1154E0121317011020818FEF796F90B
:102910000721C90603F0D4F9064903F0D1F9706024
:1029200000202870207070BD8102202080022020AD
:1029300075022020000034430748704704480821EE
:102940000160044801600448002141600170704743
:1029500080E200E000E100E07C09202059480021ED
:10296000016041608160C160016141618161C1615B
:102970007047C04601460020032909D8C900514AC2
:1029800051184A78012A03D1481C00210170012006
:102990007047C04601460020032909D8C900494AAA
:1029A00051184A78022A03D1481C002101700120E5
:1029B0007047C046032801D900207047C000414934
:1029C00008188079411E88417047C046F0B5002044
:1029D0003B4A3C4B054606460AE004215955591925
:1029E00000244C805919CF710835761C202D64D0F5
:1029F000F4B2032C074619D80127A40001A10959F4
:102A000014468F46252A0000152A00001B2A0000C4
:102A10001F2A00000227144604E0802701E001215C
:102A20008F04264C216839404F424F415C5D042C95
:102A3000D8D8C0467C4424796400A74402061723F2
:102A40002600002FCED00121C8E7002F21D05C192D
:102A50006188491C618089B20229C3D38121490060
:102A600059530121A1710021A180BBE7002FB4D0EF
:102A700059198C88641C8C80A1B26429B2D3124984
:102A80005953AFE7002FA8D0ACE7002F06D00221A2
:102A9000A4E7002159555C196180A3E75C1961889E
:102AA000491C618089B202299CD303210902595330
:102AB00000216180A171A18094E7F0BD80130A40DC
:102AC00080330A4084092020030200000120800690
:102AD0008D4908607047C046012000068A49086099
:102AE0007047C04601200006014908607047C04693
:102AF00090320A409042034603DA884204DA0846DC
:102B0000704713468842FADB1946084670470000B2
:102B10000048704782022020F0B587B0029040281C
:102B20005CD800295AD101200104420400202C4E17
:102B300007460190069105920490C1B20298039154
:102B400001F0A4FC704B059A0699019CB8B2355C63
:102B50001A60196000BF00BF00BF00BF00BF00BF08
:102B600000BF00BF00BF00BF196100BF00BF00BFB2
:102B700000BF00BF00BF00BF00BF00BF00BF1A61A1
:102B8000782000F02FF8402000F02CF8284600F0C4
:102B900029F85D4B059A06991A61196100BF00BFBB
:102BA00000BF00BF00BF00BF00BF00BF00BF00BF2D
:102BB0001A6000BF00BF00BF00BF00BF00BF00BF62
:102BC00000BF00BF00BF1960601C7F1C3F2C044683
:102BD000BCD30498401C039B072BADD307B0F0BDBA
:102BE00008002020B0B501210B0449040024464A06
:102BF0001CE013610325254300BF00BF00BF00BFD9
:102C000000BF00BF00BF00BF00BF00BF116000BF1A
:102C100000BF00BF00BF00BF00BF00BF00BF00BFBC
:102C200000BF1161241D0001072D55D245B2002DB2
:102C300001D4136100E0136000BF00BF00BF00BFFC
:102C400000BF00BF00BF00BF00BF00BF116000BFDA
:102C500000BF00BF00BF00BF00BF00BF00BF00BF7C
:102C600000BF1161450601D4136100E0136000BF8D
:102C700000BF00BF00BF00BF00BF00BF00BF00BF5C
:102C800000BF116000BF00BF00BF00BF00BF00BF9A
:102C900000BF00BF00BF00BF1161850601D41361F2
:102CA00000E0136000BF00BF00BF00BF00BF00BF57
:102CB00000BF00BF00BF00BF116000BF00BF00BF6A
:102CC00000BF00BF00BF00BF00BF00BF00BF116159
:102CD000C5068ED513608DE7136000BF00BF00BF2F
:102CE00000BF00BF00BF00BF00BF00BF00BF11603A
:102CF00000BF00BF00BF00BF00BF00BF00BF00BFDC
:102D000000BF00BF1161B0BD90120A40F0B587B09E
:102D100000BF00BF00BF00BF00BF00BF00BF00BFBB
:102D200000BF00BF012105914F04FD4E37600D0427
:102D3000356000BF00BF00BF00BF00BF00BF00BFC5
:102D400000BF00BF00BF356100BF00BF00BF00BFB4
:102D500000BF00BF00BF00BF00BF00BF37617820C9
:102D60000690FFF73FFF00242046FFF73BFFAE2011
:102D7000FFF738FF3761356100BF00BF00BF00BFFC
:102D800000BF00BF00BF00BF00BF00BF376000BF73
:102D900000BF00BF00BF00BF00BF00BF00BF00BF3B
:102DA00000BF35603760356000BF00BF00BF00BFA7
:102DB00000BF00BF00BF00BF00BF00BF356100BF44
:102DC00000BF00BF00BF00BF00BF00BF00BF00BF0B
:102DD00000BF37610698FFF705FF2046FFF702FFA7
:102DE0002046FFF7FFFE3761356100BF00BF00BF1F
:102DF00000BF00BF00BF00BF00BF00BF00BF376003
:102E000000BF00BF00BF00BF00BF00BF00BF00BFCA
:102E100000BF00BF35603760356000BF00BF00BF36
:102E200000BF00BF00BF00BF00BF00BF00BF3561D3
:102E300000BF00BF00BF00BF00BF00BF00BF00BF9A
:102E400000BF00BF37610698FFF7CCFE2046FFF7B2
:102E5000C9FE1020FFF7C6FE3761356100BF00BF15
:102E600000BF00BF00BF00BF00BF00BF00BF00BF6A
:102E7000376000BF00BF00BF00BF00BF00BF00BF82
:102E800000BF00BF00BF35603760356000BF00BFC6
:102E900000BF00BF00BF00BF00BF00BF00BF00BF3A
:102EA000356100BF00BF00BF00BF00BF00BF00BF53
:102EB00000BF00BF00BF37610698FFF793FE2046B2
:102EC000FFF790FE40200390FFF78CFE37613561DD
:102ED00000BF00BF00BF00BF00BF00BF00BF00BFFA
:102EE00000BF00BF376000BF00BF00BF00BF00BF12
:102EF00000BF00BF00BF00BF00BF35603760356056
:102F000000BF00BF00BF00BF00BF00BF00BF00BFC9
:102F100000BF00BF356100BF00BF00BF00BF00BFE2
:102F200000BF00BF00BF00BF00BF37610698FFF7BA
:102F300059FE2046FFF756FE8120FFF753FE37610A
:102F4000356100BF00BF00BF00BF00BF00BF00BFB2
:102F500000BF00BF00BF376000BF00BF00BF00BFA1
:102F600000BF00BF00BF00BF00BF00BF35603760BB
:102F7000356000BF00BF00BF00BF00BF00BF00BF83
:102F800000BF00BF00BF356100BF00BF00BF00BF72
:102F900000BF00BF00BF00BF00BF00BF3761069881
:102FA000FFF720FE2046FFF71DFECF20FFF71AFE99
:102FB0003761356100BF00BF00BF00BF00BF00BF69
:102FC00000BF00BF00BF00BF376000BF00BF00BF31
:102FD00000BF00BF00BF00BF00BF00BF00BF356023
:102FE0003760356000BF00BF00BF00BF00BF00BF3B
:102FF00000BF00BF00BF00BF356100BF00BF00BF02
:1030000000BF00BF00BF00BF00BF00BF00BF3761EF
:103010000698FFF7E7FD2046FFF7E4FDA120FFF744
:10302000E1FD3761356100BF00BF00BF00BF00BFD9
:1030300000BF00BF00BF00BF00BF376000BF00BFC0
:1030400000BF00BF00BF00BF00BF00BF00BF00BF88
:1030500035603760356000BF00BF00BF00BF00BFF4
:1030600000BF00BF00BF00BF00BF356100BF00BF91
:1030700000BF00BF00BF00BF00BF00BF00BF00BF58
:1030800037610698FFF7AEFD2046FFF7ABFDC8207D
:10309000FFF7A8FD3761356100BF00BF00BF00BF6B
:1030A00000BF00BF00BF00BF00BF00BF376000BF50
:1030B00000BF00BF00BF00BF00BF00BF00BF00BF18
:1030C00000BF35603760356000BF00BF00BF00BF84
:1030D00000BF00BF00BF00BF00BF00BF356100BF21
:1030E00000BF00BF00BF00BF00BF00BF00BF00BFE8
:1030F00000BF37610698FFF775FD2046FFF772FDA8
:10310000A6200490FFF76EFD3761356100BF00BF58
:1031100000BF00BF00BF00BF00BF00BF00BF01E095
:1031200090120A4000BF376000BF00BF00BF00BF61
:1031300000BF00BF00BF00BF00BF00BF35603760E9
:10314000356000BF00BF00BF00BF00BF00BF00BFB1
:1031500000BF00BF00BF356100BF00BF00BF00BFA0
:1031600000BF00BF00BF00BF00BF00BF37610698AF
:103170000646FFF737FD2046FFF734FDA820FFF78E
:1031800031FDFC480761056100BF00BF00BF00BF03
:1031900000BF00BF00BF00BF00BF00BF076000BF8F
:1031A00000BF00BF00BF00BF00BF00BF00BF00BF27
:1031B00000BF05600760056000BF00BF00BF00BF23
:1031C00000BF00BF00BF00BF00BF00BF056100BF60
:1031D00000BF00BF00BF00BF00BF00BF00BF00BFF7
:1031E00000BF07613046FFF7FDFC2046FFF7FAFC01
:1031F0003F20FFF7F7FCDF480761056100BF00BF14
:1032000000BF00BF00BF00BF00BF00BF00BF00BFC6
:10321000076000BF00BF00BF00BF00BF00BF00BF0E
:1032200000BF00BF00BF05600760056000BF00BFB2
:1032300000BF00BF00BF00BF00BF00BF00BF00BF96
:10324000056100BF00BF00BF00BF00BF00BF00BFDF
:1032500000BF00BF00BF07613046FFF7C3FC204638
:10326000FFF7C0FCD320FFF7BDFCC2480761056132
:1032700000BF00BF00BF00BF00BF00BF00BF00BF56
:1032800000BF00BF076000BF00BF00BF00BF00BF9E
:1032900000BF00BF00BF00BF00BF05600760056042
:1032A00000BF00BF00BF00BF00BF00BF00BF00BF26
:1032B00000BF00BF056100BF00BF00BF00BF00BF6F
:1032C00000BF00BF00BF00BF00BF07613046FFF76F
:1032D00089FC2046FFF786FC2046FFF783FCA548C3
:1032E0000761056100BF00BF00BF00BF00BF00BF96
:1032F00000BF00BF00BF00BF076000BF00BF00BF2E
:1033000000BF00BF00BF00BF00BF00BF00BF05601F
:103310000760056000BF00BF00BF00BF00BF00BF67
:1033200000BF00BF00BF00BF056100BF00BF00BFFE
:1033300000BF00BF00BF00BF00BF00BF00BF0761EC
:103340003046FFF74FFC2046FFF74CFCD520FFF737
:1033500049FC88480761056100BF00BF00BF00BF8E
:1033600000BF00BF00BF00BF00BF00BF076000BFBD
:1033700000BF00BF00BF00BF00BF00BF00BF00BF55
:1033800000BF05600760056000BF00BF00BF00BF51
:1033900000BF00BF00BF00BF00BF00BF056100BF8E
:1033A00000BF00BF00BF00BF00BF00BF00BF00BF25
:1033B00000BF07613046FFF715FC2046FFF712FCFF
:1033C00080263046FFF70EFC6A480761056100BFA2
:1033D00000BF00BF00BF00BF00BF00BF00BF00BFF5
:1033E00000BF076000BF00BF00BF00BF00BF00BF3D
:1033F00000BF00BF00BF00BF05600760056000BFE1
:1034000000BF00BF00BF00BF00BF00BF00BF00BFC4
:1034100000BF056100BF00BF00BF00BF00BF00BF0D
:1034200000BF00BF00BF00BF07610698FFF7DAFBCF
:103430002046FFF7D7FBD920FFF7D4FB4D480761A3
:10344000056100BF00BF00BF00BF00BF00BF00BFDD
:1034500000BF00BF00BF076000BF00BF00BF00BFCC
:1034600000BF00BF00BF00BF00BF00BF0560076016
:10347000056000BF00BF00BF00BF00BF00BF00BFAE
:1034800000BF00BF00BF056100BF00BF00BF00BF9D
:1034900000BF00BF00BF00BF00BF00BF07610698AC
:1034A000FFF7A0FB2046FFF79DFBF120FFF79AFBFB
:1034B00030480761056100BF00BF00BF00BF00BF0B
:1034C00000BF00BF00BF00BF00BF076000BF00BF5C
:1034D00000BF00BF00BF00BF00BF00BF00BF00BFF4
:1034E00005600760056000BF00BF00BF00BF00BFF0
:1034F00000BF00BF00BF00BF00BF056100BF00BF2D
:1035000000BF00BF00BF00BF00BF00BF00BF00BFC3
:1035100007610698FFF766FB2046FFF763FBDA209A
:10352000FFF760FB13480761056100BF00BF00BFE4
:1035300000BF00BF00BF00BF00BF00BF00BF0760EB
:1035400000BF00BF00BF00BF00BF00BF00BF00BF83
:1035500000BF00BF05600760056000BF00BF00BF7F
:1035600000BF00BF00BF00BF00BF00BF00BF0561BC
:1035700000BF01E090120A4000BF00BF00BF00BFC3
:1035800000BF00BF00BF00BF00BF07610698FFF784
:1035900029FB2046FFF726FB1220FFF723FBFD48FF
:1035A0000761056100BF00BF00BF00BF00BF00BFD3
:1035B00000BF00BF00BF00BF076000BF00BF00BF6B
:1035C00000BF00BF00BF00BF00BF00BF00BF05605D
:1035D0000760056000BF00BF00BF00BF00BF00BFA5
:1035E00000BF00BF00BF00BF056100BF00BF00BF3C
:1035F00000BF00BF00BF00BF00BF00BF00BF07612A
:103600000698FFF7EFFA2046FFF7ECFADB20FFF70A
:10361000E9FAE0480761056100BF00BF00BF00BFD5
:1036200000BF00BF00BF00BF00BF00BF076000BFFA
:1036300000BF00BF00BF00BF00BF00BF00BF00BF92
:1036400000BF05600760056000BF00BF00BF00BF8E
:1036500000BF00BF00BF00BF00BF00BF056100BFCB
:1036600000BF00BF00BF00BF00BF00BF00BF00BF62
:1036700000BF07610698FFF7B5FA2046FFF7B2FAD8
:103680000398FFF7AFFAC3480761056100BF00BFA9
:1036900000BF00BF00BF00BF00BF00BF00BF00BF32
:1036A000076000BF00BF00BF00BF00BF00BF00BF7A
:1036B00000BF00BF00BF05600760056000BF00BF1E
:1036C00000BF00BF00BF00BF00BF00BF00BF00BF02
:1036D000056100BF00BF00BF00BF00BF00BF00BF4B
:1036E00000BF00BF00BF07610698FFF77BFA2046C6
:1036F000FFF778FA2020FFF775FAA6480761056101
:1037000000BF00BF00BF00BF00BF00BF00BF00BFC1
:1037100000BF00BF076000BF00BF00BF00BF00BF09
:1037200000BF00BF00BF00BF00BF056007600560AD
:1037300000BF00BF00BF00BF00BF00BF00BF00BF91
:1037400000BF00BF056100BF00BF00BF00BF00BFDA
:1037500000BF00BF00BF00BF00BF07610698FFF7B2
:1037600041FA2046FFF73EFA0220FFF73BFA89486C
:103770000761056100BF00BF00BF00BF00BF00BF01
:1037800000BF00BF00BF00BF076000BF00BF00BF99
:1037900000BF00BF00BF00BF00BF00BF00BF05608B
:1037A0000760056000BF00BF00BF00BF00BF00BFD3
:1037B00000BF00BF00BF00BF056100BF00BF00BF6A
:1037C00000BF00BF00BF00BF00BF00BF00BF076158
:1037D0000698FFF707FA2046FFF704FA8D20FFF757
:1037E00001FA6C480761056100BF00BF00BF00BF60
:1037F00000BF00BF00BF00BF00BF00BF076000BF29
:1038000000BF00BF00BF00BF00BF00BF00BF00BFC0
:1038100000BF05600760056000BF00BF00BF00BFBC
:1038200000BF00BF00BF00BF00BF00BF056100BFF9
:1038300000BF00BF00BF00BF00BF00BF00BF00BF90
:1038400000BF07610698FFF7CDF92046FFF7CAF9D8
:103850001420FFF7C7F94F480761056100BF00BF9B
:1038600000BF00BF00BF00BF00BF00BF00BF00BF60
:10387000076000BF00BF00BF00BF00BF00BF00BFA8
:1038800000BF00BF00BF05600760056000BF00BF4C
:1038900000BF00BF00BF00BF00BF00BF00BF00BF30
:1038A000056100BF00BF00BF00BF00BF00BF00BF79
:1038B00000BF00BF00BF07610698FFF793F92046DD
:1038C000FFF790F9A420FFF78DF9324807610561F1
:1038D00000BF00BF00BF00BF00BF00BF00BF00BFF0
:1038E00000BF00BF076000BF00BF00BF00BF00BF38
:1038F00000BF00BF00BF00BF00BF056007600560DC
:1039000000BF00BF00BF00BF00BF00BF00BF00BFBF
:1039100000BF00BF056100BF00BF00BF00BF00BF08
:1039200000BF00BF00BF00BF00BF07610698FFF7E0
:1039300059F92046FFF756F90498FFF753F915484F
:103940000761056100BF00BF00BF00BF00BF00BF2F
:1039500000BF00BF00BF00BF076000BF00BF00BFC7
:1039600000BF00BF00BF00BF00BF00BF00BF0560B9
:103970000760394601970560074600BF00BF00BFDA
:1039800000BF00BF00BF00BF00BF00BF00BF056198
:1039900000BF01E090120A4000BF00BF00BF00BF9F
:1039A00000BF00BF00BF00BF00BF01610698FFF766
:1039B00019F92046FFF716F9AF200490FFF712F926
:1039C0000198386102953D6100BF00BF00BF00BF94
:1039D00000BF00BF00BF00BF00BF00BF386000BF16
:1039E00000BF00BF00BF00BF00BF00BF00BF00BFDF
:1039F00000BF3D6038603D6000BF00BF00BF00BF3A
:103A000000BF00BF00BF00BF00BF00BF3D6100BFDF
:103A100000BF00BF00BF00BF00BF00BF00BF00BFAE
:103A200000BF386105460698FFF7DCF82046FFF72F
:103A3000D9F80498FFF7D6F8059B3D6102993961E2
:103A400000BF00BF00BF00BF00BF00BF00BF00BF7E
:103A500000BF00BF3D6000BF00BF00BF00BF00BF90
:103A600000BF00BF00BF00BF00BF39600148024671
:103A7000F83201E0880320201470114608390C70D8
:103A8000114610390C70114618390C701146203946
:103A90000C70114628390C70114630390C701146E3
:103AA00038390C70114640390C70114648390C7089
:103AB000114650390C70114658390C701146603956
:103AC0000C70114668390C70114670390C70114633
:103AD00078390C70114680390C70114688390C7099
:103AE000114690390C70114698390C701146A03966
:103AF0000C701146A8390C701146B0390C70114683
:103B0000B8390C701146C0390C701146C8390C70A8
:103B10001146D0390C701146D8390C701146E03975
:103B20000C701146E8390C701146F0390C701146D2
:103B3000F8390C7019025218203E9DD10346F93312
:103B400080221C701D46083D2C701D46103D2C70B7
:103B50001D46183D2C701D46203D2C701D46283DED
:103B60002C701D46303D2C701D46383D2C701D4676
:103B7000403D2C701D46483D2C701D46503D2C701C
:103B80001D46583D2C701D46603D2C701D46683DFD
:103B90002C701D46703D2C701D46783D2C701D46C6
:103BA000803D2C701D46883D2C701D46903D2C702C
:103BB0001D46983D2C701D46A03D2C701D46A83D0D
:103BC0002C701D46B03D2C701D46B83D2C701D4616
:103BD000C03D2C701D46C83D2C701D46D03D2C703C
:103BE0001D46D83D2C701D46E03D2C701D46E83D1D
:103BF0002C701D46F03D2C705D18F83B1C70203A6F
:103C00002B469ED10346FA3380221C701D46083D88
:103C10002C701D46103D2C701D46183D2C701D4605
:103C2000203D2C701D46283D2C701D46303D2C70CB
:103C30001D46383D2C701D46403D2C701D46483DAC
:103C40002C701D46503D2C701D46583D2C701D4655
:103C5000603D2C701D46683D2C701D46703D2C70DB
:103C60001D46783D2C701D46803D2C701D46883DBC
:103C70002C701D46903D2C701D46983D2C701D46A5
:103C8000A03D2C701D46A83D2C701D46B03D2C70EB
:103C90001D46B83D2C701D46C03D2C701D46C83DCC
:103CA0002C701D46D03D2C701D46D83D2C701D46F5
:103CB000E03D2C701D46E83D2C701D46F03D2C70FB
:103CC0005D18F83B1C70203A2B469ED10346FB330F
:103CD00080221C701D46083D2C701D46103D2C7026
:103CE0001D46183D2C701D46203D2C701D46283D5C
:103CF0002C701D46303D2C701D46383D2C701D46E5
:103D0000403D2C701D46483D2C701D46503D2C708A
:103D10001D46583D2C701D46603D2C701D46683D6B
:103D20002C701D46703D2C701D46783D2C701D4634
:103D3000803D2C701D46883D2C701D46903D2C709A
:103D40001D46983D2C701D46A03D2C701D46A83D7B
:103D50002C701D46B03D2C701D46B83D2C701D4684
:103D6000C03D2C701D46C83D2C701D46D03D2C70AA
:103D70001D46D83D2C701D46E03D2C701D46E83D8B
:103D80002C701D46F03D2C705D18F83B1C70203ADD
:103D90002B469ED10346FC3380221C701D46083DF5
:103DA0002C701D46103D2C701D46183D2C701D4674
:103DB000203D2C701D46283D2C701D46303D2C703A
:103DC0001D46383D2C701D46403D2C701D46483D1B
:103DD0002C701D46503D2C701D46583D2C701D46C4
:103DE000603D2C701D46683D2C701D46703D2C704A
:103DF0001D46783D2C701D46803D2C701D46883D2B
:103E00002C701D46903D2C701D46983D2C701D4613
:103E1000A03D2C701D46A83D2C701D46B03D2C7059
:103E20001D46B83D2C701D46C03D2C701D46C83D3A
:103E30002C701D46D03D2C701D46D83D2C701D4663
:103E4000E03D2C701D46E83D2C701D46F03D2C7069
:103E50005D18F83B1C70203A2B469ED10346FD337B
:103E600080221C701D46083D2C701D46103D2C7094
:103E70001D46183D2C701D46203D2C701D46283DCA
:103E80002C701D46303D2C701D46383D2C701D4653
:103E9000403D2C701D46483D2C701D46503D2C70F9
:103EA0001D46583D2C701D46603D2C701D46683DDA
:103EB0002C701D46703D2C701D46783D2C701D46A3
:103EC000803D2C701D46883D2C701D46903D2C7009
:103ED0001D46983D2C701D46A03D2C701D46A83DEA
:103EE0002C701D46B03D2C701D46B83D2C701D46F3
:103EF000C03D2C701D46C83D2C701D46D03D2C7019
:103F00001D46D83D2C701D46E03D2C701D46E83DF9
:103F10002C701D46F03D2C705D18F83B1C70203A4B
:103F20002B469ED10346FE3380221C701D46083D61
:103F30002C701D46103D2C701D46183D2C701D46E2
:103F4000203D2C701D46283D2C701D46303D2C70A8
:103F50001D46383D2C701D46403D2C701D46483D89
:103F60002C701D46503D2C701D46583D2C701D4632
:103F7000603D2C701D46683D2C701D46703D2C70B8
:103F80001D46783D2C701D46803D2C701D46883D99
:103F90002C701D46903D2C701D46983D2C701D4682
:103FA000A03D2C701D46A83D2C701D46B03D2C70C8
:103FB0001D46B83D2C701D46C03D2C701D46C83DA9
:103FC0002C701D46D03D2C701D46D83D2C701D46D2
:103FD000E03D2C701D46E83D2C701D46F03D2C70D8
:103FE0005D18F83B1C70203A2B469ED1FF30802292
:103FF00004700346083B1C700346103B1C700346CC
:10400000183B1C700346203B1C700346283B1C7069
:104010000346303B1C700346383B1C700346403B54
:104020001C700346483B1C700346503B1C70034603
:10403000583B1C700346603B1C700346683B1C7079
:104040000346703B1C700346783B1C700346803B64
:104050001C700346883B1C700346903B1C70034653
:10406000983B1C700346A03B1C700346A83B1C7089
:104070000346B03B1C700346B83B1C700346C03B74
:104080001C700346C83B1C700346D03B1C700346A3
:10409000D83B1C700346E03B1C700346E83B1C7099
:1040A0000346F03B1C704318F8380470203A184659
:1040B0009ED100F0D9F807B0F0BD000083B0F0B594
:1040C00088B005460DA80EC007A800268670068099
:1040D0000DAA0692604C20462946FCF7DBF85F4AA1
:1040E000136801200290034313602078002800D158
:1040F000A8E007A808300390FF21880205900491EA
:104100008D040EE0A41C1846564908401902059F6C
:104110003940CB183B40034313602078002800D17E
:1041200090E0A05700280AD420780A2820D1184609
:104130004B49084019042940CB182B4061E02078F6
:1041400007A9087062784A709905490E9A0AD2B296
:10415000511880291ED31946414A11401A042A4099
:10416000D3182B400B433D4A1360002815D12AE099
:10417000980AC1B22278092A2CD1049840005A0822
:1041800002408818802836D318042840C0182840D8
:10419000334934E0314A002815D004988000184093
:1041A0004028AFD10398811F097800290BD0011F47
:1041B0000978002907D0811E0978002903D00178E9
:1041C00008300029EFD1D8079CD100F04DF8234AE0
:1041D000136897E79A05520E8918802915D3184657
:1041E0001F49084019042940CB182B4003431B4F9B
:1041F0003B60980A0AE08002059908401949174A6D
:104200000B4003431360641C87E7144F02211940DD
:10421000490822780091C0B2990CC9B29B08DBB260
:1042200000F008FA386801460E4A11407F229202D7
:10423000C30113401B18059803400B433B60641CEB
:104240003A466AE702988343136000F00DF808B01D
:10425000F0BC01BC03B00047880220208807202062
:10426000FF0300FCFF03FCFFF0B585B00120010453
:104270000090460400278448E24D049103902E608C
:10428000296000BF00BF00BF00BF00BF00BF00BF6C
:1042900000BF00BF00BF296100BF00BF00BF00BF5B
:1042A00000BF00BF00BF00BF00BF00BF2E6178206D
:1042B0000190FEF797FC00242046FEF793FC02973E
:1042C00038465038C0B2FEF78DFC2E610498286144
:1042D00000BF00BF00BF00BF00BF00BF00BF00BFE6
:1042E00000BF00BF2E6000BF00BF00BF00BF00BF07
:1042F00000BF00BF00BF00BF00BF049828602E6051
:104300000498286000BF00BF00BF00BF00BF00BF0F
:1043100000BF00BF00BF00BF0498286100BF00BFFE
:1043200000BF00BF00BF00BF00BF00BF00BF00BF95
:104330002E61019F3846FEF755FC2046FEF752FCE1
:104340002046FEF74FFC2E610498286100BF00BF95
:1043500000BF00BF00BF00BF00BF00BF00BF00BF65
:104360002E6000BF00BF00BF00BF00BF00BF00BF86
:1043700000BF00BF00BF049828602E60049828602A
:1043800000BF00BF00BF00BF00BF00BF00BF00BF35
:1043900000BF00BF0498286100BF00BF00BF00BF7E
:1043A00000BF00BF00BF00BF00BF00BF2E61384686
:1043B000FEF718FC2046FEF715FC1020FEF712FC55
:1043C00004992E61296100BF00BF00BF00BF00BF7C
:1043D00000BF00BF00BF00BF00BF2E6000BF00BF16
:1043E00000BF00BF00BF00BF00BF00BF00BF00BFD5
:1043F000296000988702083F03983C5C2E60296082
:1044000000BF00BF00BF00BF00BF00BF00BF00BFB4
:1044100000BF00BF296100BF00BF00BF00BF00BFD9
:1044200000BF00BF00BF00BF00BF2E617820FEF7B5
:10443000D9FB4020FEF7D6FB2046FEF7D3FB0499BC
:104440002E61296100BF00BF00BF00BF00BF00BFD9
:1044500000BF00BF00BF00BF2E6000BF00BF00BF95
:1044600000BF00BF00BF00BF00BF00BF00BF29608A
:10447000002FC0D10398401C029F7F1C082F00D042
:10448000FCE605B0F0BDC04688032020F0B583B03F
:104490000F460090012046045A4C26600504256012
:1044A00000BF00BF00BF00BF00BF00BF00BF00BF14
:1044B00000BF00BF256100BF00BF00BF00BF00BF3D
:1044C00000BF00BF00BF00BF00BF26617820029080
:1044D000FEF788FB00200190FEF784FB503FF8B206
:1044E000FEF780FB2661256100BF00BF00BF00BF53
:1044F00000BF00BF00BF00BF00BF00BF266000BFFD
:1045000000BF00BF00BF00BF00BF00BF00BF00BFB3
:1045100000BF25602660256000BF00BF00BF00BF50
:1045200000BF00BF00BF00BF00BF00BF256100BFCC
:1045300000BF00BF00BF00BF00BF00BF00BF00BF83
:1045400000BF26610298FEF74DFB0198FEF74AFB7B
:10455000009F38091030FEF745FB2661256100BF3A
:1045600000BF00BF00BF00BF00BF00BF00BF00BF53
:1045700000BF266000BF00BF00BF00BF00BF00BF7C
:1045800000BF00BF00BF00BF25602660256000BFE0
:1045900000BF00BF00BF00BF00BF00BF00BF00BF23
:1045A00000BF256100BF00BF00BF00BF00BF00BF4C
:1045B00000BF00BF00BF00BF26610298FEF712FBDC
:1045C0000198FEF70FFB0E203840401CFEF70AFB57
:1045D0002661256100BF00BF00BF00BF00BF00BF54
:1045E00000BF00BF00BF00BF266000BF00BF00BF0C
:1045F00000BF00BF00BF00BF00BF00BF00BF2560FD
:1046000003B0F0BD90120A4070B55C1EA3415B0080
:10461000714C2568064E2E400006800B8019C9B2E9
:1046200089044018184391000143216070BDC046C1
:10463000010000FCF0B58BB01F46099107905907A7
:10464000D808002900D0401C79084143080600D151
:10465000AEE010980490C8B20190203AD0B2009019
:1046600000230999039709E00798401C07900999CE
:10467000029B5B1C0198834200D199E0182F0293A2
:1046800009D0102F0CD00C2F00D099E00C20009AEC
:1046900050434F4A07E02420009A50434A4A02E020
:1046A00000980001494A1018C018079AD2B27F2317
:1046B0009A1A059200780A9000260696C8B201243C
:1046C0003F28254600D8069D079A52B2002A00D4FA
:1046D000069C2C430A9BB3401B06089210D5002C65
:1046E0001FD107230B4001249C40C008049A002AD4
:1046F00010D0059AD300374AD3181D5CA5430FE0AC
:10470000002C0ED107230B4001249C40C008049AC2
:10471000002AEED0059AD3002E4AD3181D5C2543FB
:104720001D544C1CE0B2099A831ABB429CD00A4625
:10473000012500233F282F4600D81F46089900294D
:1047400000D41D463D43761C0A9BB3401B06114610
:1047500011D5002D039F20D107231C400125A54022
:10476000C008049A002A11D0059AD300194AD31818
:104770001C5CAC4310E0002D039F0ED107231C40AE
:104780000125A540C008049A002AEDD0059AD3005F
:10479000104AD3181C5C2C431C54891CC8B2099ABB
:1047A000801AB84200D15FE7761C082E86D15FE7F9
:1047B000094800780124C00703D1FFF755FD00E048
:1047C000002420460BB0F0BDC0690000D06300009B
:1047D0005C5F00008803202088072020F0B52F4A66
:1047E00084205060012001032D4B196085219160C8
:1047F000410319602B4C8725A5652B4940260E6087
:10480000E56580250D6082262664284D6564A660D6
:104810006561266765678126D66696665665D664A5
:10482000234FE76227636763D76167651763A761F3
:10483000176427619665D665D663D66096626D1E4D
:1048400065602560E7671760966156611A46303AE1
:10485000184C14601C60184A136805241C4314602B
:10486000164B1C6A032214431C621C6814431C6010
:104870000B46303B124C1C600C608107114B1C68CE
:104880000C431C60196901431961D0030E490A6A7F
:1048900002430A620A6802430A60F0BD8480424013
:1048A000D0120A4004804240D0320A408200040004
:1048B00081000C000040030F90130A4028100A40AA
:1048C0000000120390330A4028300A40F0B581B04E
:1048D0001C4C1D492046FDF723FF1C492046FDF7CF
:1048E00001FE1B4801683E4A0A400260002500950F
:1048F000204629462A462B46FDF7FEFE204629463D
:104900002A46FDF7EBFE6426204631462A46FDF78F
:10491000FFFE01270097204629462A462B46FDF731
:10492000EBFE204629463A46FDF7D8FE20463146A2
:104930003A46FDF7EDFE074887600321016001B0AC
:10494000F0BDC046004008401C7700002077000002
:104950000458084000510840F0B581B01C4C1D4976
:104960002046FDF7DDFE1C492046FDF7BBFD1B4838
:1049700001681B4A0A40026000250095204629462E
:104980002A462B46FDF7B8FE204629462A46FDF763
:10499000A5FE6426204631462A46FDF7B9FE0127CA
:1049A0000097204629462A462B46FDF7A5FE2046BD
:1049B00029463A46FDF792FE204631463A46FDF733
:1049C000A7FE084887600321016001B0F0BDC04622
:1049D00000808640287700002C77000004988640ED
:1049E0007F00FFFF009186400F48002101600320F7
:1049F000C1430E480246083A13680B401360016831
:104A0000012291430160110203688B43036011038B
:104A1000001F02680A430260FF20000220490A6862
:104A200082430A607047C04608030B4008010B40F0
:104A3000084809494160FF210906084A13688B4369
:104A40000321890759181160002181600721016045
:104A50007047C04610E000E0FF7C000020ED00E061
:104A600010B50B4C0B492046FDF75AFE0A4920466B
:104A7000FDF7BCFD09480168012211430160FF20D8
:104A8000000407490B6883430B600648026010BDB1
:104A900000000940347700003877000028100940F2
:104AA00000E400E00811094010B5084C0849204610
:104AB000FDF736FE07492046FDF798FD06480168D8
:104AC0000122114301600548026010BD00208640AC
:104AD0004C7700005077000028308640083186402F
:104AE00010B5154C15492046FDF74CFE14492046DB
:104AF000FDF724FE0321CA031248036893430360B1
:104B00000269474B13409A1C026142690B2313430D
:104B1000342293434361426801231A4044689C4312
:104B2000A21842608902084A14680C4314600168A4
:104B30001943016010BDC04600801040647700003A
:104B400066770000009110402890104010B5154C79
:104B500015492046FDF716FE14492046FDF7EEFDE7
:104B60000321CA03124803689343036002692C4B74
:104B700013409A1C026142690B231343342293436E
:104B80004361426801231A4044689C43A218426072
:104B90008902084A14680C431460016819430160D3
:104BA00010BDC04600001040707700007277000012
:104BB000001110402810104010B5154C1549204622
:104BC000FDF7E0FD14492046FDF7B8FD0321CA03B7
:104BD00012480368934303600269114B13409A1C07
:104BE000026142690B2313433422934343614268B9
:104BF00001231A4044689C43A21842608902094A72
:104C000014680C43146001681943016010BDC0466C
:104C1000000050407C7700007E770000001150407B
:104C20000000FFFF2810504080B500F025F8FFF786
:104C3000D5FDFFF7D9FEFFF749FEFFF78DFEFFF721
:104C400033FFFFF70DFFFFF781FFFFF749FFFFF786
:104C5000B3FFFFF7EDFEB820044900220A549C2060
:104C600003490A542C2003490A5480BD68082020B7
:104C7000C807202024092020F0B581B01248134A2B
:104C800042601348426013484260134C6260134D07
:104C90006A60134E7260134F7A6013494A6013487A
:104CA0004260134A084B1A60094B1A60094B1A609C
:104CB00022602A6032603A600A6002601020FDF7CC
:104CC0000BFC01B0F0BDC04600080A40030000B173
:104CD00000280A4000480840008886400028864096
:104CE00000080940000810400088104000085040AB
:104CF0000100002603480168002902D00168491E0E
:104D000001607047C4072020F0B581B016480068E4
:104D1000C0B2012825D100F055FC144806888681D0
:104D200047884783124C2578002D09D01621435E11
:104D30001E21425E1821415E1230009038B208E018
:104D40000821435E1021425E0A21415E001D009051
:104D500030B200F06BFA0120C104094A11604540ED
:104D6000257001B0F0BDC046203086405409202097
:104D70008C0720200248042101600248016070472E
:104D800080E200E000E100E010B50A480068C0B22F
:104D900001280DD1FDF71AFEFDF764FDFDF720FD9A
:104DA000054C20616161FDF741FD207600F0C6FCF5
:104DB00010BDC04620100940A0072020F0B581B0EA
:104DC00000242046FDF7D6FD8D4F002814D03878FA
:104DD000002811D18B4D2878401CC1B2062900D97A
:104DE000012028701022002001460346FFF70CFC2A
:104DF00029788548FFF762F9824E317801291FD161
:104E000001252846FDF7B6FD3178002818D0012984
:104E100016D13878002813D17C4E3078401CC1B2AE
:104E2000052900D805463570102100200A460346A2
:104E3000FFF7EAFB31787648FFF740F9714E317899
:104E4000062920D8012528468840722108421AD018
:104E50000220FDF78FFD002815D03878002812D1E8
:104E60006C4E3078401CC1B2032900D8054635701D
:104E70002021102200200346FFF7C6FB3178664848
:104E8000FFF71CF95F4E0320FDF774FD00281FD0CB
:104E900038780121414039705025102600272846D6
:104EA000394632463B46FFF7AFFB5CA0FFF706F9F9
:104EB0002846394632463B46514FFFF7A5FB387826
:104EC000002801D0584800E05648FFF7F7F84D4E4B
:104ED0000320FDF75FFD00280AD0012030703C70F0
:104EE0004A4908704B4908704B208000FDF7C2FA10
:104EF00000242046FDF75EFD00284ED001252846FF
:104F0000FDF758FD002848D00220FDF753FD00288A
:104F100043D00320FDF74EFD00283ED035703C7095
:104F20003A4805703B48057050261025304621460A
:104F30002A462346FFF768FB3CA0FFF7BFF8304640
:104F4000304E21462A462346FFF75EFB39A0FFF785
:104F5000B5F8204621462A462346FFF755FB31780F
:104F60002948FFF7ABF8204629462A462346FFF793
:104F70004BFB264801782648FFF7A0F82021204661
:104F80002A462346FFF740FB224801782248FFF7D4
:104F900095F87D200001FDF76DFA387800282CD0B7
:104FA0003078012829D1254E012434707F4903C966
:104FB0000025234B2A4600F065FD002804D0214837
:104FC0000078012807D013E035701E4804701E4891
:104FD0000178491C0170FA2000F0B0FA2046FDF774
:104FE00055FA4B20800000F0A9FA3470154805707E
:104FF00000F0B4F80A2000F0A1FA01B0F0BDC046FC
:10500000300A202009022020917700000802202089
:10501000997700000A0220208877000020202020B5
:1050200000000000A8770000A477000020202020C6
:10503000200000007265616479000000310A2020C0
:1050400000405540C1072020C0072020F0B581B0A6
:10505000FDF784FC00F06CFBFFF78CFE0320FDF7EE
:1050600015FA00F07DFA00F05FF8FDF74FFE10240E
:1050700000252846294622462B46FFF7C5FA20265A
:1050800030462946FDF748FD7D20C00000F056FA65
:105090001C49012008701C4908701C4908701C4FED
:1050A0003D705020294622462B46FFF7ADFA38784E
:1050B000002801D0184800E01648FEF7FFFF2846F8
:1050C000294622462B46FFF79FFA0F4801781348DE
:1050D000FEF7F4FF2846214622462B46FFF794FAB6
:1050E000084801780E48FEF7E9FF28463146224677
:1050F0002B46FFF789FA054801780A48FEF7DEFFDC
:1051000001B0F0BD08022020090220200A02202060
:10511000300A2020A8770000A477000091770000D3
:10512000997700008877000080B58AB00022089245
:10513000074807900692074805900492039202924E
:10514000019200921A48044B00F0D2FB0AB080BDD5
:1051500000409F4000408F4000003E40F0B583B0CB
:1051600012480168406800910190114D00242846C2
:105170002246234600F038FBA864E964FBF786FB6F
:105180007D21C9004718081A00B20A4D21462A4657
:10519000FDF7B0FC064638B221462A46FDF7AAFCC8
:1051A000054948800E8003B0F0BDC046900720201E
:1051B000C80920209F0F00008402202080B50648E7
:1051C0000068C0B20B2806D1044800680449087082
:1051D000087800F0B9FB80BD209010402491104069
:1051E000320A202004480068C0B20B2803D10348CB
:1051F00000680349087070472010104024111040C7
:10520000330A202080B506480068C0B20B2806D1BA
:105210000448006804490870C0B2FDF73DFB80BD3A
:105220002010504024115040340A2020F0B5059F32
:1052300001247C803D88002D00D0F0BD864D2A7071
:10524000864E3270864E3170002800DC00247C814E
:10525000844E3470090A844C217091B20C0A83493F
:105260000C70834A147004B2E4136040001B388150
:10527000804C2070040A804F3C7000B2C0137F4CF9
:1052800020707F4F3870AC480468E40708D0046889
:10529000E40705D00468E40702D00468E407F3D10A
:1052A000DBB283610368DB0708D00368DB0705D046
:1052B0000368DB0702D00368DB07F3D1FD238361BA
:1052C0000368DB0708D00368DB0705D00368DB074A
:1052D00002D00368DB07F3D1337883610368DB070F
:1052E00008D00368DB0705D00368DB0702D003683A
:1052F000DB07F3D1097881610168C90708D001682B
:10530000C90705D00168C90702D00168C907F3D1F0
:10531000297881610168C90708D00168C90705D0EB
:105320000168C90702D00168C907F3D1117881610A
:105330000168C90708D00168C90705D00168C90715
:1053400002D00168C907F3D1444909788161016835
:10535000C90708D00168C90705D00168C90702D08C
:105360000168C907F3D14049097881610168C9071B
:1053700008D00168C90705D00168C90702D00168D3
:10538000C907F3D13649097881610168C90708D096
:105390000168C90705D00168C90702D00168C907BB
:1053A000F3D13649097881610168C90708D00168DD
:1053B000C90705D00168C90702D00168C907F3D140
:1053C000397881610168C90708D00168C90705D02B
:1053D0000168C90702D00168C907F3D126490978D5
:1053E00081610168C90708D00168C90705D0016853
:1053F000C90702D00168C907F3D11E490978816144
:105400000168C90708D00168C90705D00168C90744
:1054100002D00168C907F3D1012181610168C90780
:1054200008D00168C90705D00168C90702D0016822
:10543000C907F3D1002181610168C90708D001685B
:10544000C90705D00168C90702D00168C907F3D1AF
:105450006B218161F0BDC0460300202005002020A3
:10546000070020200200202006002020990720208D
:105470000400202001002020000020209A07202086
:10548000980720201080002800D070472A48026822
:10549000D20708D00268D20705D00268D20702D02E
:1054A0000268D207F3D1C9B281610168C90708D087
:1054B0000168C90705D00168C90702D00168C9079A
:1054C000F3D1F32181610168C90708D00168C907D8
:1054D00005D00168C90702D00168C907F3D1AB2123
:1054E00081610168C90708D00168C90705D0016852
:1054F000C90702D00168C907F3D1012181610168A0
:10550000C90708D00168C90705D00168C90702D0DA
:105510000168C907F3D1002181610168C90708D07A
:105520000168C90705D00168C90702D00168C90729
:10553000F3D16B2181617047081110400749086061
:105540000868002808D00868002805D008680028E6
:1055500002D008680028F3D17047C046C407202055
:10556000F748022101600160F64801600160704760
:10557000F0B581B04D4C0020104A1B210D020121D5
:105580000E041F273F061523DB0141C42260606023
:10559000A5600B4A083C254614358CC5221DFFF733
:1055A00071FF1620215E1220205E22461232FFF784
:1055B00069FF00F0B7F9206201B0F0BD0100800A78
:1055C00001000200F0B581B03848066A0420305E60
:1055D0007F21CC05C721CF43C82825460CDCB84223
:1055E00001DA334D08E0FBF7A8F9324A324BFBF7FA
:1055F000AFF9FAF761FF05460220305E2F490E68C9
:10560000C8280CDCB84201DA294C08E0FBF795F910
:10561000284A294BFBF79CF9FAF74EFF0446284627
:10562000314600F0DDFA0646254D294600F035FAF0
:10563000002800D13546234E2846314600F02DFA89
:10564000002800D135461D4805601F4F39682046A7
:1056500000F0C6FA06461D4C214600F01EFA00284E
:1056600000D134461A4E2046314600F016FA002882
:1056700000D134463C60174E2846314600F00DFA02
:105680000028304600D12846FBF786FA074D2880CF
:105690002046314600F001FA002800D12646304667
:1056A000FBF77AFA688001B0F0BDC04654092020AB
:1056B000000080BF7B14AE47E17A743FBC09202014
:1056C0000000E1C30000E143C00920200000E1C464
:1056D0000000E1440000E1C5FFF7A6FA0120410304
:1056E000974A1160974B196010490C680F252543A4
:1056F0000D60C0041060186000F016F9FFF738FF65
:10570000FCF7D2FE00F014F8FDF718F962B6FFF7C7
:105710009DFCFDF7E7F9FDF7D9F9FDF7DDF901206B
:10572000FFF70CFFFFF74AFBF9E7C04628101040CF
:105730002A480021417001707047C046F0B581B021
:105740000025264F7A576321C843824200DC024677
:105750006423642A114600DB1946397001243E5740
:10576000864200DC0646642E00DB1E467E701C4F1F
:10577000012A05DB00223846FCF7CAFF254606E071
:105780000A0623D0494201223846FCF7C1FF002611
:10579000384631462A46FCF7BBFF10480157114CEA
:1057A000012905DB00222046FCF7B2FF012606E0B6
:1057B00000290FD0494201222046FCF7A9FF002111
:1057C00020463246FCF7A4FF01B0F0BD0021384668
:1057D0000A46D1E7002120460A46E5E7820220205A
:1057E0000040084000808640F0B587B01946164654
:1057F00004468265C365026B0292406B0390A2630C
:10580000E0630C9A0D9B3046FBF71DF805460F46EA
:1058100020636163226A636AFBF708F80646069113
:10582000206261620595284604973946029A039BD7
:10583000FBF709F802900391216C656C37463046FE
:105840000E46069932462B4600F011F900280FD17A
:105850000120C007454001963E463846069F39461E
:10586000019A2B4600F0F8F83246019E002803D139
:105870002662656232462F46A068E1683B46FBF728
:1058800067F805460E4603CC059A049B083CFBF7D7
:105890005FF82A463346FAF7C9FF05460E462069E7
:1058A0006169029A039BFBF753F82A463346FAF7DD
:1058B000BDFF05460E46A064E164226D676D069249
:1058C0003B4600F0D4F800280AD10120C007474029
:1058D00028463146069A3B4600F0BEF8002803D120
:1058E000069DA564E7643E462846314607B0F0BDF4
:1058F00010B50446099860650898206507986064AB
:105900000698206405986061049820610398E0601F
:105910000298A0600CC40A98083CFBF70EF8A0653A
:10592000E16510BD344870470120C0030449086098
:10593000044908603048002181804180017070472F
:1059400080E200E000E100E010B528490A78012A71
:105950000BD0002A34D1AA2836D125480122027062
:105960002448AA2303700A7010BD214B1C78214AD9
:1059700010551C78641C1C70BB2826D1187806288A
:1059800023D10020087018701478AA2C2AD15479D9
:10599000BB2C27D1EFF3108172B6917853781B029C
:1059A0005918154B59801179D478240261189980BF
:1059B00062B650711071D07090705070107010BD40
:1059C000002008700A49087010BD18780628FBD31B
:1059D00000200870107050709070D070107150716D
:1059E000187010BD0870187010BDC0462F0A202016
:1059F0002E0A2020280A2020360A2020F8B5040C80
:105A00008BB2264682B25E43104658430D0C370CCB
:105A1000360400218019164679416E43370C36044E
:105A20008019264679416E438919F8BD4900CA029A
:105A30000243100000D004204A0D01D0012210437F
:105A4000044A490D914201D102210843012800D1A5
:105A500005207047FF07000010B500F05DF8EFF378
:105A60000080800001D5012010BD002010BD10B5C0
:105A700000F052F8EFF300804000800F012800D0C2
:105A8000002010BD10B500F079F8EFF30080800021
:105A900001D4012010BD002010BD10B500F0E6F8C3
:105AA000EFF30080800001D4012010BD002010BD64
:105AB00030380A2801D201207047002070470000CA
:105AC00010B500290AD00878002807D00548784486
:105AD000FCF724FC002801D0002010BD02487844C7
