:020000040000FA
:10000000680220208D010000910100009301000092
:1000100000000000000000000000000000000000E0
:10002000000000000000000000000000950100003A
:100030000000000000000000970100004D060000D5
:100040009B0100009B0100009B0100009B01000040
:100050009B0100009B0100009B0100009B01000030
:10006000000000009B0100009B0100000000000058
:1000700000000000610700009B010000B5060000C1
:100080009B0100009B0100009B0100005D06000039
:100090009B0100009B010000000000000000000028
:1000A0009B0100009B010000000000000000000018
:1000B0009B010000000000009B0100009B0100006C
:1000C00000F002F800F052F812A030C808382418E6
:1000D0002D18AC4201D100F049F80FCCA246AB4636
:1000E0000CA730CF2D1B083F3F197C427F1E544484
:1000F0002D090426F441641EAC4201D300F036F809
:100100000126334200D0FB1A3343984754465D46DC
:10011000DFE70000DC090000FC090000000000002F
:10012000103A02D378C878C1FAD8520701D330C840
:1001300030C101D504680C60704700000000000069
:100140007047000000000000002300240025002666
:10015000103A01D378C1FBD8520700D330C100D583
:100160000B6070471FB51FBD10B510BD00F027F81C
:100170001146FFF7F7FF00F073FC00F03FF803B4FF
:10018000FFF7F2FF03BC00F045F800000648004707
:10019000FEE7FEE7FEE7FEE7FEE7FEE70348044969
:1001A000024A044B70470000C10000006801202093
:1001B000680220206801202070477047704775460C
:1001C00000F024F8AE46050069465346C008C0005A
:1001D000854618B020B5FFF7E1FF60BCB6460026A3
:1001E0000027C0C5C0C5C0C5C0C5C0C5C0C5C0C545
:1001F000C0C5403D490849008D46704710B50446CA
:10020000C046C0462046FFF7BAFF10BD0048704701
:100210000800202001491820ABBEFEE7260002009E
:100220007047811E091F00BFFCD2704770B50A7865
:100230000C231A400124240305196E689E43B2184A
:100240006A604978072211400359934359180151B4
:1002500070BD0000B0B54A68364BC250364A8018AF
:100260000A78222A58D8930001A4E3589F46C04632
:100270000F030000190300000F0300001903000022
:1002800019030000190300001903000019030000FE
:1002900019030000190300001903000019030000EE
:1002A00019030000190300001903000019030000DE
:1002B000FD02000019030000FD0200001903000008
:1002C00019030000190300001903000019030000BE
:1002D00019030000190300001903000019030000AE
:1002E000190300001903000019030000190300009E
:1002F000FD02000019030000FD02000003231B079C
:1003000004689C4301235B07E318036004E00323B4
:100310001B0704689C4304600B69C360CB68074CEF
:100320001C40C36A064D1D402B19C362097A114354
:100330000160B0BD081800000418000077770200C3
:100340008888FDFF10B50122120383180C789C6089
:100350004B7883508978014A815010BD0C11000000
:10036000B0B51122120283580124A34383500B8895
:100370008C781C438B882343094C1C408358094DBF
:100380001D40631983508B79CC791C43097A214332
:100390007E231940801842689A4351184160B0BDCD
:1003A00018670000E798FDFF10B5012212038318BB
:1003B0000C789C604978815010BD000009480A49BA
:1003C000016041600121490602680A4302604268F7
:1003D0000A434260054882218163054AC263016085
:1003E000C26070479880424084000C000C804240FC
:1003F0008200040080B511481149FFF717FF032060
:100400004102104802680A43026001210A0203689F
:10041000134303600022426107224262836B9343CD
:1004200083631202836B93438363826A04231343BF
:100430008362826A0A43826280BDC04600200F4008
:10044000BC0A000000320F400C480021016003206C
:10045000C1430B480246083A13680B401360016819
:10046000012291430160110203688B430360110371
:10047000001F02680A4302607047C04608030B4031
:1004800008010B40084809494160FF210906084A54
:1004900013688B430321890759181160002181607B
:1004A000072101607047C04610E000E0FF7C0000BB
:1004B00020ED00E010B5084C08492046FFF742FF48
:1004C00007492046FFF7C6FE06480168012211438E
:1004D00001600548026010BD00208640BE0A000091
:1004E000C40A0000283086400831864010B5154CFB
:1004F00015492046FFF758FF14492046FFF730FF03
:100500000321CA03124803689343036002692C4B1A
:1005100013409A1C026142690B2313433422934314
:100520004361426801231A4044689C43A218426018
:100530008902084A14680C43146001681943016079
:1005400010BDC04600801040D80A0000DA0A000042
:10055000009110402890104010B5154C15492046C8
:10056000FFF722FF14492046FFF7FAFE0321CA03D2
:1005700012480368934303600269114B13409A1CAD
:10058000026142690B23134334229343436142685F
:1005900001231A4044689C43A21842608902094A18
:1005A00014680C43146001681943016010BDC04613
:1005B00000001040E40A0000E60A000000111040AC
:1005C0000000FFFF2810104080B500F015F8FFF77D
:1005D000F5FEFFF739FFFFF76DFFFFF70BFFFFF7A2
:1005E000BBFFFFF783FFFFF74DFFB8200149002253
:1005F0000A5480BD7400202070B50C480C4941603D
:100600000C4A51600C4B59600C4C61600C4D696098
:100610000C4E71600C490160116019602160296005
:1006200031601020FFF7FDFD70BDC04600080A4094
:10063000030000B100280A400028864000280F402F
:10064000000810400088104001000026F0480168B2
:10065000002902D00168491E0160704770B5124838
:100660000068C0B201281DD1FA4B188898815E88B5
:100670005E830E4C2578002D06D016201A5E1820B9
:10068000195E30B2123305E008215A5E0A21595E24
:1006900000B21B1D00F074F80120C104044A11606F
:1006A0004540257070BDC04620308640680020203F
:1006B00080E200E0B0B524480068C0B20B283BD10E
:1006C00022480068224908700B78224801780129E5
:1006D0000BD000292CD1AA2B2ED11F4901220A7040
:1006E0001E49AA230B700270B0BD1B490C781B4A2F
:1006F00013550C78641C0C70BB2B1ED10B78032B8C
:100700001BD3002303700B701478AA2C0DD15479DD
:10071000BB2C0AD1947855782D022C19E64D6C80AB
:100720001479D27812021219AA8003700B70B0BD2E
:100730000021017008480170B0BD0A78072AFBD378
:10074000002202700A70B0BD209010402491104029
:10075000600120205F0120205E0120205801202020
:1007600004480068C0B20B2803D10348006803495D
:1007700008707047201010402411104061012020A3
:10078000F0B501265E801C88002C00D0F0BD634DC2
:100790002970002800DC00265E81614C2670090A61
:1007A000604F397001B2C9134840401A18815E4940
:1007B0000870010A5D4B197000B2C0135C4E3070B6
:1007C0005C49087089480368DB0708D00368DB07C9
:1007D00005D00368DB0702D00368DB07F3D1D2B290
:1007E00082610268D20708D00268D20705D0026889
:1007F000D20702D00268D207F3D1FB2282610268DD
:10080000D20708D00268D20705D00268D20702D00A
:100810000268D207F3D1227882610268D20708D039
:100820000268D20705D00268D20702D00268D20758
:10083000F3D13A7882610268D20708D00268D20701
:1008400005D00268D20702D00268D207F3D12A7815
:1008500082610268D20708D00268D20705D0026818
:10086000D20702D00268D207F3D1327882610268DF
:10087000D20708D00268D20705D00268D20702D09A
:100880000268D207F3D1097881610168C90708D0ED
:100890000168C90705D00168C90702D00168C90706
:1008A000F3D12249097881610168C90708D001683C
:1008B000C90705D00168C90702D00168C907F3D18B
:1008C0001949097881610168C90708D00168C90719
:1008D00005D00168C90702D00168C907F3D1012119
:1008E00081610168C90708D00168C90705D001689E
:1008F000C90702D00168C907F3D1002181610168ED
:10090000C90708D00168C90705D00168C90702D026
:100910000168C907F3D16B218161F0BD010020207E
:100920006900202000002020020020206C002020F0
:100930006A0020206B0020201080002800D0704723
:100940002A480268D20708D00268D20705D0026898
:10095000D20702D00268D207F3D1C9B2816101681F
:10096000C90708D00168C90705D00168C90702D0C6
:100970000168C907F3D1F32181610168C90708D073
:100980000168C90705D00168C90702D00168C90715
:10099000F3D1AB2181610168C90708D00168C9079B
:1009A00005D00168C90702D00168C907F3D1012148
:1009B00081610168C90708D00168C90705D00168CD
:1009C000C90702D00168C907F3D10021816101681C
:1009D000C90708D00168C90705D00168C90702D056
:1009E0000168C907F3D16B2181617047081110407C
:1009F000074908600868002808D00868002805D062
:100A00000868002802D008680028F3D17047C04663
:100A10007000202070B50F4C00200F4A0F4B0121B1
:100A20000D040926760121C422606060083C22463C
:100A3000103249C2E061221DFFF77EFF1620215EC1
:100A40001220205E22461232FFF776FF00F022F8D5
:100A5000206270BD30012020010020010100020051
:100A6000FFF7B2FD01204103114A1160114B1960DB
:100A700007490C680F2525430D60C00410601860FD
:100A800000F00AF8FFF7C6FF6420FFF7B1FFFBE7AD
:100A900028101040084870470120C003044908602E
:100AA000044908600448002181804180017070473A
:100AB00080E200E000E100E0620120200800080779
:100AC0006300000002000000C700000001000000F9
:100AD00000000000000000000400000018000000FA
:100AE000003000000400000018000000003000008A
:100AF000100B000000002020080000002001000072
:100B0000180B0000080020206002000048010000CF
:080B100001200A0000000000B2
:04000005000000C136
:00000001FF
